:100000000C94A1170C94CB170C94CB170C94CB1712
:100010000C94CB170C94CB170C94CB170C94CB17D8
:100020000C94CB170C94CB170C94CB170C94CB17C8
:100030000C94CB170C94A5250C94CB170C94CB17D0
:100040000C94CB170C9481230C9427B50C94CB17EC
:100050000C94D9A00C94CB170C94CB170C94CB1701
:100060000C94CB170C94CB170C94CB170C94CB1788
:100070000C94CB170C94CB170C94CB170C94CB1778
:100080000C94552D0C94CB170C94CB17084AD73BE6
:100090003BCE016E84BCBFFDC12F3D6C74319ABD57
:1000A00056833DDA3D00C77F11BED9E4BB4C3E917B
:1000B0006BAAAABE000000803F05A84CCDB2D44E6A
:1000C000B93836A9020C50B9918688083CA6AAAA6C
:1000D0002ABE000000803F004E414E494E4954590F
:1000E000494E46CDCCCC3D0AD7233C17B7D1387703
:1000F000CC2B329595E6241FB14F0A000020410019
:1001000000C84200401C4620BCBE4CCA1B0E5AAE62
:10011000C59D74434F4D4D554E49434154494F4E33
:100120000044525952554E004552524F52530049C5
:100130004E464F004543484F00656E7175657565C5
:10014000696E672022004B494C4C45442E200053D9
:10015000544F505045442E20005072696E746572A1
:100160002073746F707065642064756520746F20EF
:100170006572726F72732E204669782074686520EC
:100180006572726F7220616E6420757365204D39DF
:10019000393920746F20726573746172742E20284F
:1001A00054656D7065726174757265206973207233
:1001B000657365742E2053657420697420616674BC
:1001C00065722072657374617274696E67290A00C2
:1001D0004E6F20436865636B73756D207769746833
:1001E000206C696E65206E756D6265722C204C61A5
:1001F0007374204C696E653A20004E6F2043686529
:10020000636B73756D2077697468206C696E652007
:100210006E756D6265722C204C617374204C696E32
:10022000653A2000636865636B73756D206D697353
:100230006D617463682C204C617374204C696E6529
:100240003A20004C696E65204E756D6265722069BA
:1002500073206E6F74204C617374204C696E65203E
:100260004E756D6265722B312C204C617374204C7D
:10027000696E653A20004D313130004D3331005305
:10028000442072656164206572726F720A00446F67
:100290006E65207072696E74696E672066696C6540
:1002A0000A0020496E76616C696420657874727505
:1002B00064657220000000000000000000000000E3
:1002C0000000006B4300006B4300007A4342696CFE
:1002D000696E656172204C6576656C696E67204752
:1002E0007269643A0A0047322F4733206261642002
:1002F000706172616D65746572730A0020284452E2
:100300005952554E2900473239204175746F2042A9
:100310006564204C6576656C696E67003F20284CEB
:100320002C522C462C4229206F7574206F66206257
:100330006F756E64732E0A003F2856296572626FCE
:100340007365206C6576656C20697320696D706CCF
:1003500061757369626C652028302D34292E0A007E
:10036000426164205A2076616C75650A004E6F20E8
:1003700062696C696E65617220677269640A005017
:10038000726F7465637465642050696E0A0020574B
:100390003A004520436F6F6C696E672E2E2E004524
:1003A0002048656174696E672E2E2E0020573A0032
:1003B00042656420636F6F6C696E672E2E2E00425B
:1003C00065642068656174696E672E2E2E00205A60
:1003D0003A0020593A0020436F756E7420583A0055
:1003E00020453A00205A3A0020593A00583A003A3B
:1003F000004361703A00205A002059005800202024
:100400004D61783A2000205A0020590058002020E1
:100410004D696E3A20004F6E20004F666600536FA4
:10042000667420656E6473746F70733A2000236481
:100430006566696E652044454641554C545F4B6482
:10044000200023646566696E652044454641554C2D
:10045000545F4B69200023646566696E65204445DE
:100460004641554C545F4B70200050494420417523
:10047000746F74756E652066696E69736865642152
:100480002050757420746865206C617374204B7003
:100490002C204B6920616E64204B6420636F6E7367
:1004A00074616E74732066726F6D2062656C6F7715
:1004B00020696E746F20436F6E6669677572617430
:1004C000696F6E2E680A00504944204175746F743C
:1004D000756E65206661696C6564212074696D655F
:1004E0006F75740A00453120544845524D414C20E7
:1004F00052554E4157415900546865726D616C20E8
:1005000052756E6177617900453120486561746983
:100510006E67206661696C65640048656174696E28
:1005200067206661696C65640050494420417574B8
:100530006F74756E65206661696C65642120546511
:100540006D706572617475726520746F6F20686973
:1005500067680A00204B643A2000204B693A20006B
:10056000204B703A20000A20436C6173736963204A
:10057000504944200A002054753A2000204B753A17
:100580002000206D61783A2000206D696E3A2000CD
:1005900020643A200020626961733A200050494487
:1005A000204175746F74756E652073746172740A7E
:1005B00000504944204175746F74756E6520666102
:1005C000696C6564212054656D7065726174757223
:1005D0006520746F6F20686967680A00504944207D
:1005E0004175746F74756E65206661696C65642110
:1005F00020426164206578747275646572206E753E
:100600006D6265720A004F66660A00466164652085
:100610004865696768742000426564204C657665AA
:100620006C696E6720004661696C656420746F2098
:10063000656E61626C6520426564204C6576656C10
:10064000696E670A004F6666736574732061707027
:100650006C696564004572723A20546F6F20666160
:10066000722100546F6F206661722066726F6D2078
:100670007265666572656E636520706F696E740A77
:1006800000536C6565702E2E2E00486F6D652058E6
:10069000592066697273740A00486F6D6520585955
:1006A00020666972737400205A3A200020593A205B
:1006B0000042656420583A20004D65736820706FD1
:1006C000696E742063616E6E6F742062652072655E
:1006D000736F6C7665640A00436C69636B20746F9A
:1006E00020726573756D652E2E2E004E6F206D6F16
:1006F00076652E00456E642066696C65206C6973B2
:10070000740A00426567696E2066696C65206C69D1
:1007100073740A00286E6F2066696C652900437542
:100720007272656E742066696C653A2000534420CD
:100730007072696E74696E67206279746520004E0C
:100740006F74205344207072696E74696E670A007A
:1007500044656C6574696F6E206661696C65642CB4
:100760002046696C653A200046696C652064656CBA
:10077000657465643A002569730025696D202569F3
:1007800073002569682025696D2025697300256936
:1007900064202569682025696D2025697300256915
:1007A0007920256964202569682025696D202569DF
:1007B00073005072696E742074696D653A20006F21
:1007C00066660034012F01280121011301444542CE
:1007D00055473A004B494C4C45442E20004D313191
:1007E000332053006F6B00456E6465722D33204FCC
:1007F00066662E002C20002C2000544845524D41A6
:100800004C5F50524F54454354494F4E004155544C
:100810004F5245504F52545F53445F5354415455C7
:100820005300454D455247454E43595F5041525341
:10083000455200434153455F4C494748545F42523B
:10084000494748544E45535300544F47474C455F22
:100850004C494748545300534F4654574152455F03
:10086000504F574552004255494C445F5045524302
:10087000454E54004C4556454C494E475F44415403
:1008800041005A5F50524F4245004155544F4C452C
:1008900056454C005052494E545F4A4F4200505208
:1008A0004F4752455353004155544F5245504F52B4
:1008B000545F54454D5000564F4C554D4554524988
:1008C0004300454550524F4D0053455249414C5FFE
:1008D000584F4E5F584F4646004649524D57415279
:1008E000455F4E414D453A4D61726C696E20312E27
:1008F000312E392E312028476974687562292053BA
:100900004F555243455F434F44455F55524C3A68FB
:10091000747470733A2F2F6769746875622E636FF1
:100920006D2F4D61726C696E4669726D776172658B
:100930002F4D61726C696E2050524F544F434F4C93
:100940005F56455253494F4E3A312E30204D414368
:1009500048494E455F545950453A456E6465722D7D
:10096000332045585452554445525F434F554E54D9
:100970003A3120555549443A6365646532613266BF
:100980002D343161322D343734382D396231322DE6
:100990006335356336326633363766660A002F2F85
:1009A00020004D31343520533C696E6465783E201B
:1009B0006F7574206F662072616E67652028302D18
:1009C00031290A00205400205200416363656C65A0
:1009D000726174696F6E3A2050005741524E494E11
:1009E0004721204C6F77205A204A65726B206D6139
:1009F00079206C65616420746F20756E77616E7408
:100A00006564207061757365732E0A0020466C6FF3
:100A1000773A200000010F150E12FFFFFFFF161797
:100A20000E13FFFFFFFF03021A14FFFFFFFFFFFF7C
:100A3000FF0C04FFFFFF01000EFFFFFF0C190DFF6D
:100A4000183A200020536572766F2000206F75746D
:100A5000206F662072616E67650A00536572766F5B
:100A6000200050726F6265205A204F66667365746D
:100A70003A2000496E76616C6964206578747275FD
:100A80006465720A0020643A0020693A0020703AD6
:100A90000043290A0061626C656420286D696E203C
:100AA00074656D702000436F6C6420657874727596
:100AB0006465732061726520004E6F206361736509
:100AC000206C696768740A004D65736820706F69EF
:100AD0006E742063616E6E6F742062652072657340
:100AE0006F6C7665640A004D34323120696E636F35
:100AF000727265637420706172616D6574657220D5
:100B000075736167650A00454550524F4D204F4B44
:100B10000A003F5A206F7574206F662072616E67FD
:100B20006520282D323020746F203230290A003A97
:100B3000200050726F6265205A204F66667365749C
:100B400000416374697665204578747275646572D6
:100B50003A2000496E76616C69642065787472751C
:100B60006465720A00526573656E643A20006F6BAB
:100B70000020746F6F206C6F6E67206578747275DB
:100B800073696F6E2070726576656E7465640A00B5
:100B900020636F6C6420657874727573696F6E2062
:100BA00070726576656E7465640A00627573793A71
:100BB0002070617573656420666F7220696E707550
:100BC000740A00627573793A2070617573656420E8
:100BD000666F7220757365720A00627573793A20C8
:100BE00070726F63657373696E670A004B494C4C92
:100BF00045442E20004B494C4C206361757365645D
:100C000020627920746F6F206D75636820696E6152
:100C100063746976652074696D65202D2063757233
:100C200072656E7420636F6D6D616E643A20005062
:100C30006C65617365207265736574005052494E2E
:100C40005445522048414C544544005072696E74DA
:100C500065722068616C7465642E206B696C6C2809
:100C6000292063616C6C6564210A000000000000AB
:100C7000000000000000000000A0410000A04100B2
:100C8000008040000000005761726E696E673A2074
:100C9000486F6D696E672042756D70204469766992
:100CA000736F72203C20310A000202040000A04051
:100CB0000000A0400000004000006B4300006B43B8
:100CC00000007A43FFFFFF7C3C3E5E2B3D3F2F5BE5
:100CD0005D3B2C2A225C004572726F72207772692C
:100CE00074696E6720746F20454550524F4D210A3C
:100CF00000454550524F4D206461746173697A65B7
:100D0000206572726F722E0A00290A0020627974BF
:100D100065733B20637263200053657474696E676A
:100D2000732053746F726564202800290A002062C2
:100D3000797465733B2063726320002073746F7253
:100D400065642073657474696E677320726574726C
:100D50006965766564202800202863616C63756C82
:100D60006174656429210A0020213D200045455019
:100D7000524F4D20435243206D69736D6174636817
:100D8000202D202873746F72656429200020536918
:100D90007A653A2000496E6465783A2000204D61FA
:100DA000726C696E3D563536290A00284545505209
:100DB0004F4D3D00454550524F4D20766572736949
:100DC0006F6E206D69736D61746368200048617295
:100DD00064636F6465642044656661756C74205358
:100DE000657474696E6773204C6F616465640A0092
:100DF000F4010000F401000064000000881300000A
:100E00000000FA430000FA430000A0400000C8417F
:100E10000000A0420000A0420000C8430000BA4207
:100E20003A0A0020286D6D290020204D38353120E8
:100E30005A005A2D50726F6265204F666673657452
:100E40000020440020490020204D33303120500044
:100E50005049442073657474696E67733A0A0020C0
:100E6000460020420020480020204D3134352053D8
:100E7000004D6174657269616C206865617475709C
:100E800020706172616D65746572733A0A00205A50
:100E900000204A0020204732392057204900205A9C
:100EA0000020204D3432302053004175746F2042B1
:100EB0006564204C6576656C696E673A0A00205A55
:100EC0000020590020204D323036205800486F6DE8
:100ED00065206F66667365743A0A00204500205AE3
:100EE0000020590020580020540020530020204D9D
:100EF00032303520510020453C6D61785F655F6A76
:100F000065726B3E0020583C6D61785F785F6A6562
:100F1000726B3E20593C6D61785F795F6A65726BD8
:100F20003E205A3C6D61785F7A5F6A65726B3E0065
:100F3000416476616E6365643A20513C6D696E5F11
:100F40007365676D656E745F74696D655F75733E1B
:100F500020533C6D696E5F66656564726174653EC1
:100F600020543C6D696E5F74726176656C5F666576
:100F70006564726174653E00205400205200202098
:100F80004D323034205000416363656C657261748A
:100F9000696F6E2028756E6974732F7332293A2039
:100FA000503C7072696E745F616363656C3E205281
:100FB0003C726574726163745F616363656C3E204B
:100FC000543C74726176656C5F616363656C3E0A64
:100FD00000204500205A0020590020204D32303199
:100FE0002058004D6178696D756D20416363656CB3
:100FF00065726174696F6E2028756E6974732F73E2
:1010000032293A0A00204500205A002059002020A9
:101010004D3230332058004D6178696D756D206612
:1010200065656472617465732028756E6974732FC9
:1010300073293A0A00204500205A00205900202038
:101040004D393220580053746570732070657220DA
:10105000756E69743A0A0020204D323030204430D9
:101060000A0020204D323030204400204469736152
:10107000626C65640A0046696C616D656E7420730C
:10108000657474696E67733A0020204D31343920DD
:1010900043203B20556E69747320696E2043656C54
:1010A000736975730A002020473231202020203BCD
:1010B00000486F6D696E67206661696C65640054F5
:1010C0005249474745524544006F70656E003A20CB
:1010D000007A5F6D696E00795F6D696E00785F6D93
:1010E000696E005265706F7274696E6720656E6418
:1010F00073746F70207374617475730A0020746F59
:101100006F206C6F6E6720657874727573696F6E8F
:101110002070726576656E7465640A0020636F6C7A
:101120006420657874727573696F6E20707265766D
:10113000656E7465640A0024F4D43050C38E20C2F6
:10114000A24017828B7011127A910D816CD90AA876
:1011500061E108C7586607615143061E4B5D05C132
:1011600045A7041A411104093D9803713931034020
:1011700036DB0265339102D4305402802E1D0263A7
:101180002CEE01752AC501B028A001102781018F1E
:101190002564012B244B01E0223401AC211F018D79
:1011A000200D01801FFC00841EED00971DDF00B89C
:1011B0001CD200E61BC600201BBC00641AB200B2A1
:1011C00019A8000A19A0006A189900D117910040C7
:1011D000178B00B516840031167E00B31579003ADE
:1011E000157300C7146F0058146A00EE1366008868
:1011F00013630025135E00C7125B006C12570015C5
:10120000125400C111510070114F0021114B00D632
:101210001049008D1047004610440002104200C0E3
:101220000F4000800F3E00420F3C00060F3B00CBFA
:101230000E3800930E37005C0E3500270E3400F395
:101240000D3200C10D3100900D3000600D2E0032C6
:101250000D2D00050D2C00D90C2B00AE0C2900859E
:101260000C29005C0C2700350C27000E0C2600E82A
:101270000B2400C40B2400A00B23007D0B23005A79
:101280000B2100390B2100180B2000F80A1F00D990
:101290000A1E00BB0A1E009D0A1D00800A1D006375
:1012A0000A1C00470A1B002C0A1B00110A1A00F72F
:1012B000091A00DD091900C4091900AB09190092C7
:1012C0000917007B091800630917004C091600363E
:1012D000091600200916000A091500F5081500E096
:1012E000081400CC081400B8081400A408140090D6
:1012F0000813007D0812006B0813005808120046FE
:10130000081200340811002308110012081100010E
:10131000081100F0071000E0071000D0071000C00F
:10132000071000B0070F00A107100091070E0083FF
:10133000070F0074070F0065070E0057070E0049DE
:10134000070E003B070D002E070E0020070D0013AF
:10135000070D0006070D00F9060C00ED060D00E074
:10136000060C00D4060C00C8060C00BC060C00B02D
:10137000060C00A4060B0099060C008D060B0082DB
:10138000060B0077060B006C060B0061060A00577F
:10139000060B004C060A0042060A0038060A002E18
:1013A000060A0024060A001A060A001006090007A9
:1013B000060A00FD050900F4050900EB050900E235
:1013C000050900D9050900D0050900C7050900BEB7
:1013D000050900B5050800AD050800A50509009C34
:1013E000050800940508008C050800840508007CA9
:1013F000050800740508006C050700650508005D18
:10140000050700560508004E050700470507004080
:1014100005080038050700310507002A05070023E5
:101420000507001C050600160507000F0507000844
:1014300005060002050700FB040600F5040700EEA0
:10144000040600E8040600E2040700DB040600D5F9
:10145000040600CF040600C9040600C3040600BD4C
:10146000040600B7040600B1040500AC040600A69B
:10147000040600A00405009B0406009504050090E6
:101480000406008A04050085040500800406007A2D
:1014900004050075040500700405006B0405006672
:1014A000040500610405005C0405005704050052B2
:1014B0000405004D04050048040500430405003EF2
:1014C0000404003A04050035040500300404002C2F
:1014D00004050027040400230405001E0404001A68
:1014E00004040016040500110404000D040400099E
:1014F0000405000404040000040400FC030400F8D4
:10150000030400F4030400F0030400EC030400E807
:10151000030400E4030400E0030400DC030400D837
:10152000030400D4030400D0030400CC030400C867
:10153000030300C503030024F404D9201BC40C5C7E
:101540000E9804C4095F0265077101F405F900FBF8
:1015500004B30048048700C1036900580355000321
:10156000034500BE023A008402310053022A0029DA
:1015700002250004022000E4011C00C8011900AF8C
:10158000011700980114008401130071011000611B
:1015900001100051010E0043010D0036010B002B1C
:1015A000010B0020010B00150109000C01090003CB
:1015B000010800FB000800F3000800EB000700E44E
:1015C000000600DE000600D8000600D2000600CCAF
:1015D000000500C7000500C2000500BD000400B9F9
:1015E000000400B5000400B1000400AD000400A92F
:1015F000000400A5000300A20003009F0004009B5C
:10160000000300980003009500020093000300907F
:101610000003008D0002008B00030088000200869A
:1016200000020084000300810002007F0002007DB0
:101630000002007B000200790002007700010076C2
:101640000002007400020072000100710002006FCD
:101650000002006D0001006C0002006A00010069D8
:1016600000020067000100660001006500010064DF
:101670000002006200010061000100600001005FE3
:101680000002005D0001005C0001005B0001005AE7
:1016900000010059000100580001005700010056E8
:1016A00000010055000100540001005300000053E8
:1016B0000001005200010051000100500001004FE4
:1016C0000001004E0000004E0001004D0001004CE2
:1016D0000001004B0000004B0001004A00010049DE
:1016E00000010048000000480001004700010046DA
:1016F00000000046000100450000004500010044D4
:1017000000010043000000430001004200000042CD
:101710000001004100000041000100400001003FC5
:101720000000003F0001003E0000003E0001003DBF
:101730000000003D0001003C0000003C0000003CB7
:101740000001003B0000003B0001003A0000003AAD
:1017500000010039000000390001003800000038A5
:10176000000000380001003700000037000100369B
:101770000000003600000036000100350000003592
:101780000000003500010034000000340000003487
:10179000000100330000003300000033000100327C
:1017A0000000003200000032000100310000003172
:1017B0000000003100010030000000300000003067
:1017C0000001002F0000002F0000002F0000002F5C
:1017D0000001002E0000002E0000002E0001002D50
:1017E0000000002D0000002D0000002D0001002C45
:1017F0000000002C0000002C0000002C0001002B39
:101800000000002B0000002B0000002B0001002A2C
:101810000000002A0000002A0000002A0001002920
:101820000000002900000029000000290000002914
:101830000001002800000028000000280000002807
:1018400000000028000100270000002700000027FA
:1018500000000027000000270001002600000026ED
:1018600000000026000000260000002600010025E0
:1018700000000025000000250000002500000025D4
:1018800000000025000100240000002400000024C6
:1018900000000024000000240001002300000023B9
:1018A00000000023000000230000002300000023AC
:1018B000000000230001002200000022000000229E
:1018C0000000002200000022000000220001002190
:1018D0000000002100000021000000210000002184
:1018E0000000002100000021000100200000002075
:1018F0000000002000000020000000200000002068
:1019000000000020000000200001001F0000001F58
:101910000000001F0000001F0000001F0000001F4B
:101920000000001F0001001E0000001E0000001E3D
:101930000000001E000000043700001E29000051B6
:101940001B00005810000010090000CC04000078B3
:10195000020000410100006265640A002C207379D6
:101960007374656D2073746F7070656421204865B1
:10197000617465725F49443A20004265642068657D
:101980006174696E67206661696C656400486561B1
:1019900074696E67206661696C6564004531204832
:1019A000656174696E67206661696C65640048658D
:1019B0006174696E67206661696C65640070012CF2
:1019C0000190012701B0012201C0011D01F00118A1
:1019D000011002130130020E01600209019002049D
:1019E00001C002FF000003FA004003F5008003F08D
:1019F00000D003EB002004E6007004E100E004DC0A
:101A0000004005D700C005D2004006CD00D006C872
:101A1000008007C3003008BE00F008B900C009B458
:101A200000B00AAF00B00BAA00D00CA500000EA0B9
:101A300000500F9B00C01096005012910000148CB3
:101A400000C0158700B0178200B0197D00D01B7848
:101A500000001E730040206E0090226900F0246494
:101A60000040275F0090295A00E02B5500102E50AF
:101A70000020304B0010324600E033410090353CEE
:101A8000001037370070383200A0392D00B03A28E6
:101A900000A03B2300603C1E00103D1900903D1447
:101AA00000103E0F00703E0A00C03E0500003F00DF
:101AB00000403FFBFF803FF6FFC03FF1FF45312074
:101AC000544845524D414C2052554E4157415900C2
:101AD00042454420544845524D414C2052554E41B8
:101AE00057415900546865726D616C2052756E6182
:101AF000776179004531204572723A204D41585442
:101B0000454D50004572723A204D415854454D5054
:101B100020424544004D415854454D50207472694F
:101B2000676765726564004531204572723A204DE1
:101B3000494E54454D50004572723A204D494E541D
:101B4000454D5020424544004D494E54454D50208E
:101B5000747269676765726564004D383420582077
:101B600059205A204500202F002042403A002040B2
:101B70003A0025753A2530327500253032753A2500
:101B80003032750025756420253032753A253032A3
:101B90007500202020202020005A005900202020FD
:101BA0002000580009200000000000000000000094
:101BB000000000003FFFF0000000000000000000F7
:101BC000000000003800700000000000000000006D
:101BD0000000000030FC30000000000000000000A9
:101BE0000000000020FC10000000000000000000C9
:101BF000000000002078100000000000000000003D
:101C00000000000020301000000000000000000074
:101C1000000000002C00D0F80180000C1FE0000044
:101C2000082080002E31D048008000123FF00000D4
:101C3000041040002F7BD043C38CD0023FF0000043
:101C4000041040002F7BD071249267CC3FF000003D
:101C5000082080002E31D041249E40021FE0000069
:101C6000104100002C00D049249040121FE00000D9
:101C700020820000203010FBB3CEE00C3FF00000CB
:101C80002082000020781000000000003FF00000DB
:101C90001041000020FC1000000000003FF0000098
:101CA0000820800030FC3000000000000FC0000061
:101CB00000000000380070000000000007800000F5
:101CC000FFFFC0003FFFF000000000000300000025
:101CD000FFFFC00000000000000000000000000046
:101CE000000000003FFFF0000000000000000000C6
:101CF000000000003800700000000000000000003C
:101D000000000000338730000000000000000000E9
:101D10000000000027879000000000000000000085
:101D2000000000002F87D00000000000000000002D
:101D3000000000002F87D00000000000000000001D
:101D4000000000002F03D0F80180000C1FE000000D
:101D50000820800020301048008000123FF0000072
:101D60000410400020781043C38CD0023FF00000E4
:101D70000410400020781071249267CC3FF00000DE
:101D80000820800020301041249E40021FE0000007
:101D9000104100002F03D049249040121FE00000A2
:101DA000208200002F87D0FBB3CEE00C3FF0000074
:101DB000208200002F87D000000000003FF00000CC
:101DC0001041000027879000000000003FF0000055
:101DD0000820800033873000000000000FC00000A2
:101DE00000000000380070000000000007800000C4
:101DF000FFFFC0003FFFF0000000000003000000F4
:101E0000FFFFC000000000456E6465722D33205254
:101E1000656164792E005072696E74696E672E2E4A
:101E20002E005072696E7420706175736564004392
:101E30006D643A2053572D4D6F646500436D643ACD
:101E40002053746F7700436D643A204465706C6F63
:101E50007900436D643A2053656C662D5465737444
:101E600000436D643A205265736574004D61696E7C
:101E7000005072696E742061626F7274656400490B
:101E80006E69742E2053442063617264004D3231B8
:101E9000004E6F2053442063617264004368616E9A
:101EA00067652053442063617264004D32310050F5
:101EB00072696E742066726F6D2053440053746FA4
:101EC00070207072696E7400526573756D65207054
:101ED00072696E740041626F7574205072696E741D
:101EE0006572005061757365207072696E7400438D
:101EF0006F6E74726F6C0050726570617265005421
:101F0000756E6500496E666F2073637265656E005D
:101F100050726F6265205A204F6666736574005078
:101F2000726F6265205A204F666673657400466C56
:101F30006F7700466C6F770046616E207370656541
:101F4000640046616E2073706565640042656400DC
:101F5000426564004E6F7A7A6C65004E6F7A7A6CD7
:101F600065005370656564005370656564004D617C
:101F7000696E005072656865617420504C4120455F
:101F80006E64005072656865617420504C41204257
:101F90006564005072656865617420504C41005062
:101FA0007265706172650050726568656174204188
:101FB000425320456E64005072656865617420412B
:101FC0004253204265640050726568656174204127
:101FD0004253005072657061726500436D643A202F
:101FE0005265736574004D323830205030205331C3
:101FF000363000436D643A2053656C662D5465732A
:1020000074004D323830205030205331323000507F
:10201000726568656174204142530050726568655D
:10202000617420504C4100436F6F6C646F776E0099
:1020300044697361626C6520737465707065727356
:10204000004D3834004175746F20686F6D6500472E
:102050003238004D6F76652061786973004D616993
:102060006E004D6F76652058004D6F7665205900E3
:102070004D6F7665205A00457874727564657200FC
:102080004D6F766520302E316D6D004D6F76652079
:10209000316D6D004D6F76652031306D6D004D6F87
:1020A000766520617869730045787472756465722D
:1020B000004D6F7665205A004D6F76652059004DB2
:1020C0006F76652058004578747275646572004DAE
:1020D0006F7665205A004D6F76652059004D6F76FA
:1020E0006520580050726570617265004C6F6164C4
:1020F0002073657474696E677300526573746F72D0
:1021000065206661696C736166650053746F726502
:102110002073657474696E677300424C546F756305
:10212000680046696C616D656E74004D6F74696F0F
:102130006E0054656D7065726174757265004D61F5
:10214000696E004D333033205531204525692053C9
:10215000256900504944204175746F74756E65009F
:10216000504944204175746F74756E650050494440
:102170002D44005049442D44005049442D490050FD
:1021800049442D49005049442D50005049442D5098
:1021900000200820466163740020082046616374B3
:1021A000002008204D6178002008204D6178002033
:1021B00008204D696E002008204D696E004F66664C
:1021C000004F6E20004175746F74656D700046613C
:1021D0006E2073706565640046616E20737065657E
:1021E000640042656400426564004E6F7A7A6C65F3
:1021F000004E6F7A7A6C6500436F6E74726F6C007C
:1022000050726F6265205A204F6666736574004392
:102210006F6E74726F6C0046696C2E204469612E7B
:102220000046696C2E204469612E004F6666004F9F
:102230006E20004520696E206D6D3300436F6E7413
:10224000726F6C0043616E6E6F7420656E746572A0
:10225000207375626469723A2000022E2E000152CA
:10226000656672657368004D61696E004D61782026
:1022700054656D703A20313235004D696E205465D9
:102280006D703A203500544265643A4550434F53CF
:10229000203130304B004D61782054656D703A200C
:1022A000323735004D696E2054656D703A20350027
:1022B00054303A204550434F53203130304B00507A
:1022C00053553A2047656E657269630050726F74AA
:1022D0006F636F6C3A20312E3000426175643A2092
:1022E000313135323030004D656C7A6920284372C7
:1022F00065616C697479290042696C696E65617207
:10230000204C6576656C696E6700457874727564FB
:102310006572733A203100687474703A2F2F6D61C2
:10232000726C696E66772E6F726700456E646572B7
:102330002D3300323032302D30362D323000312EF8
:10234000312E392E31004D61726C696E0054686512
:10235000726D6973746F727300426F6172642049A9
:102360006E666F005072696E74657220496E666F9A
:10237000004D61696E0000002100240027002A0042
:1023800000002200250028002B0000002000230070
:1023900026002900020202020202020204040404CE
:1023A0000404040403030303030303030101010101
:1023B000010101010102040810204080010204080B
:1023C000102040800102040810204080804020102E
:1023D00008040201000000010200090A00000000D8
:1023E00004030807000000000000000000000000D7
:1023F00000000000FFFFFFFFEFFFFFFFFFFFFFFFF9
:10240000FFFFFFEFEFFFFFFFFFFFFFFFFFFFE7DF34
:10241000FFFFFFFFFFFFFFFFFFE7DFFFFFFFFFFF04
:10242000FFFFFFFFE3DFFFFFFFFFFFFFFFFFFFF304
:10243000CFFFFFFFFFFFFFFFFFE1E1CFFFFFFFFF48
:10244000FFFFFE78000003DDFFFFFFFFFEFF807E41
:102450000001EEFFFFFFFFFE7DCFFC0000F77FFFD6
:10246000FFFFFF8E060000007BBFFFFFFFFFC000E5
:102470000000007DDFFFFFFFFFFC01FE00003EE7E4
:10248000FFFFFFFFFFFFFC00031F73FFFFFFFFFFC6
:10249000FFF800018F81FFFFFFFFFFFFE0000083D7
:1024A000F9FFFFFFFFFFFF00FC0000F0FFFFFFFF51
:1024B000FFE00FFFC00000FFFFFFFFFE03FFFFC0B4
:1024C0000000FFFFFFFFFFFFFFF9000000FFFFFF1D
:1024D000FFFFFFFFFC0007C0FFFFFFFFFFFFFFFF45
:1024E0000007E0FFFFFFFFFFFFFFFFE007F1FFFF37
:1024F000FFFFFFFFFFFFFC07F9FFFFFFFFFFFFFFED
:10250000FFFF03F9FFFFFFFFFFFFFFFFFF83F9FF5F
:10251000FFFFFFFFFFFFFFFFC3FFFFFFFFFFFFFF07
:10252000FFFFFFE1FFFFFFFFFFFFFFFFFFFFF0BF28
:10253000FFFFFFFFFFFFFFFFFBF83FFFFFFFFFFF76
:10254000FFFFFFF9F83FFFFFFFFFFFFFFFFF7EF0F8
:10255000FFFFFFFFFFFFFFFFFF8E03FFFFFFFFFFF8
:10256000FFFFFFFFE01FFFFFFFFFFFFFFFFFFFFF7A
:10257000FFFFFFFFFFFFFFFFFFFFFFFFFFFFFFFF6B
:10258000FFFFFFFFFFFFFF7FFFFFFFFF00007FFF59
:10259000FFF87FFFFFFFFF80007FFFFFE07FFFFF6F
:1025A000FFFFC3FCFFFFFFF8FFFFFFFFFFC3FCFFC0
:1025B000FFFFF8FFFFFFFFFF87FDFFFFFFF1FFFFBA
:1025C000FFFFFF87FFFFFFFFF1FFFFFFFFFF0FE7A9
:1025D000F30FFC23FC3FFFFFFF0FEF8007F003F03A
:1025E0001E007FFE1FCF8187C787C70C007FFE00BC
:1025F0001FC7C78FC79F0F0CFFFE001F878F1F8F3E
:102600001F0F1FFFFC3F9F8F8F1F8E001E3FFFFC81
:102610007F3F0F1E3F1E3FFE3FFFF87FFF1F1C3F07
:102620001C7FFC7FFFF8FFFF1E1C7E1C7FFC7FFFD2
:10263000F0FFCE3E3C7E3C7FB8FFFFF0FF9E3C3873
:102640007C387E78FFFFE1FF3C7C787C783CF1FFB2
:10265000FFE1F8387878101801F1FFFF00006020E2
:102660003C007C07807FFFFFFFFFFFFE1FFE1FFF78
:10267000FFFF1FFFFFFFFFFFFF600000000001FFE3
:10268000400000000000FF8000000000007F83CFBA
:1026900000000C303F87FF80000C301F86798000DF
:1026A0000C000F8C30C7838C30E78C30CFC7CC3117
:1026B000F38C30DCECEC33B98C30D86C6C33198C87
:1026C00030D06C0C33198C30D86C0C33198C30DC56
:1026D0006C0E3B198C30CF7C079F198C30C77C0364
:1026E0008F1940000000000002600000000000069A
:1026F0001FFFFFFFFFFFF82020506C616E6E6572B8
:1027000042756666657242797465733A20002046A8
:10271000726565204D656D6F72793A2000436F6D6B
:1027200070696C65643A204A616E2031392032301C
:1027300032310A00207C20417574686F723A20287B
:102740007468697369736B65697468622C20456E7F
:102750006465722D33290A00323032302D30362D27
:10276000323000204C61737420557064617465646C
:102770003A2000312E312E392E310A004D61726C13
:10278000696E0020536F66747761726520526573BD
:1027900065740A00205761746368646F672052652E
:1027A0007365740A002042726F776E206F75742013
:1027B00052657365740A002045787465726E616CA9
:1027C0002052657365740A00506F77657255700A00
:1027D0000073746172740A006175746F25692E67E5
:1027E000006572726F722077726974696E67207407
:1027F0006F2066696C650A00456E6473746F707350
:1028000020256320256320256320256300205A3A74
:102810000020593A0020583A00656E6473746F7056
:1028200073206869743A2000446F6E652073617686
:10283000696E672066696C652E0A004D3239004D5D
:102840003234004D323320257300556E6B6E6F7736
:102850006E20636F6D6D616E643A20220050726F5E
:1028600062696E67206661696C65640A0050726F08
:1028700062696E67206661696C656400205A3A205F
:102880000020593A200042656420583A2000534401
:102890002063617264206F6B0A006F70656E526F07
:1028A0006F74206661696C65640A00766F6C756D83
:1028B000652E696E6974206661696C65640A0053EF
:1028C0004420696E6974206661696C0A00486F6D06
:1028D0006520257325732573206669727374002043
:1028E00066697273740A005A0059005800486F6D87
:1028F00065200057726974696E6720746F2066697D
:102900006C653A20006F70656E206661696C656465
:102910002C2046696C653A20006F70656E206661F8
:10292000696C65642C2046696C653A200046696CC8
:10293000652073656C65637465640A002053697A69
:10294000653A200046696C65206F70656E65643A73
:1029500020002066696C653A2000646F696E67002C
:102960006672657368004E6F772000454E442053B1
:102970005542524F5554494E450A002220706F73FC
:10298000002220706172656E743A220053554252E3
:102990004F5554494E452043414C4C207461726759
:1029A00065743A22004B494C4C45442E2000747209
:1029B00079696E6720746F2063616C6C2073756237
:1029C0002D67636F64652066696C65732077697431
:1029D0006820746F6F206D616E79206C6576656C10
:1029E000732E204D4158206C6576656C2069733AD2
:1029F000004572726F723A006F70656E2066616991
:102A00006C65642C2046696C653A200043616E6EEB
:102A10006F74206F70656E20737562646972200038
:102A20006563686F3A0000060900FE070192032102
:102A3000207FFF07FF07FF000000060000010707D7
:102A4000060200808080808000800302020601056B
:102A5000A0A00507070600005050F850F850500598
:102A600007070600002078A07028F0200507070659
:102A70000000C0C810204098180507070600006035
:102A800090A040A89068020303060104C0408003A0
:102A900007070601002040808080402003070706CA
:102AA000010080402020204080050505060001200F
:102AB000A870A8200505050600012020F8202002A6
:102AC00003030602FFC04080050101060003F8026F
:102AD0000202060200C0C00505050600010810201C
:102AE0004080050707060000708888888888700382
:102AF000070706010040C040404040E005070706C8
:102B00000000708808708080F8050707060000F84C
:102B10001020100808F0050707060000103050903C
:102B2000F81010050707060000F880F00808887004
:102B3000050707060000708080F088887005070789
:102B4000060000F8081020202020050707060000D6
:102B5000708888708888700507070600007088886C
:102B600078080870020505060200C0C000C0C00257
:102B700006060602FFC0C000C0408004070706002A
:102B80000010204080402010050303060002F800DA
:102B9000F804070706010080402010204080050748
:102BA00007060000708808102000200507070600AF
:102BB0000070880868A8A8700507070600007088DC
:102BC00088F8888888050707060000F08888F0885C
:102BD00088F00507070600007088808080887005EF
:102BE0000707060000F08888888888F00507070630
:102BF0000000F88080F08080F8050707060000F8E4
:102C00008080F0808080050707060000708880B80B
:102C1000888870050707060000888888F8888888F3
:102C200001070706020080808080808080050707FA
:102C3000060000381010101090600507070600000D
:102C40008890A0C0A09088050707060000808080BB
:102C5000808080F805070706000088D8A888888843
:102C6000880507070600008888C8A898888805078F
:102C700007060000708888888888700507070600A6
:102C800000F08888F08080800507070600007088C3
:102C90008888A89068050707060000F08888F0A0DB
:102CA0009088050707060000788080700808F00506
:102CB0000707060000F8202020202020050707062F
:102CC00000008888888888887005070706000088C3
:102CD000888888885020050707060000888888882B
:102CE00088A850050707060000888850205088886B
:102CF0000507070600008888885020202005070760
:102D0000060000F80810204080F8030707060100BD
:102D1000E08080808080E00505050600018040207D
:102D20001008030707060100E02020202020E0050E
:102D30000303060004205088050101060000F80284
:102D400002020602058040050505060000700878AD
:102D500088780507070600008080B0C88888F005DD
:102D600005050600007080808870050707060000D2
:102D7000080868988888780505050600007088F8B6
:102D800080700507070600003048E04040404005DD
:102D900006060600FF708888780870050707060099
:102DA000008080B0C888888801070706020080007C
:102DB00080808080800308080601FF2000202020FA
:102DC00020A040040707060000808090A0C0A090CB
:102DD000030707060100C04040404040E0050505EC
:102DE000060000D0A8A8A8A8050505060000B0C8E0
:102DF00088888805050506000070888888700506A3
:102E0000060600FFF08888F080800506060600FFB1
:102E1000788888780808050505060000B0C8808015
:102E20008005050506000070807008F0040707069D
:102E300000004040E04040403005050506000088A5
:102E40008888986805050506000088888850200550
:102E500005050600008888A8A8500505050600009D
:102E600088502050880506060600FF888888780864
:102E700070050505060000F8102040F80307070656
:102E800001002040408040402001070706020080EA
:102E900080808080808003070706010080404020FA
:102EA0004040800502020600026890000000060013
:102EB0000000060900FE000000000001090008FEF5
:102EC000000005080806000040F0C88888987810BF
:102ED000050808060000C0F88888888888F8050575
:102EE000050600012030F830200508080600002003
:102EF00070F820202020E00509090600FF2070A8B6
:102F0000A8B8888870200509090600FFE080C0B0D5
:102F1000A8283028280509090600FFF8A88888880D
:102F20008888A8F8050A0A0600FE205050505088EC
:102F3000A8A8887003030306000340A040004BE7E5
:102F400038E511241FBECFEFD0E4DEBFCDBF12E0C5
:102F5000A0E0B1E0E6EFF2EF01E00BBF02C00790A6
:102F60000D92A837B107D9F723E1A8E7B2E001C075
:102F70001D92A93CB207E1F717E1C0EAD7E104C00E
:102F80002197FE010E94DFF8CF39D107C9F70E94CF
:102F90000DE80C946EF90C94000090916F00292FAD
:102FA000227091FF05C090916F009D7F90936F00FC
:102FB00034E0839FC0011124FC01E952F64F4081A7
:102FC0005181628173818553964FFC014083518307
:102FD0006283738381E08093CA09222329F0809160
:102FE0006F00826080936F000895BC012091C80932
:102FF0003091C9094091C8095091C9092417350772
:1030000031F481E02617370709F080E008959A012E
:10301000F1CF4F925F926F927F928F929F92AF9279
:10302000BF92EF92FF920F931F93CF93DF93C0E96C
:10303000D4E080EAE82E84E0F82E00E814E0412C89
:10304000512C320143946991799189919991F701B9
:1030500081909190A190B1907F010E9446F1A501CD
:1030600094010E94A7F10E940CF7F80161937193FB
:10307000819391938F01461657066806790610F4DE
:103080002B013C01F4E0C03ADF07E9F66FEF7FEF78
:10309000CB01A30192010E9435F520937C0430936B
:1030A0007D0440937E0450937F04DF91CF911F9164
:1030B0000F91FF90EF90BF90AF909F908F907F9077
:1030C0006F905F904F900895CF93DF9390916F0032
:1030D000292F227091FF05C090916F009D7F9093E2
:1030E0006F0094E0899FA0011124FA01E952F64F84
:1030F0006081718182819381222329F020916F0068
:10310000226020936F00EA01C45BD54F0E9448F112
:10311000288139814A815B810E94A7F1DF91CF919B
:103120000895CF92DF92EF92FF928091890A8823CF
:1031300009F457C0C090850AD090860AE090870AAB
:10314000F090880A20E030E0A901C701B6010E9492
:1031500041F1882309F445C020E030E040E05FE31E
:10316000C701B6010E94A7F19B01AC010E94A7F123
:103170002BED3FE049E450E40E94A7F19B01AC0134
:1031800060E070E080E89FE30E9493F66B017C01B1
:10319000C0925C0AD0925D0AE0925E0AF0925F0AE9
:1031A00060912E0170912F01072E000C880B990B56
:1031B0000E9448F12AE037ED43E25CE30E94A7F168
:1031C000A70196010E94A7F160932A0170932B0139
:1031D00080932C0190932D01FF90EF90DF90CF9082
:1031E0000895C12CD12C80E8E82E8FE3F82ED0CFA3
:1031F00080916F00982F927081FF05C080916F00C1
:103200008D7F80936F0010928B0A10928C0A10921F
:103210008D0A10928E0A992329F080916F008260A6
:1032200080936F0008950F931F938091090F9091E1
:103230000A0F891B8F7009F449C09091060F9923DA
:1032400061F0833040F48FEF890F29F08093060FEF
:1032500090E080E038C01092060F80910A0F2DE4B4
:10326000829FC00111248F549B4FFC01208120FDBF
:10327000EFCF40918B0A50918C0A60918D0A70912A
:103280008E0AE75BFF4F0081118122813381401B51
:10329000510B620B730B40938B0A50938C0A609313
:1032A0008D0A70938E0A20910A0F2F5F2F70209342
:1032B000070F30910A0F2091080F321304C020919C
:1032C000070F2093080F1F910F9108950E94F8187F
:1032D000BFCFCF93DF938091990A811105C0809170
:1032E0009A0A882309F459C080913D0432994FC04D
:1032F0008E7F80933D0480913D0433994AC08D7F39
:1033000080933D0480913D04349945C08B7F809328
:103310003D04C091BB09C0FF10C08091810980FFAE
:103320000CC080913D0480FF08C08091AC0A816090
:103330008093AC0A80E00E94CD17C1FF10C080913D
:10334000810981FF0CC080913D0481FF08C08091FC
:10335000AC0A82608093AC0A81E00E94CD17C2FF64
:103360001CC08091810982FF18C080919A0A88232D
:10337000A1F080913D0482FF10C08091AC0A84606E
:103380008093AC0A82E0DF91CF910C94CD178160DD
:10339000B0CF8260B5CF8460BACFDF91CF9108956E
:1033A000CF92DF92EF92FF92CF93DF93EC01C09028
:1033B0006C0AD0906D0AE0906E0AF0906F0AA70137
:1033C0009601688179818A819B810E9441F187FF02
:1033D00004C0C882D982EA82FB82C090700AD09071
:1033E000710AE090720AF090730AA70196016C814D
:1033F0007D818E819F810E9441F187FF04C0CC8234
:10340000DD82EE82FF82C0903201D0903301E090E5
:103410003401F0903501A7019601688179818A8194
:103420009B810E94F9F7181624F4C882D982EA8297
:10343000FB82C0903601D0903701E0903801F090C7
:103440003901A70196016C817D818E819F810E9447
:10345000F9F7181624F4CC82DD82EE82FF82C09048
:103460003A01D0903B01E0903C01F0903D01A70172
:103470009601688579858A859B850E94F9F71816DB
:1034800024F4C886D986EA86FB86DF91CF91FF9027
:10349000EF90DF90CF9008955E9A8091380C8E7FE8
:1034A0008093380C5E9A8091380C8D7F8093380C15
:1034B000159A8091380C8B7F8093380C5E9A089512
:1034C000CF93DF9380E00E946418C0ECD3E0688360
:1034D00079838A839B8381E00E9464186C837D8357
:1034E0008E839F8382E00E946418688779878A8729
:1034F0009B87DF91CF910895CF92DF92EF92FF9259
:103500006091150470911604072E000C880B990B1E
:103510000E9448F16B017C012DEB37E346E855EB47
:103520000E94F9F787FD0BC02DEB37E346E855E322
:10353000C701B6010E9441F118160CF043C0A70163
:10354000960160E070E080E89FE30E9493F660934C
:10355000B8037093B9038093BA039093BB0360914F
:10356000170470911804072E000C880B990B0E9409
:1035700048F16B017C012DEB37E346E855EB0E94E7
:10358000F9F787FD0AC02DEB37E346E855E3C7019D
:10359000B6010E9441F11816CCF4A701960160E033
:1035A00070E080E89FE30E9493F66093BC03709301
:1035B000BD038093BE039093BF03FF90EF90DF9015
:1035C000CF90089560E070E0CB01C1CF60E070E083
:1035D000CB01EBCF9091E9029817C9F08093E902F3
:1035E000882369F08091310C9091320C9093E8021D
:1035F0008093E7021092320C1092310C0895809162
:10360000E7029091E8029093320C8093310C089578
:103610008091E3029091E402A091E502B091E6026C
:103620008093620190936301A0936401B09365015C
:103630008091E1029091E2029093310180933001F8
:1036400008958091620190916301A0916401B0910D
:1036500065018093E3029093E402A093E502B093A6
:10366000E60280913001909131019093E2028093C3
:10367000E10284E690E09093310180933001089557
:103680000F931F93CF93DF9394E0899FE001112460
:103690008E01075C134FFE01E556F54FDE01A25186
:1036A000BC4F2D913D914D915C91608171818281E2
:1036B00093810E9499F5F8016083718382839383DB
:1036C000FE01EB54FD4F85919591A591B491FE01BA
:1036D000E459F54F80839183A283B383FE01EF53B6
:1036E000FD4F85919591A591B491CE5CDE4F888375
:1036F0009983AA83BB83DF91CF911F910F91089586
:103700009091AB0AE92FF0E0E955F54F80839F5F78
:10371000943040F49093AB0A80912E0C8F5F80938D
:103720002E0C08951092AB0AF7CF2FEB280F2A31F9
:1037300008F042C0E22FF0E08091090390910A0363
:10374000A0910B03B0910C0304C0B695A795979573
:1037500087952A95D2F780FD02C081700895E151C6
:10376000FD4FE081EE2329F18091360C9091370CCA
:10377000E80FF92FF11D808190ED980F9A3030F00D
:103780008E3251F4818180538A3098F4F09379021B
:10379000E093780281E008958D3211F08B3249F484
:1037A000818190ED980F9A3088F38E3211F48281E6
:1037B000EACFF0E0E0E0EACF80E008950E94951BB8
:1037C000882341F081E02091780230917902232B07
:1037D00009F480E00895089590E080E008958F92C4
:1037E0009F92AF92BF92CF92DF92EF92FF92CF93D0
:1037F000DF93EC018090620C9090630CA090640CBD
:10380000B090650C20E030E0A901C501B4010E9430
:1038100041F1882309F454C0C880D980EA80FB8034
:10382000A7019601C501B4010E9441F118160CF0E0
:103830004CC02091590C30915A0C40915B0C509126
:103840005C0CC701B6010E9441F1882331F1C0929E
:10385000590CD0925A0CE0925B0CF0925C0C2091C7
:103860005D0C30915E0C40915F0C5091600C688152
:1038700079818A819B810E94A7F19B01AC0160E064
:1038800070E080E89FE30E9498F5609300017093D8
:1038900001018093020190930301609100017091F6
:1038A00001018091020190910301DF91CF91FF907E
:1038B000EF90DF90CF90BF90AF909F908F90089542
:1038C00060E070E080E89FE3F0CF60E070E0CB0163
:1038D000ECCF80E1E9E4FCE0AAEFB3E001900D92C7
:1038E0008A95E1F7089580919203909193032FEFC9
:1038F0003FEF981751F0E92FF0E0EE5EFC4F20818A
:1039000030E09F5F9F7790939303C9010895DF9202
:10391000EF92FF920F931F93CF93DF93EC01D62E7C
:103920001CAD0BAD7C0184E0E80EF11CE98DFA8D35
:10393000C7010995412F480F2D2D602FC7010E9407
:1039400071B59BAD890F8BAF81E090E0DF91CF9196
:103950001F910F91FF90EF90DF9008950F931F93A9
:10396000CF93DF93EC010E949FB20E811F812885C7
:103970003985011511052105310579F52C8522239D
:1039800039F1EA8521502C8721E02E0F2A873D85C9
:10399000231301C01A86F0E03196EE0FFF1FEE0FE1
:1039A000FF1FEC0FFD1F02851385248535850A83D3
:1039B0001B832C833D83600F711F811D911D6E83BE
:1039C0007F83888799878C819D81892B09F0149A40
:1039D000DF91CF911F910F910895601B710B820BA6
:1039E000930B97FDF5CF14981E821F8218861986B7
:1039F000EFCF4F925F926F927F928F929F92AF9292
:103A0000BF92CF92DF92EF92FF92CF93DF93CDB729
:103A1000DEB76A970FB6F894DEBF0FBECDBF9A8FA0
:103A2000898F5B014A01DC01D7966D917D918D9163
:103A30009C91DA970E9446F16B017C01F50120818F
:103A40003181428153810E94A7F10E9477F60E9442
:103A50000CF73B015C01D4012D913D914D915C919E
:103A6000C701B6010E94A7F10E9477F60E940CF7E9
:103A70006D827E82AF82B8862D813E814F815885CE
:103A8000283731054105510540F428E730E040E092
:103A900050E02D833E834F83588769837A838B83DD
:103AA0009C8389819A81AB81BC8188379105A1056E
:103AB000B10540F428E730E040E050E029833A8344
:103AC0004B835C83E98DFA8DED5BFF4F80819181A3
:103AD000A281B38189879A87AB87BC87BC01CD015E
:103AE0000E9448F12B013C016D817E818F81988578
:103AF0000E9446F1698B7A8B8B8B9C8B20E030E0A7
:103B0000A901C301B2010E9441F1882309F43BC11C
:103B1000A7019601C701B6010E94A7F14B015C0104
:103B200029893A894B895C89CA01B9010E94A7F1A8
:103B30009B01AC01C501B4010E9498F54B015C01E9
:103B4000A3019201C301B2010E9499F59B01AC014E
:103B5000C501B4010E9493F60E9477F60E940CF70B
:103B60006D877E878F87988B69857A858B859C8505
:103B700090958095709561957F4F8F4F9F4F0E94D4
:103B800048F14B015C0169817A818B819C810E94A3
:103B900046F169877A878B879C8720E030E0A9010E
:103BA000C501B4010E9441F1882309F4F0C02985C0
:103BB0003A854B855C85CA01B9010E94A7F16D8BDE
:103BC0007E8B8F8B988FA7019601C701B6010E944B
:103BD000A7F19B01AC016D897E898F89988D0E9428
:103BE00098F56B017C01A5019401C501B4010E9407
:103BF00099F59B01AC01C701B6010E9493F60E94A2
:103C00003BF7A98DBA8D95968D909D90AD90BC9007
:103C10009897750164012D853E854F855889C21A94
:103C2000D30AE40AF50A0E940CF7C61AD70AE80A72
:103C3000F90AF7FE6EC020E030E0A901C301B2012D
:103C40000E9441F1882309F4A6C0C501B4010E9475
:103C500046F16B017C01A3019201C301B2010E94F4
:103C600099F59B01AC01C701B6010E94A7F16B0158
:103C70007C0129893A894B895C89CA01B9010E9472
:103C8000A7F19B01AC01C701B6010E9498F56B0139
:103C90007C0129853A854B855C85CA01B9010E9462
:103CA000A7F19B01AC01C701B6010E9499F56B0118
:103CB0007C0120E030E040E850E4C301B2010E9402
:103CC000A7F19B01AC01C701B6010E9493F60E94C7
:103CD00077F66B017C0120E030E0A9010E94F9F742
:103CE00018161CF0C12CD12C7601C701B6010E9418
:103CF0000CF76D877E878F87988B86169706A806A8
:103D0000B90620F48D869E86AF86B88AC12CD12C48
:103D100076018D859E85AF85B889E98DFA8D82A75C
:103D200093A7A4A7B5A7C80ED91EEA1EFB1EDF01E4
:103D3000C6A6D7A6E0AAF1AA2D813E814F8158855B
:103D400023AF34AF45AF56AFDF9629813A814B811F
:103D50005C812D933D934D935C9313976A960FB6B8
:103D6000F894DEBF0FBECDBFDF91CF91FF90EF90F3
:103D7000DF90CF90BF90AF909F908F907F906F908B
:103D80005F904F90089560E070E0CB01E5CE60E079
:103D900070E0CB0134CF60E070E0CB0198CF4F9260
:103DA0005F926F927F928F929F92AF92BF92CF92CB
:103DB000DF92EF92FF920F931F93CF93DF93EC016B
:103DC00060910B0470910C04072E000C880B990B6A
:103DD0000E9448F19B01AC01688179818A819B81B5
:103DE0000E9498F56B017C0160910D0470910E04A6
:103DF000072E000C880B990B0E9448F19B01AC0127
:103E00006C817D818E819F810E9498F54B015C01C0
:103E1000A701960160910A0170910B0180910C013C
:103E200090910D010E9441F1882309F459C0C0927C
:103E30000A01D0920B01E0920C01F0920D01209149
:103E4000B8033091B9034091BA035091BB03C70145
:103E5000B6010E94A7F12B013C010E943BF76B01C8
:103E60007C0120E030E0A9010E9441F187FD79C08A
:103E700020E030E040E050E4C701B6010E94F9F7CD
:103E800018162CF4C12CD12CE12CC0E4FC2EA70177
:103E90009601C301B2010E9498F52B013C0120E07C
:103EA00030E0A9010E9441F187FD5FC04092B40358
:103EB0005092B5036092B6037092B703C701B60182
:103EC0000E9405F76093B303062E000C770B6F5F1B
:103ED0007F4F6230710514F062E070E06093B203CE
:103EE00010910501D091B303A501940160910601E1
:103EF0007091070180910801909109010E9441F1A0
:103F000081113CC01D1393C02091940330919503FF
:103F100040919603509197036091B4037091B5035B
:103F20008091B6039091B7030E94A7F12091980366
:103F30003091990340919A0350919B030E9499F507
:103F4000DF91CF911F910F91FF90EF90DF90CF9075
:103F5000BF90AF909F908F907F906F905F904F90A9
:103F60000895C12CD12C760192CF1092B4031092F7
:103F7000B5031092B6031092B703A0CF809206014A
:103F800090920701A0920801B09209012091BC0310
:103F90003091BD034091BE035091BF03C501B401F0
:103FA0000E94A7F14B015C010E943BF76B017C0171
:103FB00020E030E0A9010E9441F187FD01C120E02D
:103FC00030E040E050E4C701B6010E94F9F718164E
:103FD0002CF4C12CD12CE12CB0E4FB2EA7019601CE
:103FE000C501B4010E9498F54B015C0120E030E06E
:103FF000A9010E9441F187FDE7C08092AE03909233
:10400000AF03A092B003B092B103C701B6010E9402
:1040100005F76093AD03062E000C770B6F5F7F4FA3
:104020006230710514F062E070E06093AC03C091FF
:10403000AD031D1305C0809104018C1709F475C0F0
:10404000D0930501C09304018D2FDD0F990B0C2E29
:10405000000CDD0BAC01440F551F840F951FFC01B4
:10406000EC0FFD1FEE0FFF1FEE0FFF1FE75EFB4F74
:1040700020813181428153812093A8033093A90389
:104080004093AA035093AB03E091AC030E2FEE0FC5
:10409000110BDC01A00FB11FAA0FBB1FAA0FBB1F82
:1040A000A75EBB4F6D917D918D919C910E9498F57B
:1040B0006093A4037093A5038093A6039093A70332
:1040C0008091B203282F880F330BC901880F991FE5
:1040D000820F931FC80FD91FCC0FDD1FCC0FDD1F20
:1040E000C75EDB4F288139814A815B812093A00321
:1040F0003093A1034093A2035093A303FC01E00F6C
:10410000F11FEE0FFF1FEE0FFF1FE75EFB4F6081F9
:104110007181828193810E9498F560939C037093D2
:104120009D0380939E0390939F038090AE03909095
:10413000AF03A090B003B090B1032091A4033091DD
:10414000A5034091A6035091A703C501B4010E94A5
:10415000A7F12091A8033091A9034091AA0350919F
:10416000AB030E9499F56B017C01C0929803D09239
:104170009903E0929A03F0929B0320919C03309163
:104180009D0340919E0350919F03C501B4010E947D
:10419000A7F12091A0033091A1034091A203509177
:1041A000A3030E9499F5A70196010E9498F56093D8
:1041B0009403709395038093960390939703A4CEF2
:1041C000C12CD12C76010ACF1092AE031092AF030E
:1041D0001092B0031092B10318CFCF92DF92EF92FA
:1041E000FF92CF93DF932091610C222329F1EC0100
:1041F00008960E94EF1B6B017C0120E030E0A901D2
:104200000E9441F120E030E0A901882359F0CE015D
:104210000E94CF1E9B01AC01C701B6010E94A7F10D
:104220009B01AC01688579858A859B850E9498F5FC
:10423000688779878A879B87DF91CF91FF90EF907E
:10424000DF90CF9008958F929F92AF92BF92CF92BE
:10425000DF92EF92FF920F93CF93DF931F92CDB730
:10426000DEB76C017B01490180910F045B01A40E54
:10427000B51E8823A1F0F60180819181480F591F56
:10428000518340830F90DF91CF910F91FF90EF907A
:10429000DF90CF90BF90AF909F908F900895F601E0
:1042A000808191810E940FF5898390911004992358
:1042B00011F0002311F0F7018083BE016F5F7F4F83
:1042C000C4010E94D8B0F60180819181019691834A
:1042D0008083FFEFEF1AFF0AEA14FB0401F7D2CF45
:1042E0008091780290917902009731F04AE050E095
:1042F00070E060E00C9454EE60E070E0CB01089553
:104300000E94702197FD0CC00E9470216F3F7105C3
:104310008105910509F034F40E947021862F0895DB
:1043200080E008958FEF089580917802909179024E
:10433000892B41F00E94802191E0811101C090E021
:10434000892F089591E0FCCF8091780290917902B5
:10435000009731F04AE050E070E060E00C9482EFAA
:1043600060E070E0CB0108950F931F93CF9380918D
:104370007802909179020097E9F0FC018F01C191D8
:104380002C2F2F7D81F0C53411F0C536B9F7F80117
:10439000108270E060E00E94F6ECF801C083CF91DB
:1043A0001F910F91089570E060E0CF911F910F91E0
:1043B0000C94F6EC60E070E0CB01F1CF86E40E9453
:1043C000951B8093840A882351F00E94B421609346
:1043D000410170934201809343019093440183E52E
:1043E0000E94951B882351F00E94B42160934901DB
:1043F00070934A0180934B0190934C0182E40E9498
:10440000951B882351F00E94B4216093450170935D
:10441000460180934701909348010895CF92DF921F
:10442000EF92FF920F931F93CF93DF933FEEC32E34
:1044300031E0D32E4AEFE42E43E0F42E09E41CE0F1
:10444000D0E0C0E0F60181916F010E94951B8823A6
:1044500009F458C00E94B421FE01E651FD4F2081AD
:10446000211104C02091EE022223E1F1F801208104
:104470003181428153810E9499F5F70160837183F4
:10448000828393832196F4E0EF0EF11C0C5F1F4FA3
:10449000C430D105B9F686E40E94DE1B8823C9F03A
:1044A0000E94B42120E030E0A9010E94F9F718161B
:1044B00084F40E94B42120E030E040E752E40E94FE
:1044C00093F660936201709363018093640190930B
:1044D0006501DF91CF911F910F91FF90EF90DF90D9
:1044E000CF900895C33049F2FE01EE0FFF1FEE0F8B
:1044F000FF1FE75CF34F20813181428153810E948D
:1045000098F5BBCFF80180819181A281B381F70139
:1045100080839183A283B383B5CF119800000000FC
:1045200087FD52C0419800000000119A0000000071
:1045300011980000000086FD53C041980000000063
:10454000119A0000000011980000000085FD46C08F
:10455000419800000000119A00000000119800002E
:10456000000084FD39C0419800000000119A00004D
:10457000000011980000000083FD2CC0419800004D
:104580000000119A0000000011980000000082FD58
:104590001FC0419800000000119A0000000011980F
:1045A0000000000081FD12C0419800000000119A37
:1045B0000000000011980000000041980000000079
:1045C000119A000000000895419AADCF419AEDCFB5
:1045D000419AE0CF419AD3CF419AC6CF419AB9CF01
:1045E000419AACCF8F929F92AF92BF92CF92DF92BF
:1045F000EF92FF920F931F93CF93DF93B0E4A0E06D
:104600006A2F70E0AB014B0F511D559547954A1726
:1046100011F0B41319C0EBEBFAE165917491072E18
:10462000000C880B990B0E9448F1DF91CF911F91EC
:104630000F91FF90EF90DF90CF90BF90AF909F9041
:104640008F900895B42FDECF9A0121503109220FA7
:10465000331F220F331FF901E354F64EE590F49017
:10466000F901EF53F64EC591D4918E159F0554F381
:10467000A42FC817D9070CF4C3CFF901E154F64EA3
:1046800005911491F901ED53F64EC590D490BC01FB
:104690006E197F09072E000C880B990B0E9448F1B8
:1046A0004B015C01B601601B710B072E000C880BDF
:1046B000990B0E9448F19B01AC01C501B4010E9415
:1046C000A7F14B015C01BE016E197F09072E000C9A
:1046D000880B990B0E9448F19B01AC01C501B40104
:1046E0000E9493F66B017C01B801110F880B990BA6
:1046F0000E9448F19B01AC01C701B6010E9499F5E7
:1047000094CF0F930FB70F9300916E000B7F009320
:104710006E0078940F930BB70F930CB70F921F9204
:104720002F933F934F935F936F937F938F939F93B9
:10473000AF93BF93EF93FF9311240E94C13EFF916B
:10474000EF91BF91AF919F918F917F916F915F9109
:104750004F913F912F911F900F900CBF0F910BBF66
:104760000F910460F89400936E000F910FBF0F91AA
:104770001895CF92DF92EF92FF92C0903F0AD090AF
:10478000400AE090410AF090420A60912F0C70912B
:10479000300C66507109072E000C880B990B0E9493
:1047A00048F1A70196010E94F9F718160CF520E0D0
:1047B00030E040E050E4C701B6010E9499F50E9444
:1047C0000CF77093140A6093130A0E949FB2605A08
:1047D00075418F4F9F4F60930F0A7093100A80931B
:1047E000110A9093120AFF90EF90DF90CF900895F6
:1047F00010920F0A1092100A1092110A1092120AC7
:10480000F2CF9091910A9817A9F18093910A882389
:10481000C9F00E949FB260931D0A70931E0A809394
:104820001F0A9093200A1092440A0E949FB260933C
:10483000210A7093220A8093230A9093240A1092EB
:10484000430A089510921D0A10921E0A10921F0A20
:104850001092200A1092440A0E94ABB21092210AD0
:104860001092220A1092230A1092240A1092430AEC
:104870000C94B92308958F929F92AF92BF92CF92DA
:10488000DF92EF92FF920F931F93CF93DF93B0E4E9
:10489000A0E06A2F70E0AB014B0F511D5595479575
:1048A000A41711F0B41319C0EBEBFAE16591749100
:1048B000072E000C880B990B0E9448F1DF91CF91D5
:1048C0001F910F91FF90EF90DF90CF90BF90AF902E
:1048D0009F908F900895B42FDECF9A012150310917
:1048E000220F331F220F331FF901E354F64EE590D8
:1048F000F490F901EF53F64EC591D4918E159F05B2
:1049000054F3A42FC817D9070CF4C3CFF901E1540D
:10491000F64E05911491F901ED53F64EC590D490E1
:10492000BC016E197F09072E000C880B990B0E94A1
:1049300048F14B015C01B601601B710B072E000CA6
:10494000880B990B0E9448F19B01AC01C501B40191
:104950000E94A7F14B015C01BE016E197F09072E71
:10496000000C880B990B0E9448F19B01AC01C5011A
:10497000B4010E9493F66B017C01B801110F880B02
:10498000990B0E9448F19B01AC01C701B6010E943E
:1049900099F594CF8091270A9091280A0E94F222DB
:1049A0006093C40E7093C50E8093C60E9093C70E8D
:1049B0008091250A9091260A0E943B2460933F0A29
:1049C0007093400A8093410A9093420AA8951092EE
:1049D000290A08950F931F938091450A813019F594
:1049E0000E949FB20091EB091091EC092091ED0912
:1049F0003091EE09601B710B820B930B28EE33E0B4
:104A000040E050E00E9435F56091E7097091E809B7
:104A10008091E9099091EA09620F731F841F951F25
:104A20001F910F9108956091EF097091F0098091A5
:104A3000F1099091F209D6CF1092450A1092EB0934
:104A40001092EC091092ED091092EE091092EF0904
:104A50001092F0091092F1091092F2091092E709F0
:104A60001092E8091092E9091092EA0908958091DC
:104A7000450A8130F1F08230C9F40E94EA24609343
:104A8000E7097093E8098093E9099093EA0981E0C6
:104A90008093450A0E949FB26093EB097093EC09E2
:104AA0008093ED099093EE0981E008950E941C2502
:104AB000EECF80E008958091450A813079F482E05C
:104AC0008093450A0E949FB26093EF097093F009AA
:104AD0008093F1099093F20981E0089580E00895B0
:104AE0008091450A8150823070F41092450A0E94EC
:104AF0009FB26093EF097093F0098093F10990934E
:104B0000F20981E0089580E008951092840A90E00F
:104B100080E00E94BAB61092300C10922F0C0E94C6
:104B2000B92380E00E9401240E94702590E080E07B
:104B30000E94BAB610923C0A5D981092300C109206
:104B40002F0C10923D0A5C9808950F930FB70F93A6
:104B500000916E000F930B7F00936E0000916F0029
:104B60000D7F00936F000F930BB70F930CB70F924D
:104B70001F922F933F934F935F936F937F938F93E6
:104B80009F93AF93BF93EF93FF9311240E94152639
:104B9000FF91EF91BF91AF919F918F917F916F9115
:104BA0005F914F913F912F911F900F900CBF0F91EC
:104BB0000BBF0F910260F89400936F000F91009368
:104BC0006E000F910FBF0F9118958091810980FFA2
:104BD00020C0459A8FEF809315018091810981FF54
:104BE0001BC0479A8FEF809316018091810982FF45
:104BF00016C02A988FEF809317018091810983FF57
:104C000011C0289A8FEF8093180100000000000067
:104C10000895459881E0DFCF479881E0E4CF2A9A54
:104C200081E0E9CF289881E0EECF2F923F924F921A
:104C30005F926F927F928F929F92BF92CF92DF92FC
:104C4000EF92FF920F931F93CF93DF93F8948FEF20
:104C50009FEF90938900809388007AE0B72E312CE3
:104C6000212CE3E58E2EE9E19E2E78948091C409F3
:104C70009091C509A091C609B091C709892B8A2BCB
:104C80008B2B09F0CCC18091CA098823D1F0809187
:104C9000C8099091C9091092CA09892B91F0109204
:104CA000BB091092C9091092C8099091090F80910F
:104CB0000A0F981731F080910A0F8F5F8F708093E1
:104CC0000A0F8091C8099091C909892B09F4A7C1DD
:104CD0004091C0095091C1096091C2097091C30906
:104CE0008091BC099091BD09A091BE09B091BF0906
:104CF000C090AE09D12CF12CE12C841B950BA60B96
:104D0000B70BC816D906EA06FB0610F4D701C60190
:104D1000382F840F951FA61FB71F8093C00990934B
:104D2000C109A093C209B093C309809184009091F6
:104D300085004E9640919609509197096091980987
:104D400070919909C0908609D0908709E0908809F0
:104D5000F09089094C0D5D1D6E1D7F1D40939609D5
:104D600050939709609398097093990977FD1CC037
:104D70005F9AC090D709D090D809E090D909F090F7
:104D8000DA0920911501422F220F550B660B770B84
:104D90004C0D5D1D6E1D7F1D4093D7095093D809A2
:104DA0006093D9097093DA0940919A0950919B094F
:104DB00060919C0970919D09C0908A09D0908B09DF
:104DC000E0908C09F0908D094C0D5D1D6E1D7F1DCE
:104DD00040939A0950939B0960939C0970939D0995
:104DE00077FD1CC0469AC090DB09D090DC09E090AA
:104DF000DD09F090DE0920911601422F220F550B9C
:104E0000660B770B4C0D5D1D6E1D7F1D4093DB09FE
:104E10005093DC096093DD097093DE0940919E098F
:104E200050919F096091A0097091A109C0908E09CD
:104E3000D0908F09E0909009F09091094C0D5D1D84
:104E40006E1D7F1D40939E0950939F096093A0099A
:104E50007093A10977FD1CC02B9AC090DF09D090F8
:104E6000E009E090E109F090E20920911701422F5A
:104E7000220F550B660B770B4C0D5D1D6E1D7F1DB4
:104E80004093DF095093E0096093E1097093E209D0
:104E90004091A2095091A3096091A4097091A509BC
:104EA000C0909209D0909309E0909409F0909509F0
:104EB0004C0D5D1D6E1D7F1D4093A2095093A309EB
:104EC0006093A4097093A50977FD1CC0299AC0902E
:104ED000E309D090E409E090E509F090E60920911B
:104EE0001801422F220F550B660B770B4C0D5D1DE1
:104EF0006E1D7F1D4093E3095093E4096093E5091B
:104F00007093E60940918400509185004817590735
:104F1000C8F3409196095091970960919809709152
:104F2000990977FD15C0C0908209D0908309E0905F
:104F30008409F09085094C195D096E097F09409339
:104F400096095093970960939809709399095F980F
:104F500040919A0950919B0960919C0970919D091B
:104F600077FD15C0C0908209D0908309E090840934
:104F7000F09085094C195D096E097F0940939A09E3
:104F800050939B0960939C0970939D0946984091AA
:104F90009E0950919F096091A0097091A10977FD28
:104FA00015C0C0908209D0908309E0908409F090E8
:104FB00085094C195D096E097F0940939E0950933C
:104FC0009F096093A0097093A1092B984091A209B1
:104FD0005091A3096091A4097091A50977FD15C0AE
:104FE000C0908209D0908309E0908409F0908509EF
:104FF0004C195D096E097F094093A2095093A309DA
:105000006093A4097093A5092998315041F040910B
:1050100084005091850048175907C8F38ACE8091C3
:10502000C4099091C509A091C609B091C709892BFF
:105030008A2B8B2B09F025C4E091C809F091C9098E
:10504000309709F486C48091C0099091C109A0915C
:10505000C209B091C3094091BC095091BD0960914A
:10506000BE097091BF0984179507A607B70708F412
:105070006EC01092BB091092C9091092C809909194
:10508000090F80910A0F981709F463C480910A0FE1
:105090008F5F8F7080930A0F60EDC62E67E0D62E6B
:1050A000E12CF12C8091C8099091C909892B09F054
:1050B000E0C30E9413199093C9098093C809892BF2
:1050C00009F4D7C3C091C809D091C909888183FF69
:1050D00092C28D899E89AF89B88D8093D7099093AC
:1050E000D809A093D909B093DA09898D9A8DAB8D2F
:1050F000BC8D8093DB099093DC09A093DD09B0930C
:10510000DE098D8D9E8DAF8DB8A18093DF099093C0
:10511000E009A093E109B093E20989A19AA1ABA1AA
:10512000BCA18093E3099093E409A093E509B093AF
:10513000E6099091090F80910A0F981709F4B9CFE9
:1051400080910A0F8F5F8F7080930A0FB2CF4091CA
:10515000B7095091B8096091B9097091BA09481717
:1051600059076A077B0708F4D9C08091B309909169
:10517000B409A091B509B091B60942A953A964A98F
:1051800075A9CC27859FD12D969F9001A69F300DA4
:10519000A59F200D311D869FD00D211D3C1F959F81
:1051A000D00D211D3C1FA49FD00D211D3C1F949F9D
:1051B000D10D2C1F3C1FD6952C1F3C1F789F200D16
:1051C000311D799F300D112443AD54AD65AD76ADE1
:1051D000420F531F611D711D4093AF095093B009D9
:1051E0006093B1097093B209C7A8D0ACE1ACF2AC3E
:1051F000C416D506E606F70640F4C092AF09D09271
:10520000B009E092B109F092B2094090AF09509014
:10521000B0096090B1097090B20927E339E141E02B
:10522000F901C590D590E590F490C414D504E60436
:10523000F70450F47694679457944794440F2C5F86
:105240003F4F8216930661F74093AE0920E2421663
:1052500051046104710428F420E2422E512C612C87
:10526000712C40E2441A510861087108411478E039
:1052700057066104710408F42EC0F4E05F9E9001AB
:105280001124295C3A4EF901329645915491F42D3E
:10529000EE27F59FB001F49F610D7E1F06946E1FEF
:1052A0007E1F1124AB0170E060E0F901C590D4903D
:1052B000F12CE12CC41AD50AE60AF70A8C0D9D1DC3
:1052C000AE1DBF1D8093B3099093B409A093B50997
:1052D000B093B609E7CEB301A201769567955795CD
:1052E00047959A012C7F295C3E4EF901C590D490D8
:1052F000F901329645915491242D2770422E449EF7
:105300009001459E300D112403E0369527950A95AE
:10531000E1F7C21AD30AF12CE12CD0CF4091AA09AF
:105320005091AB096091AC097091AD0948175907CC
:105330006A077B0708F0CFC08091A6099091A70962
:10534000A091A809B091A90942A953A964A975A976
:105350002227859F312D969F6001A69FD00CA59F87
:10536000C00CD11C869F300DC11CD21E959F300DE4
:10537000C11CD21EA49F300DC11CD21E949F310DA2
:10538000C21ED21E3695C21ED21E789FC00CD11CE2
:10539000799FD00C1124F12CE12C4091AF09509150
:1053A000B0096091B1097091B209FF9640805180B7
:1053B00062807380C416D506E606F70658F44C19C9
:1053C0005D096E097F09441655066606770610F4D6
:1053D0002A013B0127E339E141E0F901C590D5906D
:1053E000E590F490C414D504E604F70450F47694E0
:1053F000679457944794440F2C5F3F4F821693064F
:1054000061F74093AE0940E244165104610471040F
:1054100028F4C0E24C2E512C612C712C70E2471AFA
:105420005108610871084114F8E05F0661047104D5
:1054300008F42EC044E0549E90011124295C3A4E99
:10544000F901329645915491F42DEE27F59FB00164
:10545000F49F610D7E1F06946E1F7E1F1124AB0109
:1054600070E060E0F901C590D490F12CE12CC41AF1
:10547000D50AE60AF70A8C0D9D1DAE1DBF1D80934F
:10548000A6099093A709A093A809B093A9090ACEE9
:10549000B301A20176956795579547959A012C7FA0
:1054A000295C3E4EF901C590D490F90132964591A0
:1054B0005491242D2770422E449E9001459E300D1C
:1054C0001124F3E036952795FA95E1F7C21AD30A2D
:1054D000F12CE12CD0CF80911A0190911B01A09169
:1054E0001C01B0911D01B7FF5BC0C7A8D0ACE1ACF7
:1054F000F2AC87E399E121E0FC014591559165917A
:1055000074914C155D056E057F0548F4F694E7949B
:10551000D794C794220F04968816990669F72093AA
:10552000AE0940E2C416D104E104F10428F460E2BB
:10553000C62ED12CE12CF12C70E2C71AD108E1085B
:10554000F108C11488E0D806E104F10408F431C080
:10555000A4E0DA9EC0011124895C9A4EFC013296C7
:1055600025913491BC2D6627B39FA001B29F410DB8
:10557000561F0694461F561F112470E060E0FC0180
:1055800085919491B0E0A0E0841B950BA60BB70B1E
:1055900080931A0190931B01A0931C01B0931D01ED
:1055A000C0901A01D0901B01E0901C01F0901D01E9
:1055B00079CDD701C601B695A795979587958C7F2C
:1055C000895C9E4EFC0125913491FC0132964591F7
:1055D0005491FC2DF770F49FC001F59F900D11249C
:1055E00053E0969587955A95E1F7281B390BC90129
:1055F000B0E0A0E0CDCF4D885E886F88788C81E0E8
:10560000411451046104710409F480E0C98CDA8CFE
:10561000EB8CFC8CC114D104E104F10409F082602C
:105620004D8D5E8D6F8D78A1411551056105710518
:1056300009F084608093BB091092A6091092A70913
:105640001092A8091092A9091092B3091092B409F6
:105650001092B5091092B6098DA19EA1AFA1B8A56F
:105660008093BC099093BD09A093BE09B093BF0974
:10567000002711279801081B190B2A0B3B0B0093DD
:10568000A2091093A3092093A4093093A5090093BC
:105690009E0910939F092093A0093093A1090093BC
:1056A0009A0910939B0920939C0930939D090093BC
:1056B0009609109397092093980930939909440CFF
:1056C000551C661C771C409286095092870960928F
:1056D000880970928909CC0CDD1CEE1CFF1CC0925D
:1056E0008A09D0928B09E0928C09F0928D09440FBF
:1056F000551F661F771F40938E0950938F09609343
:1057000090097093910949A15AA16BA17CA1440F02
:10571000551F661F771F409392095093930960931A
:10572000940970939509880F991FAA1FBB1F809336
:10573000820990938309A0938409B09385091092FC
:10574000C0091092C1091092C2091092C3098AA51A
:105750009BA5ACA5BDA58093B7099093B809A0936C
:10576000B909B093BA098EA59FA5A8A9B9A9809334
:10577000AA099093AB09A093AC09B093AD0929A5F0
:105780003EA980918109381309C040911901822FE7
:10579000022E000C990B4817190631F0309381093D
:1057A000209319010E94E5250E9469198FEF9FEF50
:1057B000DC0180931A0190931B01A0931C01B0930C
:1057C0001D014BAD5CAD6DAD7EAD4093AF09509307
:1057D000B0096093B1097093B20987E399E121E0C0
:1057E000FC01C590D590E590F490C416D506E60668
:1057F000F70648F47695679557954795220F0496D6
:105800008816990669F72093AE0940325105610563
:10581000710520F440E250E060E070E04052510930
:1058200061097109411598E059076105710508F48E
:105830006EC0A4E05A9FC0011124895C9A4EFC01FD
:10584000329625913491AA27439FF001429FE10DA2
:10585000FA1F0694EA1FFA1F1124AF0170E060E0FE
:10586000FC01C590D490F12CE12CC41AD50AE60AAB
:10587000F70AC092C409D092C509E092C609F09215
:10588000C7098091C4099091C509A091C609B0913A
:10589000C709AC01BD010097F1E0AF07B10520F0E9
:1058A0004FEF5FEF60E070E0841B950BA60BB70B2A
:1058B0008093C4099093C509A093C609B093C70902
:1058C000F89480918400909185004096BA94BB2012
:1058D00009F43DC0240E351E2816390608F4C5C942
:1058E00030928900209288007894DF91CF911F91A7
:1058F0000F91FF90EF90DF90CF90BF909F908F908F
:105900007F906F905F904F903F902F900895DB01B4
:10591000CA01B695A795979587958C7F895C9E4E11
:10592000FC01C590D490FC013296259134914770CA
:10593000429FC001439F900D112433E096958795B7
:105940003A95E1F7C81AD90AF12CE12C92CF1C0143
:10595000C7CF80EDC82E87E0D82EE12CF12CA9CB43
:10596000CF92DF92EF92FF920F931F93CF93DF932B
:105970008C01EB0170E060E00E9492B187FD8CC069
:10598000C03282E0D8070CF043C0D80112968C9147
:10599000129728E532E0281B310987FD3395220F45
:1059A000331F220F331F032E000C440B550B11968F
:1059B0008C9198E8C92ED12CC81AD10887FDD394B0
:1059C000CC0CDD1CCC0CDD1C0D2C000CEE08FF08F3
:1059D00060E070E0CB01D7FD0AC0BE01C53BD10538
:1059E00014F064EB70E0072E000C880B990B2C1957
:1059F0003D094E095F090E9425F524EB30E040E0A7
:105A000050E00E9457F5C20ED31EE41EF51EE601BB
:105A1000D801EC91EC3008F511962C91119788E89B
:105A200090E0821B910927FD9395880F991F880F9D
:105A3000991FC817D907FCF402974FB7F8942E2F77
:105A400030E0F901EE0FFF1FE20FF31FE15DF04FB1
:105A5000880F991F928381834FBF62E370E080E0DB
:105A600090E0DF91CF911F910F91FF90EF90DF9029
:105A7000CF900C9496B612962C9188E592E0821BFA
:105A8000910927FD9395880F991F880F991FC817B3
:105A9000D90794F6CE01D0CFDF91CF911F910F910E
:105AA000FF90EF90DF90CF9008951F920F920FB666
:105AB0000F9211240BB60F922F933F934F935F9346
:105AC0006F937F938F939F93AF93BF93EF93FF93C6
:105AD0008091B00487FF27C0109295001092940027
