:100000000C9437170C9461170C9461170C946117BA
:100010000C9461170C9461170C9461170C94611780
:100020000C9461170C9461170C9461170C94611770
:100030000C9461170C94E0240C9461170C946117D4
:100040000C9461170C94F9220C94C3B20C946117B0
:100050000C94759E0C9461170C9461170C946117A5
:100060000C9461170C9461170C9461170C94611730
:100070000C9461170C9461170C9461170C94611720
:100080000C94902C0C9461170C946117084AD73B80
:100090003BCE016E84BCBFFDC12F3D6C74319ABD57
:1000A00056833DDA3D00C77F11BED9E4BB4C3E917B
:1000B0006BAAAABE000000803F05A84CCDB2D44E6A
:1000C000B93836A9020C50B9918688083CA6AAAA6C
:1000D0002ABE000000803F004E414E494E4954590F
:1000E000494E46CDCCCC3D0AD7233C17B7D1387703
:1000F000CC2B329595E6241FB14F0A000020410019
:1001000000C84200401C4620BCBE4CCA1B0E5AAE62
:10011000C59D74434F4D4D554E49434154494F4E33
:100120000044525952554E004552524F52530049C5
:100130004E464F004543484F00656E7175657565C5
:10014000696E672022004B494C4C45442E200053D9
:10015000544F505045442E20005072696E746572A1
:100160002073746F707065642064756520746F20EF
:100170006572726F72732E204669782074686520EC
:100180006572726F7220616E6420757365204D39DF
:10019000393920746F20726573746172742E20284F
:1001A00054656D7065726174757265206973207233
:1001B000657365742E2053657420697420616674BC
:1001C00065722072657374617274696E67290A00C2
:1001D0004E6F20436865636B73756D207769746833
:1001E000206C696E65206E756D6265722C204C61A5
:1001F0007374204C696E653A20004E6F2043686529
:10020000636B73756D2077697468206C696E652007
:100210006E756D6265722C204C617374204C696E32
:10022000653A2000636865636B73756D206D697353
:100230006D617463682C204C617374204C696E6529
:100240003A20004C696E65204E756D6265722069BA
:1002500073206E6F74204C617374204C696E65203E
:100260004E756D6265722B312C204C617374204C7D
:10027000696E653A20004D313130004D3331005305
:10028000442072656164206572726F720A00446F67
:100290006E65207072696E74696E672066696C6540
:1002A0000A0020496E76616C696420657874727505
:1002B00064657220000000000000000000000000E3
:1002C0000000006B4300006B4300007A4342696CFE
:1002D000696E656172204C6576656C696E67204752
:1002E0007269643A0A0047322F4733206261642002
:1002F000706172616D65746572730A0020284452E2
:100300005952554E2900473239204175746F2042A9
:100310006564204C6576656C696E67003F20284CEB
:100320002C522C462C4229206F7574206F66206257
:100330006F756E64732E0A003F2856296572626FCE
:100340007365206C6576656C20697320696D706CCF
:1003500061757369626C652028302D34292E0A007E
:10036000426164205A2076616C75650A004E6F20E8
:1003700062696C696E65617220677269640A005017
:10038000726F7465637465642050696E0A0020574B
:100390003A004520436F6F6C696E672E2E2E004524
:1003A0002048656174696E672E2E2E0020573A0032
:1003B00042656420636F6F6C696E672E2E2E00425B
:1003C00065642068656174696E672E2E2E00205A60
:1003D0003A0020593A0020436F756E7420583A0055
:1003E00020453A00205A3A0020593A00583A003A3B
:1003F000004361703A00205A002059005800202024
:100400004D61783A2000205A0020590058002020E1
:100410004D696E3A20004F6E20004F666600536FA4
:10042000667420656E6473746F70733A2000236481
:100430006566696E652044454641554C545F4B6482
:10044000200023646566696E652044454641554C2D
:10045000545F4B69200023646566696E65204445DE
:100460004641554C545F4B70200050494420417523
:10047000746F74756E652066696E69736865642152
:100480002050757420746865206C617374204B7003
:100490002C204B6920616E64204B6420636F6E7367
:1004A00074616E74732066726F6D2062656C6F7715
:1004B00020696E746F20436F6E6669677572617430
:1004C000696F6E2E680A00504944204175746F743C
:1004D000756E65206661696C6564212074696D655F
:1004E0006F75740A00453120544845524D414C20E7
:1004F00052554E4157415900546865726D616C20E8
:1005000052756E6177617900453120486561746983
:100510006E67206661696C65640048656174696E28
:1005200067206661696C65640050494420417574B8
:100530006F74756E65206661696C65642120546511
:100540006D706572617475726520746F6F20686973
:1005500067680A00204B643A2000204B693A20006B
:10056000204B703A20000A20436C6173736963204A
:10057000504944200A002054753A2000204B753A17
:100580002000206D61783A2000206D696E3A2000CD
:1005900020643A200020626961733A200050494487
:1005A000204175746F74756E652073746172740A7E
:1005B00000504944204175746F74756E6520666102
:1005C000696C6564212054656D7065726174757223
:1005D0006520746F6F20686967680A00504944207D
:1005E0004175746F74756E65206661696C65642110
:1005F00020426164206578747275646572206E753E
:100600006D6265720A004F66660A00466164652085
:100610004865696768742000426564204C657665AA
:100620006C696E6720004661696C656420746F2098
:10063000656E61626C6520426564204C6576656C10
:10064000696E670A004F6666736574732061707027
:100650006C696564004572723A20546F6F20666160
:10066000722100546F6F206661722066726F6D2078
:100670007265666572656E636520706F696E740A77
:1006800000536C6565702E2E2E00486F6D652058E6
:10069000592066697273740A00486F6D6520585955
:1006A00020666972737400205A3A200020593A205B
:1006B0000042656420583A20004D65736820706FD1
:1006C000696E742063616E6E6F742062652072655E
:1006D000736F6C7665640A00436C69636B20746F9A
:1006E00020726573756D652E2E2E004E6F206D6F16
:1006F00076652E00456E642066696C65206C6973B2
:10070000740A00426567696E2066696C65206C69D1
:1007100073740A00286E6F2066696C652900437542
:100720007272656E742066696C653A2000534420CD
:100730007072696E74696E67206279746520004E0C
:100740006F74205344207072696E74696E670A007A
:1007500044656C6574696F6E206661696C65642CB4
:100760002046696C653A200046696C652064656CBA
:10077000657465643A002569730025696D202569F3
:1007800073002569682025696D2025697300256936
:1007900064202569682025696D2025697300256915
:1007A0007920256964202569682025696D202569DF
:1007B00073005072696E742074696D653A20006F21
:1007C00066660034012F01280121011301444542CE
:1007D00055473A004B494C4C45442E20004D313191
:1007E000332053006F6B00456E6465722D33204FCC
:1007F00066662E002C20002C2000544845524D41A6
:100800004C5F50524F54454354494F4E004155544C
:100810004F5245504F52545F53445F5354415455C7
:100820005300454D455247454E43595F5041525341
:10083000455200434153455F4C494748545F42523B
:10084000494748544E45535300544F47474C455F22
:100850004C494748545300534F4654574152455F03
:10086000504F574552004255494C445F5045524302
:10087000454E54004C4556454C494E475F44415403
:1008800041005A5F50524F4245004155544F4C452C
:1008900056454C005052494E545F4A4F4200505208
:1008A0004F4752455353004155544F5245504F52B4
:1008B000545F54454D5000564F4C554D4554524988
:1008C0004300454550524F4D0053455249414C5FFE
:1008D000584F4E5F584F4646004649524D57415279
:1008E000455F4E414D453A4D61726C696E20312E27
:1008F000312E392E312028476974687562292053BA
:100900004F555243455F434F44455F55524C3A68FB
:10091000747470733A2F2F6769746875622E636FF1
:100920006D2F4D61726C696E4669726D776172658B
:100930002F4D61726C696E2050524F544F434F4C93
:100940005F56455253494F4E3A312E30204D414368
:1009500048494E455F545950453A456E6465722D7D
:10096000332045585452554445525F434F554E54D9
:100970003A3120555549443A6365646532613266BF
:100980002D343161322D343734382D396231322DE6
:100990006335356336326633363766660A002F2F85
:1009A00020004D31343520533C696E6465783E201B
:1009B0006F7574206F662072616E67652028302D18
:1009C00031290A00205400205200416363656C65A0
:1009D000726174696F6E3A2050005741524E494E11
:1009E0004721204C6F77205A204A65726B206D6139
:1009F00079206C65616420746F20756E77616E7408
:100A00006564207061757365732E0A0020466C6FF3
:100A1000773A200000010F150E12FFFFFFFF161797
:100A20000E13FFFFFFFF03021A14FFFFFFFFFFFF7C
:100A3000FF0C04FFFFFF01000EFFFFFF0C190DFF6D
:100A4000183A200020536572766F2000206F75746D
:100A5000206F662072616E67650A00536572766F5B
:100A6000200050726F6265205A204F66667365746D
:100A70003A2000496E76616C6964206578747275FD
:100A80006465720A0020643A0020693A0020703AD6
:100A90000043290A0061626C656420286D696E203C
:100AA00074656D702000436F6C6420657874727596
:100AB0006465732061726520004E6F206361736509
:100AC000206C696768740A004D65736820706F69EF
:100AD0006E742063616E6E6F742062652072657340
:100AE0006F6C7665640A004D34323120696E636F35
:100AF000727265637420706172616D6574657220D5
:100B000075736167650A00454550524F4D204F4B44
:100B10000A003F5A206F7574206F662072616E67FD
:100B20006520282D323020746F203230290A003A97
:100B3000200050726F6265205A204F66667365749C
:100B400000416374697665204578747275646572D6
:100B50003A2000496E76616C69642065787472751C
:100B60006465720A00526573656E643A20006F6BAB
:100B70000020746F6F206C6F6E67206578747275DB
:100B800073696F6E2070726576656E7465640A00B5
:100B900020636F6C6420657874727573696F6E2062
:100BA00070726576656E7465640A00627573793A71
:100BB0002070617573656420666F7220696E707550
:100BC000740A00627573793A2070617573656420E8
:100BD000666F7220757365720A00627573793A20C8
:100BE00070726F63657373696E670A004B494C4C92
:100BF00045442E20004B494C4C206361757365645D
:100C000020627920746F6F206D75636820696E6152
:100C100063746976652074696D65202D2063757233
:100C200072656E7420636F6D6D616E643A20005062
:100C30006C65617365207265736574005052494E2E
:100C40005445522048414C544544005072696E74DA
:100C500065722068616C7465642E206B696C6C2809
:100C6000292063616C6C6564210A000000000000AB
:100C70000000000000000000004842000048420060
:100C8000008040000000005761726E696E673A2074
:100C9000486F6D696E672042756D70204469766992
:100CA000736F72203C20310A000202040000A04051
:100CB0000000A0400000004000006B4300006B43B8
:100CC00000007A43FFFFFF7C3C3E5E2B3D3F2F5BE5
:100CD0005D3B2C2A225C004572726F72207772692C
:100CE00074696E6720746F20454550524F4D210A3C
:100CF00000454550524F4D206461746173697A65B7
:100D0000206572726F722E0A002053697A653A204C
:100D100000496E6465783A2000F4010000F4010097
:100D20000064000000E80300000000FA430000FA3D
:100D3000430000A0400000C8410000A0420000A005
:100D4000420000C8430000BA423A0A0020286D6DF4
:100D5000290020204D383531205A005A2D50726F0D
:100D60006265204F66667365740020440020490068
:100D700020204D3330312050005049442073657499
:100D800074696E67733A0A002046002042002048CA
:100D90000020204D3134352053004D617465726957
:100DA000616C2068656174757020706172616D6539
:100DB000746572733A0A00205A00204A00202047C6
:100DC00032392057204900205A0020204D3432303B
:100DD0002053004175746F20426564204C65766530
:100DE0006C696E673A0A00205A0020590020204D95
:100DF000323036205800486F6D65206F6666736527
:100E0000743A0A00204500205A002059002058005A
:100E100020540020530020204D3230352051002036
:100E2000453C6D61785F655F6A65726B3E00205876
:100E30003C6D61785F785F6A65726B3E20593C6DEE
:100E400061785F795F6A65726B3E205A3C6D6178AC
:100E50005F7A5F6A65726B3E00416476616E6365BE
:100E6000643A20513C6D696E5F7365676D656E74A1
:100E70005F74696D655F75733E20533C6D696E5F8D
:100E800066656564726174653E20543C6D696E5F91
:100E900074726176656C5F66656564726174653EE7
:100EA0000020540020520020204D323034205000C9
:100EB000416363656C65726174696F6E2028756E3D
:100EC0006974732F7332293A20503C7072696E74C2
:100ED0005F616363656C3E20523C7265747261634E
:100EE000745F616363656C3E20543C747261766527
:100EF0006C5F616363656C3E0A00204500205A0008
:100F000020590020204D3230312058004D61786941
:100F10006D756D20416363656C65726174696F6E98
:100F20002028756E6974732F7332293A0A002045A0
:100F300000205A0020590020204D32303320580024
:100F40004D6178696D756D20666565647261746563
:100F5000732028756E6974732F73293A0A0020452F
:100F600000205A0020590020204D393220580053CB
:100F7000746570732070657220756E69743A0A002A
:100F800020204D3230302044300A0020204D3230B5
:100F9000302044002044697361626C65640A004635
:100FA000696C616D656E742073657474696E6773C6
:100FB0003A0020204D3134392043203B20556E69C2
:100FC000747320696E2043656C736975730A002021
:100FD00020473231202020203B00486F6D696E672A
:100FE000206661696C656400545249474745524523
:100FF00044006F70656E003A20007A5F6D696E0084
:10100000795F6D696E00785F6D696E005265706F13
:101010007274696E6720656E6473746F7020737488
:10102000617475730A0020746F6F206C6F6E672097
:10103000657874727573696F6E2070726576656E0F
:101040007465640A0020636F6C642065787472753F
:1010500073696F6E2070726576656E7465640A00E0
:1010600024F4D43050C38E20C2A24017828B70115A
:10107000127A910D816CD90AA861E108C7586607F8
:10108000615143061E4B5D05C145A7041A41110479
:10109000093D9803713931034036DB026533910213
:1010A000D4305402802E1D02632CEE01752AC50136
:1010B000B028A001102781018F2564012B244B014A
:1010C000E0223401AC211F018D200D01801FFC00A6
:1010D000841EED00971DDF00B81CD200E61BC60081
:1010E000201BBC00641AB200B219A8000A19A000A3
:1010F0006A189900D117910040178B00B51684002B
:1011000031167E00B31579003A157300C7146F00CD
:1011100058146A00EE1366008813630025135E00FE
:10112000C7125B006C12570015125400C111510018
:1011300070114F0021114B00D61049008D1047004F
:101140004610440002104200C00F4000800F3E00D5
:10115000420F3C00060F3B00CB0E3800930E3700C9
:101160005C0E3500270E3400F30D3200C10D310046
:10117000900D3000600D2E00320D2D00050D2C005D
:10118000D90C2B00AE0C2900850C29005C0C270023
:10119000350C27000E0C2600E80B2400C40B24009D
:1011A000A00B23007D0B23005A0B2100390B2100DB
:1011B000180B2000F80A1F00D90A1E00BB0A1E00E7
:1011C0009D0A1D00800A1D00630A1C00470A1B00BF
:1011D0002C0A1B00110A1A00F7091A00DD09190070
:1011E000C4091900AB091900920917007B091800FE
:1011F000630917004C09160036091600200916006D
:101200000A091500F5081500E0081400CC081400C0
:10121000B8081400A4081400900813007D081200F8
:101220006B08130058081200460812003408110019
:10123000230811001208110001081100F007100026
:10124000E0071000D0071000C0071000B0070F0023
:10125000A107100091070E0083070F0074070F000D
:1012600065070E0057070E0049070E003B070D00EB
:101270002E070E0020070D0013070D0006070D00B6
:10128000F9060C00ED060D00E0060C00D4060C007B
:10129000C8060C00BC060C00B0060C00A4060B002F
:1012A00099060C008D060B0082060B0077060B00DA
:1012B0006C060B0061060A0057060B004C060A007C
:1012C00042060A0038060A002E060A0024060A0012
:1012D0001A060A001006090007060A00FD050900A3
:1012E000F4050900EB050900E2050900D90509002C
:1012F000D0050900C7050900BE050900B5050800AD
:10130000AD050800A50509009C0508009405080026
:101310008C050800840508007C0508007405080099
:101320006C050700650508005D0507005605080007
:101330004E0507004705070040050800380507006F
:10134000310507002A050700230507001C050600D4
:10135000160507000F05070008050600020507002F
:10136000FB040600F5040700EE040600E80406008E
:10137000E2040700DB040600D5040600CF040600E3
:10138000C9040600C3040600BD040600B704060035
:10139000B1040500AC040600A6040600A004050084
:1013A0009B04060095040500900406008A040500CD
:1013B00085040500800406007A0405007504050014
:1013C000700405006B040500660405006104050057
:1013D0005C04050057040500520405004D04050097
:1013E00048040500430405003E0404003A040500D7
:1013F00035040500300404002C0405002704040013
:10140000230405001E0404001A0404001604050049
:10141000110404000D040400090405000404040080
:1014200000040400FC030400F8030400F4030400B7
:10143000F0030400EC030400E8030400E4030400E8
:10144000E0030400DC030400D8030400D403040018
:10145000D0030400CC030400C8030300C503030049
:1014600024F404D9201BC40C5C0E9804C4095F0248
:1014700065077101F405F900FB04B3004804870017
:10148000C10369005803550003034500BE023A003A
:101490008402310053022A002902250004022000A0
:1014A000E4011C00C8011900AF01170098011400E5
:1014B00084011300710110006101100051010E0040
:1014C00043010D0036010B002B010B0020010B0026
:1014D000150109000C01090003010800FB000800C8
:1014E000F3000800EB000700E4000600DE00060041
:1014F000D8000600D2000600CC000500C700050099
:10150000C2000500BD000400B9000400B5000400DD
:10151000B1000400AD000400A9000400A500030010
:10152000A20003009F0004009B000300980003003A
:101530009500020093000300900003008D0002005C
:101540008B00030088000200860002008400030074
:10155000810002007F0002007D0002007B0002008B
:10156000790002007700010076000200740002009A
:1015700072000100710002006F0002006D000100A6
:101580006C0002006A0001006900020067000100AF
:1015900066000100650001006400020062000100B5
:1015A00061000100600001005F0002005D000100B9
:1015B0005C0001005B0001005A00010059000100BD
:1015C00058000100570001005600010055000100BD
:1015D00054000100530000005300010052000100BC
:1015E00051000100500001004F0001004E000000BA
:1015F0004E0001004D0001004C0001004B000000B6
:101600004B0001004A0001004900010048000000B1
:1016100048000100470001004600000046000100AC
:1016200045000000450001004400010043000000A7
:1016300043000100420000004200010041000000A0
:1016400041000100400001003F0000003F00010098
:101650003E0000003E0001003D0000003D00010092
:101660003C0000003C0000003C0001003B0000008A
:101670003B0001003A0000003A0001003900000080
:101680003900010038000000380000003800010077
:10169000370000003700010036000000360000006F
:1016A0003600010035000000350000003500010063
:1016B000340000003400000034000100330000005A
:1016C000330000003300010032000000320000004F
:1016D0003200010031000000310000003100010043
:1016E0003000000030000000300001002F0000003A
:1016F0002F0000002F0000002F0001002E0000002E
:101700002E0000002E0001002D0000002D00000022
:101710002D0000002D0001002C0000002C00000016
:101720002C0000002C0001002B0000002B0000000A
:101730002B0000002B0001002A0000002A000000FE
:101740002A0000002A0001002900000029000000F2
:1017500029000000290000002900010028000000E5
:1017600028000000280000002800000028000100D8
:1017700027000000270000002700000027000000CD
:1017800027000100260000002600000026000000BF
:1017900026000000260001002500000025000000B2
:1017A00025000000250000002500000025000100A4
:1017B0002400000024000000240000002400000099
:1017C000240001002300000023000000230000008B
:1017D000230000002300000023000000230001007C
:1017E0002200000022000000220000002200000071
:1017F0002200000022000100210000002100000062
:101800002100000021000000210000002100000054
:101810002100010020000000200000002000000046
:101820002000000020000000200000002000000038
:10183000200001001F0000001F0000001F0000002A
:101840001F0000001F0000001F0000001F0001001B
:101850001E0000001E0000001E0000001E00000010
:10186000043700001E290000511B00005810000022
:1018700010090000CC0400007802000041010000C3
:101880006265640A002C2073797374656D2073742B
:101890006F7070656421204865617465725F4944AA
:1018A0003A20004265642068656174696E6720664D
:1018B00061696C65640048656174696E6720666182
:1018C000696C65640045312048656174696E672004
:1018D0006661696C65640048656174696E6720665D
:1018E00061696C65640070012C0190012701B001F1
:1018F0002201C0011D01F001180110021301300284
:101900000E016002090190020401C002FF00000301
:10191000FA004003F5008003F000D003EB00200440
:10192000E6007004E100E004DC004005D700C005DB
:10193000D2004006CD00D006C8008007C3003008A2
:10194000BE00F008B900C009B400B00AAF00B00B87
:10195000AA00D00CA500000EA000500F9B00C010E4
:1019600096005012910000148C00C0158700B0172B
:101970008200B0197D00D01B7800001E730040204B
:101980006E0090226900F024640040275F009029D7
:101990005A00E02B5500102E500020304B00103222
:1019A0004600E033410090353C0010373700703876
:1019B0003200A0392D00B03A2800A03B2300603C43
:1019C0001E00103D1900903D1400103E0F00703EA7
:1019D0000A00C03E0500003F0000403FFBFF803F83
:1019E000F6FFC03FF1FF453120544845524D414C70
:1019F0002052554E415741590042454420544845D4
:101A0000524D414C2052554E415741590054686542
:101A1000726D616C2052756E61776179004531207D
:101A20004572723A204D415854454D5000457272EE
:101A30003A204D415854454D5020424544004D41B7
:101A40005854454D5020747269676765726564002B
:101A50004531204572723A204D494E54454D500053
:101A60004572723A204D494E54454D5020424544EE
:101A7000004D494E54454D50207472696767657238
:101A80006564004D383420582059205A20450020E4
:101A90002F002042403A0020403A0025753A253078
:101AA000327500253032753A25303275002575645F
:101AB00020253032753A2530327500202020202034
:101AC00020005A0059002020202000580009200042
:101AD000000000000000000000000000003FFFF0D8
:101AE000000000000000000000000000003800704E
:101AF0000000000000000000000000000030FC308A
:101B00000000000000000000000000000020FC10A9
:101B1000000000000000000000000000002078101D
:101B20000000000000000000000000000020301055
:101B3000000000000000000000000000002C00D0A9
:101B4000F80180000C1FE00000082080002E31D03A
:101B500048008000123FF00000041040002F7BD0AE
:101B600043C38CD0023FF00000041040002F7BD014
:101B700071249267CC3FF00000082080002E31D005
:101B800041249E40021FE00000104100002C00D0C4
:101B900049249040121FE0000020820000203010F5
:101BA000FBB3CEE00C3FF000002082000020781054
:101BB00000000000003FF000001041000020FC1079
:101BC00000000000003FF000000820800030FC30E2
:101BD00000000000000FC00000000000003800708E
:101BE000000000000007800000FFFFC0003FFFF082
:101BF000000000000003000000FFFFC00000000024
:101C0000000000000000000000000000003FFFF0A6
:101C1000000000000000000000000000003800701C
:101C200000000000000000000000000000338730CA
:101C30000000000000000000000000000027879066
:101C4000000000000000000000000000002F87D00E
:101C5000000000000000000000000000002F87D0FE
:101C6000000000000000000000000000002F03D072
:101C7000F80180000C1FE0000008208000203010D8
:101C800048008000123FF00000041040002078104F
:101C900043C38CD0023FF0000004104000207810B5
:101CA00071249267CC3FF0000008208000203010A3
:101CB00041249E40021FE00000104100002F03D08D
:101CC00049249040121FE00000208200002F87D09E
:101CD000FBB3CEE00C3FF00000208200002F87D045
:101CE00000000000003FF000001041000027879036
:101CF00000000000003FF000000820800033873023
:101D000000000000000FC00000000000003800705C
:101D1000000000000007800000FFFFC0003FFFF050
:101D2000000000000003000000FFFFC000000000F2
:101D3000456E6465722D332052656164792E0050C2
:101D400072696E74696E672E2E2E005072696E7401
:101D50002070617573656400436D643A2053746F3D
:101D60007700436D643A204465706C6F7900436D71
:101D7000643A2053656C662D5465737400436D643A
:101D80003A2053572D4D6F646500436D643A2052DD
:101D900065736574004D61696E005072696E7420E0
:101DA00061626F7274656400496E69742E205344D9
:101DB0002063617264004D3231004E6F2053442025
:101DC00063617264004368616E67652053442063F9
:101DD000617264004D3231005072696E7420667217
:101DE0006F6D2053440053746F70207072696E746D
:101DF00000526573756D65207072696E7400416282
:101E00006F7574205072696E7465720050617573DD
:101E100065207072696E7400436F6E74726F6C002F
:101E2000507265706172650054756E6500496E662A
:101E30006F2073637265656E0050726F6265205A21
:101E4000204F66667365740050726F6265205A2079
:101E50004F666673657400466C6F7700466C6F77EB
:101E60000046616E2073706565640046616E207384
:101E7000706565640042656400426564004E6F7A77
:101E80007A6C65004E6F7A7A6C6500537065656494
:101E9000005370656564004D61696E00507265683D
:101EA00065617420504C4120456E64005072656835
:101EB00065617420504C4120426564005072656831
:101EC00065617420504C410050726570617265000C
:101ED000507265686561742041425320456E64000C
:101EE0005072656865617420414253204265640008
:101EF000507265686561742041425300507265708C
:101F000061726500436D643A205265736574004DDB
:101F1000323830205030205331363000436D643A2F
:101F20002053656C662D54657374004D3238302033
:101F30005030205331323000507265686561742032
:101F4000414253005072656865617420504C4100F5
:101F5000436F6F6C646F776E0044697361626C6588
:101F6000207374657070657273004D38340041756C
:101F7000746F20686F6D6500473238004D6F76656D
:101F80002061786973004D61696E004D6F76652040
:101F900058004D6F76652059004D6F7665205A00C8
:101FA0004578747275646572004D6F766520302EC9
:101FB000316D6D004D6F766520316D6D004D6F7622
:101FC000652031306D6D004D6F76652061786973E5
:101FD000004578747275646572004D6F7665205A9D
:101FE000004D6F76652059004D6F7665205800458D
:101FF00078747275646572004D6F7665205A004D75
:102000006F76652059004D6F7665205800507265D7
:1020100070617265004C6F61642073657474696EE1
:10202000677300526573746F7265206661696C73C3
:102030006166650053746F72652073657474696EB0
:10204000677300424C546F7563680046696C616D3C
:10205000656E74004D6F74696F6E0054656D7065C8
:10206000726174757265004D61696E004D33303375
:1020700020553120452569205325690050494420C9
:102080004175746F74756E650050494420417574D4
:102090006F74756E65005049442D44005049442DBD
:1020A00044005049442D49005049442D49005049AD
:1020B000442D50005049442D5000200820466163B3
:1020C000740020082046616374002008204D617868
:1020D000002008204D6178002008204D696E002006
:1020E00008204D696E004F6666004F6E20004175F6
:1020F000746F74656D700046616E20737065656401
:102100000046616E2073706565640042656400423C
:102110006564004E6F7A7A6C65004E6F7A7A6C65F2
:1021200000436F6E74726F6C0050726F6265205A5C
:10213000204F666673657400436F6E74726F6C0037
:1021400046696C2E204469612E0046696C2E20443D
:1021500069612E004F6666004F6E20004520696E53
:10216000206D6D3300436F6E74726F6C0043616E4F
:102170006E6F7420656E7465722073756264697227
:102180003A2000022E2E00015265667265736800C7
:102190004D61696E004D61782054656D703A203153
:1021A0003235004D696E2054656D703A203500540B
:1021B0004265643A4550434F53203130304B004D17
:1021C00061782054656D703A20323735004D696E64
:1021D0002054656D703A20350054303A2045504304
:1021E0004F53203130304B005053553A2047656EE5
:1021F000657269630050726F746F636F6C3A20315F
:102200002E3000426175643A203131353230300071
:102210004D656C7A692028437265616C697479290F
:102220000042696C696E656172204C6576656C6907
:102230006E67004578747275646572733A20310078
:10224000687474703A2F2F6D61726C696E66772EA8
:102250006F726700456E6465722D33003230323024
:102260002D30362D323000312E312E392E31004DA9
:1022700061726C696E00546865726D6973746F7217
:102280007300426F61726420496E666F005072691C
:102290006E74657220496E666F004D61696E000054
:1022A000002100240027002A000000220025002829
:1022B000002B00000020002300260029000202025B
:1022C00002020202020404040404040404030303DB
:1022D00003030303030101010101010101010204E0
:1022E00008102040800102040810204080010204F0
:1022F00008102040808040201008040201000000E7
:10230000010200090A0000000004030807000000A1
:1023100000000000000000000000000000FFFFFFC0
:10232000FFEFFFFFFFFFFFFFFFFFFFFFEFEFFFFFED
:10233000FFFFFFFFFFFFFFE7DFFFFFFFFFFFFFFFE5
:10234000FFFFE7DFFFFFFFFFFFFFFFFFFFE3DFFF11
:10235000FFFFFFFFFFFFFFFFF3CFFFFFFFFFFFFFC9
:10236000FFFFE1E1CFFFFFFFFFFFFFFE780000036B
:10237000DDFFFFFFFFFEFF807E0001EEFFFFFFFF9E
:10238000FE7DCFFC0000F77FFFFFFFFF8E06000001
:10239000007BBFFFFFFFFFC0000000007DDFFFFFED
:1023A000FFFFFC01FE00003EE7FFFFFFFFFFFFFC19
:1023B00000031F73FFFFFFFFFFFFF800018F81FF86
:1023C000FFFFFFFFFFE0000083F9FFFFFFFFFFFFBC
:1023D00000FC0000F0FFFFFFFFFFE00FFFC0000068
:1023E000FFFFFFFFFE03FFFFC00000FFFFFFFFFF37
:1023F000FFFFF9000000FFFFFFFFFFFFFFFC0007EA
:10240000C0FFFFFFFFFFFFFFFF0007E0FFFFFFFF31
:10241000FFFFFFFFE007F1FFFFFFFFFFFFFFFFFCF4
:1024200007F9FFFFFFFFFFFFFFFFFF03F9FFFFFFBC
:10243000FFFFFFFFFFFF83F9FFFFFFFFFFFFFFFF2E
:10244000FFC3FFFFFFFFFFFFFFFFFFFFE1FFFFFFF6
:10245000FFFFFFFFFFFFFFF0BFFFFFFFFFFFFFFFDB
:10246000FFFBF83FFFFFFFFFFFFFFFFFF9F83FFF14
:10247000FFFFFFFFFFFFFF7EF0FFFFFFFFFFFFFFFC
:10248000FFFF8E03FFFFFFFFFFFFFFFFFFE01FFFC8
:10249000FFFFFFFFFFFFFFFFFFFFFFFFFFFFFFFF4C
:1024A000FFFFFFFFFFFFFFFFFFFFFFFFFFFFFFFF3C
:1024B0007FFFFFFFFF00007FFFFFF87FFFFFFFFFB1
:1024C00080007FFFFFE07FFFFFFFFFC3FCFFFFFFF8
:1024D000F8FFFFFFFFFFC3FCFFFFFFF8FFFFFFFF59
:1024E000FF87FDFFFFFFF1FFFFFFFFFF87FFFFFFFC
:1024F000FFF1FFFFFFFFFF0FE7F30FFC23FC3FFFA0
:10250000FFFF0FEF8007F003F01E007FFE1FCF815B
:1025100087C787C70C007FFE001FC7C78FC79F0FE5
:102520000CFFFE001F878F1F8F1F0F1FFFFC3F9F99
:102530008F8F1F8E001E3FFFFC7F3F0F1E3F1E3FF1
:10254000FE3FFFF87FFF1F1C3F1C7FFC7FFFF8FF53
:10255000FF1E1C7E1C7FFC7FFFF0FFCE3E3C7E3CBE
:102560007FB8FFFFF0FF9E3C387C387E78FFFFE1AC
:10257000FF3C7C787C783CF1FFFFE1F838787810FC
:102580001801F1FFFF000060203C007C07807FFF06
:10259000FFFFFFFFFE1FFE1FFFFFFF1FFFFFFFFFED
:1025A000FFFF600000000001FF400000000000FF8E
:1025B0008000000000007F83CF00000C303F87FFC9
:1025C00080000C301F867980000C000F8C30C78390
:1025D0008C30E78C30CFC7CC31F38C30DCECEC3373
:1025E000B98C30D86C6C33198C30D06C0C33198C9E
:1025F00030D86C0C33198C30DC6C0E3B198C30CF1E
:102600007C079F198C30C77C038F194000000000A5
:102610000002600000000000061FFFFFFFFFFFF840
:102620002020506C616E6E657242756666657242FE
:10263000797465733A20002046726565204D656D9A
:102640006F72793A2000436F6D70696C65643A204F
:102650004A616E20313220323032320A00207C2032
:10266000417574686F723A202847696C62657274AC
:10267000204672616E636F69732C20456E646572CB
:102680002D33290A00323032302D30362D323000D1
:10269000204C61737420557064617465643A200045
:1026A000312E312E392E310A004D61726C696E0067
:1026B00020536F6674776172652052657365740A82
:1026C00000205761746368646F6720526573657496
:1026D0000A002042726F776E206F75742052657306
:1026E00065740A002045787465726E616C205265CD
:1026F0007365740A00506F77657255700A007374C1
:102700006172740A006175746F25692E67006572C5
:10271000726F722077726974696E6720746F2066B9
:10272000696C650A00456E6473746F70732025636D
:1027300020256320256320256300205A3A00205974
:102740003A0020583A00656E6473746F70732068A5
:1027500069743A2000446F6E6520736176696E6714
:102760002066696C652E0A004D3239004D32340006
:102770004D323320257300556E6B6E6F776E20637C
:102780006F6D6D616E643A20220050726F62696EE7
:1027900067206661696C65640A0050726F62696ED9
:1027A00067206661696C656400205A3A20002059F0
:1027B0003A200042656420583A2000534420636167
:1027C0007264206F6B0A006F70656E526F6F7420B9
:1027D0006661696C65640A00766F6C756D652E695B
:1027E0006E6974206661696C65640A0053442069EF
:1027F0006E6974206661696C0A00486F6D652025FA
:10280000732573257320666972737400206669727C
:1028100073740A005A0059005800486F6D65200013
:1028200057726974696E6720746F2066696C653AC7
:1028300020006F70656E206661696C65642C2046AF
:10284000696C653A20006F70656E206661696C6521
:10285000642C2046696C653A200046696C652073DB
:10286000656C65637465640A002053697A653A2073
:102870000046696C65206F70656E65643A200020C3
:1028800066696C653A2000646F696E670066726500
:102890007368004E6F772000454E442053554252D6
:1028A0004F5554494E450A002220706F7300222074
:1028B000706172656E743A2200535542524F5554FE
:1028C000494E452043414C4C207461726765743A0F
:1028D00022004B494C4C45442E2000747279696E9D
:1028E0006720746F2063616C6C207375622D676361
:1028F0006F64652066696C657320776974682074FD
:102900006F6F206D616E79206C6576656C732E201B
:102910004D4158206C6576656C2069733A004572AC
:10292000726F723A006F70656E206661696C6564E3
:102930002C2046696C653A200043616E6E6F7420EE
:102940006F70656E207375626469722000656368DC
:102950006F3A0000060900FE0701920321207FFF65
:1029600007FF07FF0000000600000107070602003E
:1029700080808080800080030202060105A0A005FF
:1029800007070600005050F850F85050050707069A
:1029900000002078A07028F020050707060000C07E
:1029A000C810204098180507070600006090A04056
:1029B000A89068020303060104C0408003070706CD
:1029C000010020408080804020030707060100802E
:1029D00040202020408005050506000120A870A8A1
:1029E000200505050600012020F82020020303062B
:1029F00002FFC04080050101060003F80202020642
:102A00000200C0C005050506000108102040800531
:102A10000707060000708888888888700307070603
:102A2000010040C040404040E0050707060000703C
:102A30008808708080F8050707060000F81020104D
:102A40000808F005070706000010305090F8101035
:102A5000050707060000F880F008088870050707DA
:102A6000060000708080F088887005070706000067
:102A7000F80810202020200507070600007088882D
:102A80007088887005070706000070888878080835
:102A900070020505060200C0C000C0C0020606069E
:102AA00002FFC0C000C040800407070600001020DD
:102AB0004080402010050303060002F800F80407D8
:102AC000070601008040201020408005070706000F
:102AD0000070880810200020050707060000708895
:102AE0000868A8A870050707060000708888F8889D
:102AF0008888050707060000F08888F08888F005B8
:102B00000707060000708880808088700507070628
:102B10000000F08888888888F0050707060000F81C
:102B20008080F08080F8050707060000F88080F0BC
:102B3000808080050707060000708880B88888704C
:102B4000050707060000888888F888888801070735
:102B500006020080808080808080050707060000D4
:102B6000381010101090600507070600008890A02C
:102B7000C0A09088050707060000808080808080C4
:102B8000F805070706000088D8A888888888050700
:102B9000070600008888C8A89888880507070600E7
:102BA0000070888888888870050707060000F0880C
:102BB00088F080808005070706000070888888A854
:102BC0009068050707060000F08888F0A090880547
:102BD0000707060000788080700808F005070706E0
:102BE0000000F8202020202020050707060000888C
:102BF0008888888888700507070600008888888884
:102C00008850200507070600008888888888A85013
:102C100005070706000088885020508888050707A8
:102C2000060000888888502020200507070600003D
:102C3000F80810204080F8030707060100E08080B4
:102C4000808080E005050506000180402010080313
:102C50000707060100E02020202020E005030306EE
:102C60000004205088050101060000F80202020657
:102C70000205804005050506000070087888780583
:102C800007070600008080B0C88888F005050506A3
:102C9000000070808088700507070600000808683B
:102CA000988888780505050600007088F88070050A
:102CB00007070600003048E0404040400506060691
:102CC00000FF70888878087005070706000080807C
:102CD000B0C88888880107070602008000808080CD
:102CE00080800308080601FF200020202020A0404B
:102CF000040707060000808090A0C0A0900307078B
:102D0000060100C04040404040E0050505060000C7
:102D1000D0A8A8A8A8050505060000B0C88888881E
:102D200005050506000070888888700506060600FF
:102D3000FFF08888F080800506060600FF78888806
:102D4000780808050505060000B0C88080800505E4
:102D50000506000070807008F004070706000040B8
:102D600040E040404030050505060000888888980E
:102D700068050505060000888888502005050506B9
:102D800000008888A8A85005050506000088502086
:102D900050880506060600FF8888887808700505B3
:102DA00005060000F8102040F80307070601002080
:102DB000404080404020010707060200808080805C
:102DC000808080030707060100804040204040804B
:102DD00005020206000268900000000600000006DE
:102DE0000900FE000000000001090008FE000005C7
:102DF000080806000040F0C8888898781005080880
:102E0000060000C0F88888888888F805050506004F
:102E1000012030F830200508080600002070F82056
:102E2000202020E00509090600FF2070A8A8B88826
:102E30008870200509090600FFE080C0B0A828308E
:102E400028280509090600FFF8A88888888888A826
:102E5000F8050A0A0600FE205050505088A8A8889D
:102E60007003030306000340A040DBE4C8E2112422
:102E70001FBECFEFD0E4DEBFCDBF12E0A0E0B1E0D7
:102E8000E2E1FEEE01E00BBF02C007900D92A83711
:102E9000B107D9F723E1A8E7B2E001C01D92AB3B2F
:102EA000B207E1F717E1C6E3D7E104C02197FE01BD
:102EB0000E946DF6C533D107C9F70E949DE50C94B9
:102EC000FCF60C94000090916F00292F227091FF66
:102ED00005C090916F009D7F90936F0034E0839FB9
:102EE000C0011124FC01EC52F64F408151816281F6
:102EF00073818853964FFC014083518362837383AF
:102F000081E08093C709222329F080916F008260BD
:102F100080936F000895BC012091C5093091C609C6
:102F20004091C5095091C6092417350731F481E055
:102F30002617370709F080E008959A01F1CF4F92E4
:102F40005F926F927F928F929F92AF92BF92EF9219
:102F5000FF920F931F93CF93DF93CDE8D4E08DE9D9
:102F6000E82E84E0F82E0DE714E0412C512C3201BC
:102F700043946991799189919991F7018190919008
:102F8000A190B1907F010E94D4EEA50194010E940E
:102F900035EF0E949AF4F8016193719381939193B4
:102FA0008F01461657066806790610F42B013C017E
:102FB000F4E0CD39DF07E9F66FEF7FEFCB01A30136
:102FC00092010E94C3F22093790430937A044093D3
:102FD0007B0450937C04DF91CF911F910F91FF9060
:102FE000EF90BF90AF909F908F907F906F905F9089
:102FF0004F900895CF93DF9390916F00292F227007
:1030000091FF05C090916F009D7F90936F0094E0B9
:10301000899FA0011124FA01EC52F64F6081718161
:1030200082819381222329F020916F0022602093D6
:103030006F00EA01C15CD54F0E94D6EE288139812C
:103040004A815B810E9435EFDF91CF910895CF9245
:10305000DF92EF92FF9280917C0A882309F457C097
:10306000C090780AD090790AE0907A0AF0907B0AB2
:1030700020E030E0A901C701B6010E94CFEE88230D
:1030800009F445C020E030E040E05FE3C701B6014D
:103090000E9435EF9B01AC010E9435EF2BED3FE024
:1030A00049E450E40E9435EF9B01AC0160E070E020
:1030B00080E89FE30E9421F46B017C01C0924F0ADB
:1030C000D092500AE092510AF092520A60912E0179
:1030D00070912F01072E000C880B990B0E94D6EEE1
:1030E0002AE037ED43E25CE30E9435EFA701960149
:1030F0000E9435EF60932A0170932B0180932C017D
:1031000090932D01FF90EF90DF90CF900895C12C08
:10311000D12C80E8E82E8FE3F82ED0CF80916F007D
:10312000982F927081FF05C080916F008D7F8093F2
:103130006F0010927E0A10927F0A1092800A1092FD
:10314000810A992329F080916F00826080936F003B
:1031500008950F931F938091FB0E9091FC0E891B95
:103160008F7009F449C09091F80E992361F0833073
:1031700040F48FEF890F29F08093F80E90E080E003
:1031800038C01092F80E8091FC0E2DE4829FC00191
:10319000112482559B4FFC01208120FDEFCF4091EF
:1031A0007E0A50917F0A6091800A7091810AE75BE4
:1031B000FF4F0081118122813381401B510B620B33
:1031C000730B40937E0A50937F0A6093800A70933A
:1031D000810A2091FC0E2F5F2F702093F90E309101
:1031E000FC0E2091FA0E321304C02091F90E2093A8
:1031F000FA0E1F910F9108950E948E18BFCFCF93A2
:10320000DF9380918B0A811105C080918C0A8823FD
:1032100009F459C080913A0432994FC08E7F80934F
:103220003A0480913A0433994AC08D7F80933A04DE
:1032300080913A04349945C08B7F80933A04C091C1
:10324000B809C0FF10C080917E0980FF0CC080913A
:103250003A0480FF08C080919E0A816080939E0A94
:1032600080E00E946317C1FF10C080917E0981FF3A
:103270000CC080913A0481FF08C080919E0A826050
:1032800080939E0A81E00E946317C2FF1CC0809158
:103290007E0982FF18C080918C0A8823A1F080915A
:1032A0003A0482FF10C080919E0A846080939E0A37
:1032B00082E0DF91CF910C9463178160B0CF826080
:1032C000B5CF8460BACFDF91CF910895CF92DF92CE
:1032D000EF92FF92CF93DF93EC01C0905F0AD09002
:1032E000600AE090610AF090620AA7019601688185
:1032F00079818A819B810E94CFEE87FF04C0C882BA
:10330000D982EA82FB82C090630AD090640AE0907E
:10331000650AF090660AA70196016C817D818E8115
:103320009F810E94CFEE87FF04C0CC82DD82EE82B7
:10333000FF82C0903201D0903301E0903401F090D0
:103340003501A7019601688179818A819B810E945C
:1033500087F5181624F4C882D982EA82FB82C090CD
:103360003601D0903701E0903801F0903901A70183
:1033700096016C817D818E819F810E9487F5181650
:1033800024F4CC82DD82EE82FF82C0903A01D0909C
:103390003B01E0903C01F0903D01A701960168855A
:1033A00079858A859B850E9487F5181624F4C8863E
:1033B000D986EA86FB86DF91CF91FF90EF90DF9070
:1033C000CF9008955E9A80912A0C8E7F80932A0C6C
:1033D0005E9A80912A0C8D7F80932A0C159A809199
:1033E0002A0C8B7F80932A0C5E9A0895CF93DF93EB
:1033F00080E00E94FA17CDEBD3E0688379838A835B
:103400009B8381E00E94FA176C837D838E839F8368
:1034100082E00E94FA17688779878A879B87DF9105
:10342000CF910895CF92DF92EF92FF9260911204B4
:1034300070911304072E000C880B990B0E94D6EE96
:103440006B017C012DEB37E346E855EB0E9487F5D5
:1034500087FD0BC02DEB37E346E855E3C701B60106
:103460000E94CFEE18160CF043C0A701960160E051
:1034700070E080E89FE30E9421F46093B5037093AD
:10348000B6038093B7039093B803609114047091CE
:103490001504072E000C880B990B0E94D6EE6B01C9
:1034A0007C012DEB37E346E855EB0E9487F587FD5D
:1034B0000AC02DEB37E346E855E3C701B6010E9489
:1034C000CFEE1816CCF4A701960160E070E080E81A
:1034D0009FE30E9421F46093B9037093BA03809331
:1034E000BB039093BC03FF90EF90DF90CF900895C3
:1034F00060E070E0CB01C1CF60E070E0CB01EBCFCA
:103500008091E3029091E402A091E502B091E6027D
:103510008093620190936301A0936401B09365016D
:103520008091E1029091E202909331018093300109
:1035300008958091620190916301A0916401B0911E
:1035400065018093E3029093E402A093E502B093B7
:10355000E60280913001909131019093E2028093D4
:10356000E10284E690E09093310180933001089568
:103570000F931F93CF93DF9394E0899FE001112471
:103580008E01055D134FFE01E357F54FDE01A55196
:10359000BC4F2D913D914D915C91608171818281F3
:1035A00093810E9427F3F801608371838283938360
:1035B000FE01EB54FD4F85919591A591B491FE01CB
:1035C000E15AF54F80839183A283B383FE01EF53C9
:1035D000FD4F85919591A591B491CE5CDE4F888386
:1035E0009983AA83BB83DF91CF911F910F91089597
:1035F00090919D0AE92FF0E0E756F54F80839F5F99
:10360000943040F490939D0A8091200C8F5F8093BA
:10361000200C089510929D0AF7CF2FEB280F2A3126
:1036200008F042C0E22FF0E080910603909107037A
:10363000A0910803B091090304C0B695A79597958A
:1036400087952A95D2F780FD02C081700895E451D4
:10365000FD4FE081EE2329F18091280C9091290CF7
:10366000E80FF92FF11D808190ED980F9A3030F01E
:103670008E3251F4818180538A3098F4F09379022C
:10368000E093780281E008958D3211F08B3249F495
:10369000818190ED980F9A3088F38E3211F48281F7
:1036A000EACFF0E0E0E0EACF80E008950E940D1B51
:1036B000882341F081E02091780230917902232B18
:1036C00009F480E00895089590E080E008958F92D5
:1036D0009F92AF92BF92CF92DF92EF92FF92CF93E1
:1036E000DF93EC018090540C9090550CA090560CF8
:1036F000B090570C20E030E0A901C501B4010E9450
:10370000CFEE882309F454C0C880D980EA80FB80BA
:10371000A7019601C501B4010E94CFEE18160CF066
:103720004CC020914B0C30914C0C40914D0C509161
:103730004E0CC701B6010E94CFEE882331F1C09232
:103740004B0CD0924C0CE0924D0CF0924E0C209110
:103750004F0C3091500C4091510C5091520C68819B
:1037600079818A819B810E9435EF9B01AC0160E0E9
:1037700070E080E89FE30E9426F36093000170935D
:103780000101809302019093030160910001709107
:1037900001018091020190910301DF91CF91FF908F
:1037A000EF90DF90CF90BF90AF909F908F90089553
:1037B00060E070E080E89FE3F0CF60E070E0CB0174
:1037C000ECCF80E1EBE3FCE0A7EFB3E001900D92DA
:1037D0008A95E1F7089580918F03909190032FEFE0
:1037E0003FEF981751F0E92FF0E0E15FFC4F2081A7
:1037F00030E09F5F9F7790939003C9010895DF9217
:10380000EF92FF920F931F93CF93DF93EC01D62E8D
:103810001CAD0BAD7C0184E0E80EF11CE98DFA8D46
:10382000C7010995412F480F2D2D602FC7010E9418
:103830000DB39BAD890F8BAF81E090E0DF91CF910D
:103840001F910F91FF90EF90DF9008950F931F93BA
:10385000CF93DF93EC010E943BB00E811F8128853E
:103860003985011511052105310579F52C852223AE
:1038700039F1EA8521502C8721E02E0F2A873D85DA
:10388000231301C01A86F0E03196EE0FFF1FEE0FF2
:10389000FF1FEC0FFD1F02851385248535850A83E4
:1038A0001B832C833D83600F711F811D911D6E83CF
:1038B0007F83888799878C819D81892B09F0149A51
:1038C000DF91CF911F910F910895601B710B820BB7
:1038D000930B97FDF5CF14981E821F8218861986C8
:1038E000EFCF4F925F926F927F928F929F92AF92A3
:1038F000BF92CF92DF92EF92FF92CF93DF93CDB73B
:10390000DEB76A970FB6F894DEBF0FBECDBF9A8FB1
:10391000898F5B014A01DC01D7966D917D918D9174
:103920009C91DA970E94D4EE6B017C01F501208115
:103930003181428153810E9435EF0E9405F40E943B
:103940009AF43B015C01D4012D913D914D915C9124
:10395000C701B6010E9435EF0E9405F40E949AF457
:103960006D827E82AF82B8862D813E814F815885DF
:10397000283731054105510540F428E730E040E0A3
:1039800050E02D833E834F83588769837A838B83EE
:103990009C8389819A81AB81BC8188379105A1057F
:1039A000B10540F428E730E040E050E029833A8355
:1039B0004B835C83E98DFA8DED5BFF4F80819181B4
:1039C000A281B38189879A87AB87BC87BC01CD016F
:1039D0000E94D6EE2B013C016D817E818F819885FE
:1039E0000E94D4EE698B7A8B8B8B9C8B20E030E02D
:1039F000A901C301B2010E94CFEE882309F43BC1A3
:103A0000A7019601C701B6010E9435EF4B015C0189
:103A100029893A894B895C89CA01B9010E9435EF2D
:103A20009B01AC01C501B4010E9426F34B015C016E
:103A3000A3019201C301B2010E9427F39B01AC01D3
:103A4000C501B4010E9421F40E9405F40E949AF479
:103A50006D877E878F87988B69857A858B859C8516
:103A600090958095709561957F4F8F4F9F4F0E94E5
:103A7000D6EE4B015C0169817A818B819C810E9429
:103A8000D4EE69877A878B879C8720E030E0A90194
:103A9000C501B4010E94CFEE882309F4F0C0298546
:103AA0003A854B855C85CA01B9010E9435EF6D8B63
:103AB0007E8B8F8B988FA7019601C701B6010E945C
:103AC00035EF9B01AC016D897E898F89988D0E94AD
:103AD00026F36B017C01A5019401C501B4010E948C
:103AE00027F39B01AC01C701B6010E9421F40E949B
:103AF000C9F4A98DBA8D95968D909D90AD90BC908E
:103B00009897750164012D853E854F855889C21AA5
:103B1000D30AE40AF50A0E949AF4C61AD70AE80AF8
:103B2000F90AF7FE6EC020E030E0A901C301B2013E
:103B30000E94CFEE882309F4A6C0C501B4010E94FB
:103B4000D4EE6B017C01A3019201C301B2010E947A
:103B500027F39B01AC01C701B6010E9435EF6B0151
:103B60007C0129893A894B895C89CA01B9010E9483
:103B700035EF9B01AC01C701B6010E9426F36B0132
:103B80007C0129853A854B855C85CA01B9010E9473
:103B900035EF9B01AC01C701B6010E9427F36B0111
:103BA0007C0120E030E040E850E4C301B2010E9413
:103BB00035EF9B01AC01C701B6010E9421F40E94C0
:103BC00005F46B017C0120E030E0A9010E9487F53B
:103BD00018161CF0C12CD12C7601C701B6010E9429
:103BE0009AF46D877E878F87988B86169706A8062E
:103BF000B90620F48D869E86AF86B88AC12CD12C5A
:103C000076018D859E85AF85B889E98DFA8D82A76D
:103C100093A7A4A7B5A7C80ED91EEA1EFB1EDF01F5
:103C2000C6A6D7A6E0AAF1AA2D813E814F8158856C
:103C300023AF34AF45AF56AFDF9629813A814B8130
:103C40005C812D933D934D935C9313976A960FB6C9
:103C5000F894DEBF0FBECDBFDF91CF91FF90EF9004
:103C6000DF90CF90BF90AF909F908F907F906F909C
:103C70005F904F90089560E070E0CB01E5CE60E08A
:103C800070E0CB0134CF60E070E0CB0198CF4F9271
:103C90005F926F927F928F929F92AF92BF92CF92DC
:103CA000DF92EF92FF920F931F93CF93DF93EC017C
:103CB0006091080470910904072E000C880B990B81
:103CC0000E94D6EE9B01AC01688179818A819B813B
:103CD0000E9426F36B017C0160910A0470910B0431
:103CE000072E000C880B990B0E94D6EE9B01AC01AD
:103CF0006C817D818E819F810E9426F34B015C0146
:103D0000A701960160910A0170910B0180910C014D
:103D100090910D010E94CFEE882309F459C0C09202
:103D20000A01D0920B01E0920C01F0920D0120915A
:103D3000B5033091B6034091B7035091B803C70162
:103D4000B6010E9435EF2B013C010E94C9F46B01C2
:103D50007C0120E030E0A9010E94CFEE87FD79C010
:103D600020E030E040E050E4C701B6010E9487F552
:103D700018162CF4C12CD12CE12CC0E4FC2EA70188
:103D80009601C301B2010E9426F32B013C0120E001
:103D900030E0A9010E94CFEE87FD5FC04092B103E1
:103DA0005092B2036092B3037092B403C701B6019C
:103DB0000E9493F46093B003062E000C770B6F5FA4
:103DC0007F4F6230710514F062E070E06093AF03E2
:103DD00010910501D091B003A501940160910601F5
:103DE0007091070180910801909109010E94CFEE26
:103DF00081113CC01D1393C0209191033091920317
:103E000040919303509194036091B1037091B20378
:103E10008091B3039091B4030E9435EF20919503F4
:103E20003091960340919703509198030E9427F395
:103E3000DF91CF911F910F91FF90EF90DF90CF9086
:103E4000BF90AF909F908F907F906F905F904F90BA
:103E50000895C12CD12C760192CF1092B10310920B
:103E6000B2031092B3031092B403A0CF8092060164
:103E700090920701A0920801B09209012091B90324
:103E80003091BA034091BB035091BC03C501B4010A
:103E90000E9435EF4B015C010E94C9F46B017C016B
:103EA00020E030E0A9010E94CFEE87FD01C120E0B3
:103EB00030E040E050E4C701B6010E9487F51816D3
:103EC0002CF4C12CD12CE12CB0E4FB2EA7019601DF
:103ED000C501B4010E9426F34B015C0120E030E0F3
:103EE000A9010E94CFEE87FDE7C08092AB039092BC
:103EF000AC03A092AD03B092AE03C701B6010E941D
:103F000093F46093AA03062E000C770B6F5F7F4F2C
:103F10006230710514F062E070E06093A903C09113
:103F2000AA031D1305C0809104018C1709F475C004
:103F3000D0930501C09304018D2FDD0F990B0C2E3A
:103F4000000CDD0BAC01440F551F840F951FFC01C5
:103F5000EC0FFD1FEE0FFF1FEE0FFF1FEA5EFB4F82
:103F600020813181428153812093A5033093A603A0
:103F70004093A7035093A803E091A9030E2FEE0FDF
:103F8000110BDC01A00FB11FAA0FBB1FAA0FBB1F93
:103F9000AA5EBB4F6D917D918D919C910E9426F3FD
:103FA0006093A1037093A2038093A3039093A4034F
:103FB0008091AF03282F880F330BC901880F991FF9
:103FC000820F931FC80FD91FCC0FDD1FCC0FDD1F31
:103FD000CA5EDB4F288139814A815B8120939D0332
:103FE00030939E0340939F035093A003FC01E00F86
:103FF000F11FEE0FFF1FEE0FFF1FEA5EFB4F608108
:104000007181828193810E9426F36093990370935A
:104010009A0380939B0390939C038090AB039090B2
:10402000AC03A090AD03B090AE032091A1033091FA
:10403000A2034091A3035091A403C501B4010E94BF
:1040400035EF2091A5033091A6034091A70350912D
:10405000A8030E9427F36B017C01C0929503D092C4
:104060009603E0929703F092980320919903309180
:104070009A0340919B0350919C03C501B4010E9497
:1040800035EF20919D0330919E0340919F03509105
:10409000A0030E9427F3A70196010E9426F36093D4
:1040A0009103709392038093930390939403A4CE0F
:1040B000C12CD12C76010ACF1092AB031092AC0325
:1040C0001092AD031092AE0318CFCF92DF92EF9211
:1040D000FF92CF93DF932091530C222329F1EC011F
:1040E00008960E94671B6B017C0120E030E0A9016B
:1040F0000E94CFEE20E030E0A901882359F0CE01E4
:104100000E94471E9B01AC01C701B6010E9435EF1A
:104110009B01AC01688579858A859B850E9426F381
:10412000688779878A879B87DF91CF91FF90EF908F
:10413000DF90CF9008958F929F92AF92BF92CF92CF
:10414000DF92EF92FF920F93CF93DF931F92CDB741
:10415000DEB76C017B01490180910C045B01A40E68
:10416000B51E8823A1F0F60180819181480F591F67
:10417000518340830F90DF91CF910F91FF90EF908B
:10418000DF90CF90BF90AF909F908F900895F601F1
:10419000808191810E949DF2898390910D049923E1
:1041A00011F0002311F0F7018083BE016F5F7F4F94
:1041B000C4010E9474AEF6018081918101969183C1
:1041C0008083FFEFEF1AFF0AEA14FB0401F7D2CF56
:1041D0008091780290917902009731F04AE050E0A6
:1041E00070E060E00C94E2EB60E070E0CB010895D9
:1041F0000E94E82097FD0CC00E94E8206F3F7105E7
:104200008105910509F034F40E94E820862F089575
:1042100080E008958FEF089580917802909179025F
:10422000892B41F00E94F82091E0811101C090E0BB
:10423000892F089591E0FCCF8091780290917902C6
:10424000009731F04AE050E070E060E00C9410ED2F
:1042500060E070E0CB0108950F931F93CF9380919E
:104260007802909179020097E9F0FC018F01C191E9
:104270002C2F2F7D81F0C53411F0C536B9F7F80128
:10428000108270E060E00E9484EAF801C083CF9160
:104290001F910F91089570E060E0CF911F910F91F1
:1042A0000C9484EA60E070E0CB01F1CF86E40E94D8
:1042B0000D1B8093770A882351F00E942C21609374
:1042C000410170934201809343019093440183E53F
:1042D0000E940D1B882351F00E942C2160934901FC
:1042E00070934A0180934B0190934C0182E40E94A9
:1042F0000D1B882351F00E942C216093450170937F
:10430000460180934701909348010895CF92DF9230
:10431000EF92FF920F931F93CF93DF933FEEC32E45
:1043200031E0D32E47EFE42E43E0F42E0BE31CE004
:10433000D0E0C0E0F60181916F010E940D1B88233F
:1043400009F458C00E942C21FE01E951FD4F208143
:10435000211104C02091EB022223E1F1F801208118
:104360003181428153810E9427F3F7016083718379
:10437000828393832196F4E0EF0EF11C0C5F1F4FB4
:10438000C430D105B9F686E40E94561B8823C9F0D3
:104390000E942C2120E030E0A9010E9487F5181628
:1043A00084F40E942C2120E030E040E752E40E9497
:1043B00021F4609362017093630180936401909390
:1043C0006501DF91CF911F910F91FF90EF90DF90EA
:1043D000CF900895C33049F2FE01EE0FFF1FEE0F9C
:1043E000FF1FE55DF34F20813181428153810E949F
:1043F00026F3BBCFF80180819181A281B381F701BF
:1044000080839183A283B383B5CF1198000000000D
:1044100087FD52C0419800000000119A0000000082
:1044200011980000000086FD53C041980000000074
:10443000119A0000000011980000000085FD46C0A0
:10444000419800000000119A00000000119800003F
:10445000000084FD39C0419800000000119A00005E
:10446000000011980000000083FD2CC0419800005E
:104470000000119A0000000011980000000082FD69
:104480001FC0419800000000119A00000000119820
:104490000000000081FD12C0419800000000119A48
:1044A000000000001198000000004198000000008A
:1044B000119A000000000895419AADCF419AEDCFC6
:1044C000419AE0CF419AD3CF419AC6CF419AB9CF12
:1044D000419AACCF8F929F92AF92BF92CF92DF92D0
:1044E000EF92FF920F931F93CF93DF93B0E4A0E07E
:1044F0006A2F70E0AB014B0F511D559547954A1738
:1045000011F0B41319C0E4EEF9E165917491072E2E
:10451000000C880B990B0E94D6EEDF91CF911F9172
:104520000F91FF90EF90DF90CF90BF90AF909F9052
:104530008F900895B42FDECF9A0121503109220FB8
:10454000331F220F331FF901EA51F74EE590F49023
:10455000F901E651F74EC591D4918E159F0554F39C
:10456000A42FC817D9070CF4C3CFF901E851F74EAF
:1045700005911491F901E451F74EC590D490BC0116
:104580006E197F09072E000C880B990B0E94D6EE3E
:104590004B015C01B601601B710B072E000C880BF0
:1045A000990B0E94D6EE9B01AC01C501B4010E949B
:1045B00035EF4B015C01BE016E197F09072E000C1F
:1045C000880B990B0E94D6EE9B01AC01C501B4018A
:1045D0000E9421F46B017C01B801110F880B990B2B
:1045E0000E94D6EE9B01AC01C701B6010E9427F3E1
:1045F00094CF0F930FB70F9300916E000B7F009332
:104600006E0078940F930BB70F930CB70F921F9215
:104610002F933F934F935F936F937F938F939F93CA
:10462000AF93BF93EF93FF9311240E94FD41FF913D
:10463000EF91BF91AF919F918F917F916F915F911A
:104640004F913F912F911F900F900CBF0F910BBF77
:104650000F910460F89400936E000F910FBF0F91BB
:104660001895CF92DF92EF92FF92C090340AD090CB
:10467000350AE090360AF090370A6091210C70916B
:10468000220C66507109072E000C880B990B0E94B2
:10469000D6EEA70196010E9487F518160CF520E0CA
:1046A00030E040E050E4C701B6010E9427F30E94C9
:1046B0009AF47093110A6093100A0E943BB0605AFA
:1046C00075418F4F9F4F60930C0A70930D0A809332
:1046D0000E0A90930F0AFF90EF90DF90CF9008950D
:1046E00010920C0A10920D0A10920E0A10920F0AE4
:1046F000F2CF8F929F92AF92BF92CF92DF92EF92C2
:10470000FF920F931F93CF93DF93B0E4A0E06A2F43
:1047100070E0AB014B0F511D55954795A41711F053
:10472000B41319C0E4EEF9E165917491072E000C01
:10473000880B990B0E94D6EEDF91CF911F910F91BC
:10474000FF90EF90DF90CF90BF90AF909F908F90B1
:104750000895B42FDECF9A0121503109220F331F63
:10476000220F331FF901EA51F74EE590F490F90159
:10477000E651F74EC591D4918E159F0554F3A42FA1
:10478000C817D9070CF4C3CFF901E851F74E0591CA
:104790001491F901E451F74EC590D490BC016E1903
:1047A0007F09072E000C880B990B0E94D6EE4B0157
:1047B0005C01B601601B710B072E000C880B990B76
:1047C0000E94D6EE9B01AC01C501B4010E9435EFF9
:1047D0004B015C01BE016E197F09072E000C880B8E
:1047E000990B0E94D6EE9B01AC01C501B4010E9459
:1047F00021F46B017C01B801110F880B990B0E9409
:10480000D6EE9B01AC01C701B6010E9427F394CFFD
:1048100080911C0A90911D0A0E946A226093B60E34
:104820007093B70E8093B80E9093B90E80911A0AC8
:1048300090911B0A0E9479236093340A7093350A81
:104840008093360A9093370AA89510921E0A08950D
:104850000F931F938091380A813019F50E943BB065
:104860000091E8091091E9092091EA093091EB09DA
:10487000601B710B820B930B28EE33E040E050E09D
:104880000E94C3F26091E4097091E5098091E60904
:104890009091E709620F731F841F951F1F910F915D
:1048A00008956091EC097091ED098091EE09909165
:1048B000EF09D6CF1092380A1092E8091092E90950
:1048C0001092EA091092EB091092EC091092ED098E
:1048D0001092EE091092EF091092E4091092E50986
:1048E0001092E6091092E70908958091380A813004
:1048F000F1F08230C9F40E9428246093E409709397
:10490000E5098093E6099093E70981E08093380AEE
:104910000E943BB06093E8097093E9098093EA092B
:104920009093EB0981E008950E945A24EECF80E035
:1049300008958091380A813079F482E08093380AB2
:104940000E943BB06093EC097093ED098093EE09EF
:104950009093EF0981E0089580E008958091380AEE
:104960008150823070F41092380A0E943BB06093FC
:10497000EC097093ED098093EE099093EF0981E0C3
:10498000089580E008951092770A90E080E00E94F8
:1049900056B41092220C1092210C0E9431230E94D6
:1049A000AE2490E080E00E9456B41092310A5D98E7
:1049B0001092220C1092210C1092320A5C980895E9
:1049C0000F930FB70F9300916E000F930B7F00931F
:1049D0006E0000916F000D7F00936F000F930BB777
:1049E0000F930CB70F921F922F933F934F935F93A8
:1049F0006F937F938F939F93AF93BF93EF93FF93A7
:104A000011240E945025FF91EF91BF91AF919F918A
:104A10008F917F916F915F914F913F912F911F9057
:104A20000F900CBF0F910BBF0F910260F894009391
:104A30006F000F9100936E000F910FBF0F911895AB
:104A400080917E0980FF20C0459A8FEF80931501E9
:104A500080917E0981FF1BC0479A8FEF80931601DA
:104A600080917E0982FF16C02A988FEF80931701EC
:104A700080917E0983FF11C0289A8FEF80931801DF
:104A80000000000000000895459881E0DFCF4798BE
:104A900081E0E4CF2A9A81E0E9CF289881E0EECF47
:104AA0002F923F924F925F926F927F928F929F923E
:104AB000BF92CF92DF92EF92FF920F931F93CF930B
:104AC000DF93F8948FEF9FEF909389008093880095
:104AD0007AE0B72E312C212CECE78E2EE8E19E2EC9
:104AE00078948091C1099091C209A091C309B091B5
:104AF000C409892B8A2B8B2B09F0CCC18091C70963
:104B00008823D1F08091C5099091C6091092C709F8
:104B1000892B91F01092B8091092C6091092C5091C
:104B20009091FB0E8091FC0E981731F08091FC0E55
:104B30008F5F8F708093FC0E8091C5099091C6099C
:104B4000892B09F4A7C14091BD095091BE0960911C
:104B5000BF097091C0098091B9099091BA09A091DB
:104B6000BB09B091BC09C090AB09D12CF12CE12C50
:104B7000841B950BA60BB70BC816D906EA06FB06D5
:104B800010F4D701C601382F840F951FA61FB71F39
:104B90008093BD099093BE09A093BF09B093C0094B
:104BA00080918400909185004E9640919309509198
:104BB00094096091950970919609C0908309D090ED
:104BC0008409E0908509F09086094C0D5D1D6E1DED
:104BD0007F1D4093930950939409609395097093B6
:104BE000960977FD1CC05F9AC090D409D090D50972
:104BF000E090D609F090D70920911501422F220F9D
:104C0000550B660B770B4C0D5D1D6E1D7F1D409384
:104C1000D4095093D5096093D6097093D709409170
:104C20009709509198096091990970919A09C090DB
:104C30008709D0908809E0908909F0908A094C0D85
:104C40005D1D6E1D7F1D40939709509398096093D9
:104C5000990970939A0977FD1CC0469AC090D809AB
:104C6000D090D909E090DA09F090DB092091160183
:104C7000422F220F550B660B770B4C0D5D1D6E1DE1
:104C80007F1D4093D8095093D9096093DA09709336
:104C9000DB0940919B0950919C0960919D0970919D
:104CA0009E09C0908B09D0908C09E0908D09F090FE
:104CB0008E094C0D5D1D6E1D7F1D40939B09509309
:104CC0009C0960939D0970939E0977FD1CC02B9AE7
:104CD000C090DC09D090DD09E090DE09F090DF099A
:104CE00020911701422F220F550B660B770B4C0DAD
:104CF0005D1D6E1D7F1D4093DC095093DD0960939F
:104D0000DE097093DF0940919F095091A0096091DD
:104D1000A1097091A209C0908F09D0909009E090EC
:104D20009109F09092094C0D5D1D6E1D7F1D409301
:104D30009F095093A0096093A1097093A20977FD80
:104D40001CC0299AC090E009D090E109E090E209E6
:104D5000F090E30920911801422F220F550B660BAA
:104D6000770B4C0D5D1D6E1D7F1D4093E009509328
:104D7000E1096093E2097093E30940918400509146
:104D8000850048175907C8F3409193095091940939
:104D9000609195097091960977FD15C0C0907F09C3
:104DA000D0908009E0908109F09082094C195D094A
:104DB0006E097F0940939309509394096093950974
:104DC000709396095F984091970950919809609166
:104DD000990970919A0977FD15C0C0907F09D0900C
:104DE0008009E0908109F09082094C195D096E09F3
:104DF0007F0940939709509398096093990970939C
:104E00009A09469840919B0950919C0960919D098F
:104E100070919E0977FD15C0C0907F09D0908009E0
:104E2000E0908109F09082094C195D096E097F09B3
:104E300040939B0950939C0960939D0970939E0930
:104E40002B9840919F095091A0096091A109709100
:104E5000A20977FD15C0C0907F09D0908009E0902D
:104E60008109F09082094C195D096E097F09409310
:104E70009F095093A0096093A1097093A2092998F2
:104E8000315041F0409184005091850048175907F6
:104E9000C8F38ACE8091C1099091C209A091C3093B
:104EA000B091C409892B8A2B8B2B09F025C4E09182
:104EB000C509F091C609309709F486C48091BD09EF
:104EC0009091BE09A091BF09B091C0094091B90964
:104ED0005091BA096091BB097091BC09841795077C
:104EE000A607B70708F46EC01092B8091092C60959
:104EF0001092C5099091FB0E8091FC0E981709F451
:104F000063C48091FC0E8F5F8F708093FC0E60ED08
:104F1000C62E67E0D62EE12CF12C8091C509909128
:104F2000C609892B09F0E0C30E94A9189093C6090D
:104F30008093C509892B09F4D7C3C091C509D091C5
:104F4000C609888183FF92C28D899E89AF89B88DF9
:104F50008093D4099093D509A093D609B093D7092B
:104F6000898D9A8DAB8DBC8D8093D8099093D9098A
:104F7000A093DA09B093DB098D8D9E8DAF8DB8A11A
:104F80008093DC099093DD09A093DE09B093DF09DB
:104F900089A19AA1ABA1BCA18093E0099093E109FA
:104FA000A093E209B093E3099091FB0E8091FC0E6F
:104FB000981709F4B9CF8091FC0E8F5F8F708093A2
:104FC000FC0EB2CF4091B4095091B5096091B60979
:104FD0007091B709481759076A077B0708F4D9C0C9
:104FE0008091B0099091B109A091B209B091B30933
:104FF00042A953A964A975A9CC27859FD12D969F55
:105000009001A69F300DA59F200D311D869FD00DCC
:10501000211D3C1F959FD00D211D3C1FA49FD00D2D
:10502000211D3C1F949FD10D2C1F3C1FD6952C1F7A
:105030003C1F789F200D311D799F300D112443AD09
:1050400054AD65AD76AD420F531F611D711D409388
:10505000AC095093AD096093AE097093AF09C7A82E
:10506000D0ACE1ACF2ACC416D506E606F70640F4C7
:10507000C092AC09D092AD09E092AE09F092AF09AE
:105080004090AC095090AD096090AE097090AF09A6
:1050900020E638E141E0F901C590D590E590F49023
:1050A000C414D504E604F70450F476946794579436
:1050B0004794440F2C5F3F4F8216930661F740934D
:1050C000AB0920E2421651046104710428F420E285
:1050D000422E512C612C712C40E2441A5108610877
:1050E0007108411478E057066104710408F42EC079
:1050F000F4E05F9E90011124205A3B4EF901329654
:1051000045915491F42DEE27F59FB001F49F610D68
:105110007E1F06946E1F7E1F1124AB0170E060E0BD
:10512000F901C590D490F12CE12CC41AD50AE60AF5
:10513000F70A8C0D9D1DAE1DBF1D8093B009909385
:10514000B109A093B209B093B309E7CEB301A201AC
:1051500076956795579547959A012C7F205A3F4E33
:10516000F901C590D490F901329645915491242DBE
:105170002770422E449E9001459E300D112403E07D
:10518000369527950A95E1F7C21AD30AF12CE12C3E
:10519000D0CF4091A7095091A8096091A9097091B9
:1051A000AA09481759076A077B0708F0CFC0809102
:1051B000A3099091A409A091A509B091A60942A9BB
:1051C00053A964A975A92227859F312D969F600157
:1051D000A69FD00CA59FC00CD11C869F300DC11C72
:1051E000D21E959F300DC11CD21EA49F300DC11C34
:1051F000D21E949F310DC21ED21E3695C21ED21EE3
:10520000789FC00CD11C799FD00C1124F12CE12C7B
:105210004091AC095091AD096091AE097091AF0910
:10522000FF964080518062807380C416D506E606E2
:10523000F70658F44C195D096E097F0944165506A6
:105240006606770610F42A013B0120E638E141E0CA
:10525000F901C590D590E590F490C414D504E60406
:10526000F70450F47694679457944794440F2C5F56
:105270003F4F8216930661F74093AB0940E2441614
:1052800051046104710428F4C0E24C2E512C612CAD
:10529000712C70E2471A5108610871084114F8E056
:1052A0005F066104710408F42EC044E0549E90012E
:1052B0001124205A3B4EF901329645915491F42D18
:1052C000EE27F59FB001F49F610D7E1F06946E1FBF
:1052D0007E1F1124AB0170E060E0F901C590D4900D
:1052E000F12CE12CC41AD50AE60AF70A8C0D9D1D93
:1052F000AE1DBF1D8093A3099093A409A093A50997
:10530000B093A6090ACEB301A20176956795579589
:1053100047959A012C7F205A3F4EF901C590D490B1
:10532000F901329645915491242D2770422E449EC6
:105330009001459E300D1124F3E036952795FA959E
:10534000E1F7C21AD30AF12CE12CD0CF80911A01D7
:1053500090911B01A0911C01B0911D01B7FF5BC092
:10536000C7A8D0ACE1ACF2AC80E698E121E0FC014A
:1053700045915591659174914C155D056E057F05BC
:1053800048F4F694E794D794C794220F04968816AD
:10539000990669F72093AB0940E2C416D104E104F1
:1053A000F10428F460E2C62ED12CE12CF12C70E23D
:1053B000C71AD108E108F108C11488E0D806E10451
:1053C000F10408F431C0A4E0DA9EC0011124805A2F
:1053D0009B4EFC01329625913491BC2D6627B39FDC
:1053E000A001B29F410D561F0694461F561F11245F
:1053F00070E060E0FC0185919491B0E0A0E0841B36
:10540000950BA60BB70B80931A0190931B01A093E9
:105410001C01B0931D01C0901A01D0901B01E090B7
:105420001C01F0901D0179CDD701C601B695A79555
:10543000979587958C7F805A9F4EFC0125913491DA
:10544000FC01329645915491FC2DF770F49FC001F8
:10545000F59F900D112453E0969587955A95E1F7A5
:10546000281B390BC901B0E0A0E0CDCF4D885E8884
:105470006F88788C81E0411451046104710409F44F
:1054800080E0C98CDA8CEB8CFC8CC114D104E10473
:10549000F10409F082604D8D5E8D6F8D78A141150C
:1054A00051056105710509F084608093B809109277
:1054B000A3091092A4091092A5091092A6091092AE
:1054C000B0091092B1091092B2091092B3098DA1DE
:1054D0009EA1AFA1B8A58093B9099093BA09A093F2
:1054E000BB09B093BC09002711279801081B190BB1
:1054F0002A0B3B0B00939F091093A0092093A1094D
:105500003093A20900939B0910939C0920939D0955
:1055100030939E0900939709109398092093990955
:1055200030939A0900939309109394092093950955
:1055300030939609440C551C661C771C40928309D5
:10554000509284096092850970928609CC0CDD1C0A
:10555000EE1CFF1CC0928709D0928809E09289094D
:10556000F0928A09440F551F661F771F40938B09DD
:1055700050938C0960938D0970938E0949A15AA1AB
:105580006BA17CA1440F551F661F771F40938F09A5
:10559000509390096093910970939209880F991F15
:1055A000AA1FBB1F80937F0990938009A093810954
:1055B000B09382091092BD091092BE091092BF09E2
:1055C0001092C0098AA59BA5ACA5BDA58093B4097E
:1055D0009093B509A093B609B093B7098EA59FA57E
:1055E000A8A9B9A98093A7099093A809A093A9098C
:1055F000B093AA0929A53EA980917E09381309C054
:1056000040911901822F022E000C990B48171906A0
:1056100031F030937E09209319010E9420250E94C9
:10562000FF188FEF9FEFDC0180931A0190931B010D
:10563000A0931C01B0931D014BAD5CAD6DAD7EAD73
:105640004093AC095093AD096093AE097093AF09D4
:1056500080E698E121E0FC01C590D590E590F490BA
:10566000C416D506E606F70648F47695679557956D
:105670004795220F04968816990669F72093AB097F
:10568000403251056105710520F440E250E060E0D0
:1056900070E04052510961097109411598E05907BC
:1056A0006105710508F46EC0A4E05A9FC001112481
:1056B000805A9B4EFC01329625913491AA27439F34
:1056C000F001429FE10DFA1F0694EA1FFA1F112410
:1056D000AF0170E060E0FC01C590D490F12CE12CAA
:1056E000C41AD50AE60AF70AC092C109D092C209C3
:1056F000E092C309F092C4098091C1099091C20956
:10570000A091C309B091C409AC01BD010097F1E0BB
:10571000AF07B10520F04FEF5FEF60E070E0841B52
:10572000950BA60BB70B8093C1099093C209A09368
:10573000C309B093C409F8948091840090918500C6
:105740004096BA94BB2009F43DC0240E351E28169D
:10575000390608F4C5C930928900209288007894EF
:10576000DF91CF911F910F91FF90EF90DF90CF903D
:10577000BF909F908F907F906F905F904F903F90E1
:105780002F900895DB01CA01B695A7959795879547
:105790008C7F805A9F4EFC01C590D490FC013296BC
:1057A000259134914770429FC001439F900D112471
:1057B00033E0969587953A95E1F7C81AD90AF12C06
:1057C000E12C92CF1C01C7CF80EDC82E87E0D82EE8
:1057D000E12CF12CA9CBCF92DF92EF92FF920F93A5
:1057E0001F93CF93DF938C01EB0170E060E00E9488
:1057F0002EAF87FD8CC0C03282E0D8070CF043C0CA
:10580000D80112968C91129728E532E0281B3109B5
:1058100087FD3395220F331F220F331F032E000CF9
:10582000440B550B11968C9198E8C92ED12CC81AAF
:10583000D10887FDD394CC0CDD1CCC0CDD1C0D2CC9
:10584000000CEE08FF0860E070E0CB01D7FD0AC055
:10585000BE01C53BD10514F064EB70E0072E000CCF
:10586000880B990B2C193D094E095F090E94B3F270
:1058700024EB30E040E050E00E94E5F2C20ED31E7F
:10588000E41EF51EE601D801EC91EC3008F5119606
:105890002C91119788E890E0821B910927FD939540
:1058A000880F991F880F991FC817D907FCF4029712
:1058B0004FB7F8942E2F30E0F901EE0FFF1FE20FE3
:1058C000F31FEF5DF04F880F991F928381834FBFC5
:1058D00062E370E080E090E0DF91CF911F910F9143
:1058E000FF90EF90DF90CF900C9432B412962C91F1
:1058F00088E592E0821B910927FD9395880F991FF7
:10590000880F991FC817D90794F6CE01D0CFDF9121
:10591000CF911F910F91FF90EF90DF90CF9008955E
:105920001F920F920FB60F9211240BB60F922F9366
:105930003F934F935F936F937F938F939F93AF9317
:10594000BF93EF93FF938091AD0487FF27C0109220
:105950009500109294008091AD048F5F8093AD0408
:105960008091AD04082E000C990B2091450F28174B
:10597000190629F024F08091AD048C30DCF180917F
:10598000940090919500049680349C4908F47DC061
:105990008091940090919500049679C08091AD0417
:1059A000082E000C990B2091450F2817190699F223
:1059B00094F2E091AD048E2FEE0F990BFC01EE0FE7
:1059C000FF1FE80FF91FEF5DF04F808186FFC3CF07
:1059D000E091AD048E2FEE0F990BFC01EE0FFF1F2F
:1059E000E80FF91FEF5DF04F808160E08F730E9438
:1059F000CFAEB1CF2091940030919500E091AD04ED
:105A00008E2FEE0F990BFC01EE0FFF1FE80FF91F11
:105A1000EF5DF04F81819281820F931F90939900E7
:105A200080939800E091AD048E2FEE0F990BFC014E
:105A3000EE0FFF1FE80FF91FEF5DF04F808186FF2B
:105A400011C0E091AD048E2FEE0F990BFC01EE0F0B
:105A5000FF1FE80FF91FEF5DF04F808161E08F734A
:105A60000E94CFAEFF91EF91BF91AF919F918F9127
:105A70007F916F915F914F913F912F910F900BBE4E
:105A80000F900FBE0F901F90189580E49CE99093A3
:105A90009900809398008FEF8093AD04E3CFCF936C
:105AA000DF9390916F00292F227091FF05C0909194
:105AB0006F009D7F90936F0094E0899FA001112457
:105AC000FA01E853F64F608171818281938122232C
:105AD00029F020916F00226020936F00EA01C15CE1
