:100000000C9452190C947C190C947C190C947C1946
:100010000C947C190C947C190C947C190C947C190C
:100020000C947C190C947C190C947C190C947C19FC
:100030000C947C190C94A75D0C947C190C947C197D
:100040000C947C190C94BDBC0C940C9B0C947C19E6
:100050000C945F540C947C190C947C190C947C19AE
:100060000C947C190C947C190C947C190C947C19BC
:100070000C947C190C947C190C947C190C947C19AC
:100080000C9417650C947C190C947C19F398F698D1
:10009000E998ED980D990D99FA98FE9804990899A8
:1000A0007B9A809A859A8F9ABD9ABD9A999AA19ABD
:1000B000A99AB39A4E414E494E495459494E46CD9C
:1000C000CCCC3D0AD7233C17B7D13877CC2B32950F
:1000D00095E6241FB14F0A000020410000C84200ED
:1000E000401C4620BCBE4CCA1B0E5AAEC59D7400B7
:1000F000407A10F35A00A0724E18090010A5D4E8F7
:100100000000E87648170000E40B54020000CA9A89
:100110003B000000E1F505000080969800000040DB
:10012000420F000000A08601000000102700000020
:1001300000E803000000006400000000000A000066
:100140000000000100000000002C76D888DC674F1A
:100150000823DFC1DFAE59E1B1B796E5E3E453C64A
:100160003AE651997696E8E6C28426EB898C9B6242
:10017000ED407C6FFCEFBC9C9F40F2BAA56FA5F4EC
:1001800090055A2AF75C936B6CF9676DC11BFCE014
:10019000E40D47FEF520E6B500D0ED902E03009467
:1001A0003577050080841E080000204E0A000000FC
:1001B000C80C333333330F986E12831141EF8D2106
:1001C00014893BE65516CFFEE6DB18D1844B381B6D
:1001D000F77C1D901DA4BBE424203284725E228132
:1001E00000C9F124ECA1E53D27434F4D4D554E4943
:1001F000434154494F4E0044525952554E004552C6
:10020000524F525300494E464F004543484F004716
:100210003238205A20466F7262696464656E0A0043
:10022000473238205A20466F7262696464656E00F6
:10023000205A3A200020593A200042656420583A5A
:1002400020004D65736820706F696E742063616E65
:100250006E6F74206265207265736F6C7665640AD8
:10026000003344205072696E746572207265616457
:10027000792E00526573756D696E67207072696EB4
:100280007400436C69636B20746F20726573756DC5
:10029000652E2E2E005344207072696E74696E674D
:1002A000206279746520004E6F7420534420707270
:1002B000696E74696E670A0046696C652064656CD6
:1002C000657465643A0044656C6574696F6E206698
:1002D00061696C65642C2046696C653A20006F701A
:1002E000656E206661696C65642C2046696C653AB0
:1002F00020002569730025696D2025697300256933
:10030000682025696D2025697300256964202569A9
:10031000682025696D202569730025697920256984
:1003200064202569682025696D2025697300507255
:10033000696E742074696D653A200050726F74653F
:10034000637465642050696E0A0045787472756440
:100350006572202573000A020502FE01F701E9011A
:100360006F66660044454255473A004B494C4C4540
:10037000442E200042656420646F6E652E00205775
:100380003A004265642048656174696E672E0043D7
:1003900061703A454D455247454E43595F50415271
:1003A0005345523A300A004361703A434153455F26
:1003B0004C494748545F4252494748544E4553536D
:1003C0003A300A004361703A544F47474C455F4CFE
:1003D00049474854533A300A004361703A534F46F4
:1003E00054574152455F504F5745523A300A0043E7
:1003F00061703A4C4556454C494E475F4441544123
:100400003A310A004361703A5A5F50524F42453ABE
:10041000310A004361703A4155544F4C4556454CA2
:100420003A310A004361703A5052494E545F4A4F84
:10043000423A310A004361703A50524F4752455395
:10044000533A300A004361703A4155544F52455077
:100450004F52545F54454D503A310A004361703A4F
:10046000454550524F4D3A310A004649524D574189
:1004700052455F4E414D453A4D61726C696E204365
:100480007265616C69747920334420284372656118
:100490006C69747933442920534F555243455F4367
:1004A0004F44455F55524C3A68747470733A2F2F1D
:1004B0006769746875622E636F6D2F4D61726C6928
:1004C0006E4669726D776172652F4D61726C696EEF
:1004D0002050524F544F434F4C5F56455253494F53
:1004E0004E3A312E30204D414348494E455F5459D4
:1004F00050453A3344205072696E746572204558F5
:100500005452554445525F434F554E543A3120554D
:100510005549443A63656465326132662D34316110
:10052000322D343734382D396231322D633535630D
:1005300036326633363766660A002F2F20007A5F20
:100540006D696E3A2000795F6D696E3A2000785FC0
:100550006D696E3A20005265706F7274696E672023
:10056000656E6473746F70207374617475730A00C0
:100570004D31343520533C696E6465783E206F758B
:1005800074206F662072616E67652028302D3129D6
:100590000A0053657474696E672054726176656CE5
:1005A00020416363656C65726174696F6E3A200007
:1005B00053657474696E6720526574726163742048
:1005C000416363656C65726174696F6E3A200053B4
:1005D000657474696E67205072696E74204163633C
:1005E000656C65726174696F6E3A2000536574744E
:1005F000696E67205072696E7420616E6420547257
:100600006176656C20416363656C65726174696FC6
:100610006E3A2000205A00205900580020204D61D9
:10062000783A2000205A00205900580020204D69B7
:100630006E3A20004F6E20004F666600536F66745E
:1006400020656E6473746F70733A200000010F159B
:100650000E12FF16170E13FF03021A14FFFFFF0CF2
:1006600004FFFFFF01000EFFFF0C190DFF18FFFF35
:10067000FFFFFFFF206F7574206F662072616E6749
:10068000650A00536572766F20003A20002053659A
:1006900072766F200020643A0020693A0020703A98
:1006A0000043290A0061626C656420286D696E2030
:1006B00074656D702000436F6C642065787472758A
:1006C00064657320617265200023646566696E65E8
:1006D000202044454641554C545F4B642000236420
:1006E0006566696E65202044454641554C545F4B14
:1006F00069200023646566696E6520204445464193
:10070000554C545F4B702000504944204175746F24
:1007100074756E652066696E697368656421205022
:10072000757420746865206C617374204B702C2084
:100730004B6920616E64204B6420636F6E7374613B
:100740006E74732066726F6D2062656C6F772069BE
:100750006E746F20436F6E66696775726174696F3E
:100760006E2E680A00504944204175746F74756E8E
:1007700065206661696C6564212074696D656F75BB
:10078000740A00504944204175746F74756E652079
:100790006661696C6564212054656D706572617471
:1007A00075726520746F6F20686967680A00204B56
:1007B000643A2000204B693A2000204B703A200018
:1007C0000A20436C617373696320504944200A0016
:1007D0002054753A2000204B753A2000206D617836
:1007E0003A2000206D696E3A200020643A200020F3
:1007F000626961733A20004F66660A00466164656B
:10080000204865696768742000426564204C6576FD
:10081000656C696E6720004661696C656420746F61
:1008200020656E61626C6520426564204C6576656A
:100830006C696E670A004D65736820706F696E742D
:100840002063616E6E6F74206265207265736F6CD9
:100850007665640A004D34323120696E636F7272BE
:1008600065637420706172616D6574657220757363
:100870006167650A003A20007A5F6D696E3A202050
:100880002D3230207A5F6D61783A20203230005A64
:10089000204F666673657420004E6F206361736538
:1008A000206C696768740A00416374697665204545
:1008B000787472756465723A2000556E6B6E6F774E
:1008C0006E20636F6D6D616E643A2022004B494C5F
:1008D0004C45442E2000202D20496E76616C6964C1
:1008E000206578747275646572206E756D626572CC
:1008F00020210A0062696E004D31313720494E5681
:10090000414C494420444154412E004D313137205F
:100910005072696E74696E672E2E2E004730205A11
:100920002573004732382058302059300047302096
:100930005A257300473932205A2573204525730004
:1009400062696E002020506C616E6E657242756641
:1009500066657242797465733A2000204672656557
:10096000204D656D6F72793A2000436F6D70696C30
:1009700065643A204F637420313220323031380AB6
:1009800000207C20417574686F723A2028456E649F
:1009900065722D3350726F424C546F756368290A2B
:1009A00000323031372D31302D31302031323A3074
:1009B0003000204C61737420557064617465643A32
:1009C0002000437265616C6974792033440A004DDC
:1009D00061726C696E0020536F6674776172652076
:1009E00052657365740A00205761746368646F67A9
:1009F0002052657365740A002042726F776E206F13
:100A000075742052657365740A00204578746572A8
:100A10006E616C2052657365740A00506F77657261
:100A200055700A0073746172740A006572726F7295
:100A30002077726974696E6720746F2066696C65CF
:100A40000A00456E6473746F7073202563202563FC
:100A500020256320256300205A3A0020593A0020BF
:100A6000583A00656E6473746F7073206869743AE5
:100A70002000446F6E6520736176696E6720666939
:100A80006C652E0A004D32390000060900FE070190
:100A900092032120FFFF08FF07FF0000000600006F
:100AA0000107070602008080808080008003020228
:100AB000060105A0A00507070600005050F850F8F1
:100AC00050500507070600002078A07028F0200588
:100AD0000707060000C0C810204098180507070641
:100AE00000006090A040A89068020303060104C0C3
:100AF00040800307070601002040808080402003DB
:100B000007070601008040202020408005050506DB
:100B1000000120A870A8200505050600012020F886
:100B200020200203030602FFC040800501010600E9
:100B300003F8020202060200C0C005050506000116
:100B40000810204080050707060000708888888804
:100B5000887003070706010040C040404040E005A0
:100B60000707060000708808708080F805070706F0
:100B70000000F81020100808F00507070600001014
:100B8000305090F81010050707060000F880F008B4
:100B9000088870050707060000708080F08888705C
:100BA000050707060000F808102020202005070789
:100BB00006000070888870888870050707060000A6
:100BC00070888878080870020505060200C0C00019
:100BD000C0C00206060602FFC0C000C04080040775
:100BE0000706000010204080402010050303060087
:100BF00002F800F80407070601008040201020409A
:100C000080050707060000708808102000200507EF
:100C10000706000070880868A8A870050707060086
:100C200000708888F8888888050707060000F08823
:100C300088F08888F00507070600007088808080AB
:100C40008870050707060000F08888888888F00506
:100C50000707060000F88080F08080F80507070687
:100C60000000F88080F08080800507070600007093
:100C70008880B8888870050707060000888888F88B
:100C80008888880107070602008080808080808035
:100C900005070706000038101010109060050707C0
:100CA0000600008890A0C0A09088050707060000F5
:100CB000808080808080F805070706000088D8A81B
:100CC000888888880507070600008888C8A898884B
:100CD00088050707060000708888888888700507DF
:100CE00007060000F08888F080808005070706006E
:100CF0000070888888A89068050707060000F088BB
:100D000088F0A090880507070600007880807008AA
:100D100008F0050707060000F82020202020200505
:100D200007070600008888888888887005070706F6
:100D300000008888888888502005070706000088FA
:100D400088888888A85005070706000088885020F2
:100D500050888805070706000088888850202020D2
:100D6000050707060000F80810204080F803070771
:100D7000060100E08080808080E005050506000116
:100D80008040201008030707060100E020202020F3
:100D900020E0050303060004205088050101060039
:100DA00000F8020202060205804005050506000063
:100DB00070087888780507070600008080B0C8882A
:100DC00088F005050506000070808088700507071B
:100DD0000600000808689888887805050506000060
:100DE0007088F880700507070600003048E0404032
:100DF00040400506060600FF7088887808700507E1
:100E0000070600008080B0C88888880107070602AE
:100E100000800080808080800308080601FF200099
:100E200020202020A040040707060000808090A01A
:100E3000C0A090030707060100C04040404040E0CA
:100E4000050505060000D0A8A8A8A8050505060008
:100E500000B0C88888880505050600007088888865
:100E6000700506060600FFF08888F08080050606FB
:100E70000600FF788888780808050505060000B098
:100E8000C880808005050506000070807008F004A9
:100E900007070600004040E04040403005050506D9
:100EA00000008888889868050505060000888888FD
:100EB00050200505050600008888A8A850050505EE
:100EC00006000088502050880506060600FF888826
:100ED00088780870050505060000F8102040F80322
:100EE0000707060100204040804040200107070618
:100EF00002008080808080808003070706010080D8
:100F00004040204040800502020600026890000038
:100F100000060000000000060000000000060000BF
:100F200000000006000000000006000000000006AF
:100F300000000000000600000000000600000000A5
:100F4000000600000000000600000000000600008F
:100F5000000000060000000000060000000000067F
:100F60000000000000060000000000060000000075
:100F7000000600000000000600000000000600005F
:100F8000000000060000000000060000000000064F
:100F90000000000000060000000000060000000045
:100FA000000600000000000600000000000600002F
:100FB000000000060000000000060000000000061F
:100FC0000000000000060000000000060000000015
:100FD00000060000000000060000010707060200EE
:100FE000800080808080800507070600002070A8B0
:100FF000A0A87020050707060000304040E04050E0
:10100000A8050505060000887050708805070706CA
:101010000000885020F820F8200107070602008011
:10102000808000808080050808060000304820503D
:1010300050209060030101060107A0050707060084
:1010400000F888B8B8B888F80507070600017008E6
:1010500078887800F80505050600012850A050287A
:10106000050303060001F808080202020602064012
:1010700080050707060000F888A88898A8F80501E9
:1010800001060006F8040404060003609090600561
:1010900007070600002020F8202000F804050506B8
:1010A000000360902040F0030505060003E020E007
:1010B00020E002020206020640800508080600FF42
:1010C0008888888898E88080050707060000789857
:1010D0009878181818020202060202C0C002020222
:1010E0000602FF408003050506000340C04040E0C3
:1010F000050707060001708888887000F805050557
:10110000060001A0502850A005070706000088909F
:10111000A858B808080507070600008890B848983E
:101120002038050808060000C040C048D838080824
:101130000507070600002000204080887005080889
:101140000600004020007088F8888805080806001E
:10115000001020007088F888880508080600002024
:1011600050007088F888880508080600006890001C
:101170007088F88888050808060000500070888884
:10118000F888880508080600002050207088F88834
:10119000880507070600003860A0B8E0A0B8050879
:1011A000080600FF708880808870206005080806A7
:1011B0000000402000F880F080F8050808060000D4
:1011C000081000F880F080F805080806000020509C
:1011D00000F880F080F80507070600005000F8804E
:1011E000F080F8030808060100804000E04040401D
:1011F000E0030808060100204000E0404040E00312
:10120000080806010040A000E0404040E003070756
:10121000060100A000E0404040E00507070600008E
:10122000704848E8484870050808060000689000C3
:1012300088C8A8988805080806000040207088889B
:101240008888700508080600001020708888888843
:101250007005080806000020500070888888700516
:1012600008080600006890007088888870050808E3
:101270000600005000708888888870050505060003
:101280000188502050880508080600FF1070A8A8A3
:10129000A8A87040050808060000402088888888B3
:1012A00088700508080600001020888888888870E3
:1012B0000508080600002050008888888870050806
:1012C000080600005000888888888870050808068D
:1012D000000010208850202020200509090600FF6A
:1012E000C040704848704040E00408080601FF60B4
:1012F0009090A09090E08005080806000040200033
:10130000700878887805080806000010200070082A
:101310007888780508080600002050007008788852
:10132000780508080600006890007008788878053D
:10133000070706000050007008788878050808063E
:101340000000205020700878887805060606000006
:10135000D02878A0A8500506060600FF7080887087
:1013600020600508080600004020007088F88070A2
:101370000508080600001020007088F88070050835
:10138000080600002050007088F8807005070706E6
:10139000000050007088F880700308080601008083
:1013A000400040C04040E003080806010020400023
:1013B00040C04040E003080806010040A00040C0D3
:1013C0004040E0030707060100A00040C04040E0A5
:1013D000050707060000A040A010788870050808DF
:1013E000060000689000B0C88888880508080600D4
:1013F00000402000708888887005080806000010EA
:1014000020007088888870050808060000205000B9
:101410007088888870050808060000689000708849
:10142000888870050707060000500070888888705B
:101430000505050600012000F80020050707060045
:10144000FF1070A8A8A870400508080600004020FA
:101450000088888898680508080600001020008821
:101460008888986805080806000020500088888849
:101470009868050707060000500088888898680566
:1014800009090600FF102000888888F80870040702
:10149000070601FFC04060506040E00508080600F4
:1014A000FF500088888878087053544F5050454446
:1014B0002E20005072696E7465722073746F7070A4
:1014C00065642064756520746F206572726F727335
:1014D0002E2046697820746865206572726F7220CC
:1014E000616E6420757365204D39393920746F2021
:1014F000726573746172742E202854656D70657204
:1015000061747572652069732072657365742E202D
:101510005365742069742061667465722072657306
:1015200074617274696E67290A0053544F502063C6
:10153000616C6C65642062656361757365206F66BC
:1015400020424C546F756368206572726F72202D53
:1015500020726573746172742077697468204D39E4
:1015600039390A004730204633363030205831317F
:101570003520593131350042696C696E65617220E0
:101580004C6576656C696E6720477269643A0A003B
:10159000536C6565702E2E2E0020706F7369746910
:1015A0006F6E206F7574206F662072616E67652E96
:1015B0000A003F50726F62652000486F6D652025FC
:1015C00073257325732066697273740020666972CF
:1015D00073740A005A0059005800486F6D65200066
:1015E00052756E6E696E6720696E204452592D5295
:1015F000554E206D6F64650A00473239204175747D
:101600006F20426564204C6576656C696E670A00E0
:1016100028422961636B00284629726F6E74002886
:1016200052296967687400284C29656674003F2850
:1016300056296572626F7365206C6576656C2069EA
:101640007320696D706C61757369626C65202830F8
:101650002D34292E0A00426164205A2076616C756F
:10166000650A004E6F2062696C696E656172206761
:101670007269640A005072696E74207061757365D6
:10168000640047323820583020593000004730205D
:101690005A2573004D31303920532569004D3134BE
:1016A0003020532569004D31303620533235350016
:1016B0004D31303920532569004D313930205325C3
:1016C00069005072696E742061626F7274656400A3
:1016D000596573004E6F00526573756D65207072A9
:1016E000696E743F0053746F7720424C546F75637A
:1016F00068004D3238302050302053393000446576
:10170000706C6F7920424C546F756368004D3238AD
:10171000302050302053313000424C546F75636894
:101720002053656C662D54657374004D323830203B
:101730005030205331323000526573657420424C72
:10174000546F756368004D3238302050302053316B
:101750003630004D61696E004E6F20534420636146
:101760007264004368616E67652053442063617250
:1017700064004D3231005072696E742066726F6D74
:101780002053440053746F70207072696E7400525D
:101790006573756D65207072696E74004D3231002D
:1017A0005061757365207072696E740053746F7048
:1017B000207072696E7400526573756D6520707269
:1017C000696E7400496E69742E20534420636172FF
:1017D00064005061757365207072696E7400436FA8
:1017E0006E74726F6C005072657061726500547532
:1017F0006E6500496E666F2073637265656E0046A4
:101800006C6F7700466C6F7700466C6F77004661AF
:101810006E2073706565640046616E207370656547
:10182000640046616E207370656564004265640003
:10183000426564004E6F7A7A6C65004E6F7A7A6CFE
:10184000650053706565640053706565640053708E
:10185000656564004D61696E004E6F204C696E6570
:10186000204E756D626572207769746820636865C3
:10187000636B73756D2C204C617374204C696E65BD
:101880003A20004B494C4C45442E200053544F50B5
:101890005045442E20005072696E74657220737436
:1018A0006F707065642064756520746F2065727256
:1018B0006F72732E20466978207468652065727295
:1018C0006F7220616E6420757365204D393939203F
:1018D000746F20726573746172742E202854656D64
:1018E00070657261747572652069732072657365C5
:1018F000742E2053657420697420616674657220AB
:1019000072657374617274696E67290A004E6F2084
:10191000436865636B73756D2077697468206C69C3
:101920006E65206E756D6265722C204C617374203B
:101930004C696E653A2000636865636B73756D2052
:101940006D69736D617463682C204C617374204CF5
:10195000696E653A20004C696E65204E756D626552
:1019600072206973206E6F74204C617374204C690F
:101970006E65204E756D6265722B312C204C617343
:1019800074204C696E653A20004D313130004D3382
:1019900031004D383420582059205A2045005344F6
:1019A0002072656164206572726F720A00446F6E06
:1019B00065207072696E74696E672066696C650A6D
:1019C0000020496E76616C69642065787472756474
:1019D00065722000F4010000F401000064000000C2
:1019E000E803000000009643000096430000A0407A
:1019F0000000C8410000A0420000A0420000C8430F
:101A0000AE47B94220204D383531205A005A2D506A
:101A1000726F6265204F666673657420286D6D294C
:101A20003A0A0020440020490020204D3330312064
:101A300050005049442073657474696E67733A0AA4
:101A40000020460020420020480020204D3134353F
:101A50002053004D6174657269616C206865617422
:101A6000757020706172616D65746572733A0A00F9
:101A7000205A0020204D3432302053004175746FBD
:101A800020426564204C6576656C696E673A0A0091
:101A9000204500205A0020590020580020420020F4
:101AA000540020204D323035205300416476616E61
:101AB0006365643A20533C6D696E5F666565647268
:101AC0006174653E20543C6D696E5F747261766529
:101AD0006C5F66656564726174653E20423C6D6949
:101AE0006E5F7365676D656E745F74696D655F6D5C
:101AF000733E20583C6D61785F78795F6A65726BE0
:101B00003E205A3C6D61785F7A5F6A65726B3E2059
:101B1000453C6D61785F655F6A65726B3E0A0020C7
:101B2000540020520020204D3230342050004163B8
:101B300063656C65726174696F6E2028756E697477
:101B4000732F7332293A20503C7072696E745F6152
:101B50006363656C3E20523C726574726163745FAE
:101B6000616363656C3E20543C74726176656C5FA2
:101B7000616363656C3E0A00204500205A002059CD
:101B80000020204D3230312058004D6178696D754C
:101B90006D20416363656C65726174696F6E2028A6
:101BA000756E6974732F7332293A0A00204500203C
:101BB0005A0020590020204D3230332058004D610A
:101BC00078696D756D2066656564726174657320F2
:101BD00028756E6974732F73293A0A002045002016
:101BE0005A0020590020204D393220580053746586
:101BF00070732070657220756E69743A0A00202037
:101C00004D3230302044300A0020204D3230302018
:101C100044002044697361626C65640A0046696C23
:101C2000616D656E742073657474696E67733A00D4
:101C300020204D3134392043203B20556E69747388
:101C400020696E2043656C736975730A0020204714
:101C50003231202020203B20556E69747320696E3C
:101C6000206D6D0A0024F4D43050C38E20C2A240EF
:101C700017828B7011127A910D816CD90AA861E1DB
:101C800008C7586607615143061E4B5D05C145A74D
:101C9000041A411104093D9803713931034036DBC0
:101CA0000265339102D4305402802E1D02632CEE63
:101CB00001752AC501B028A001102781018F256474
:101CC000012B244B01E0223401AC211F018D200D9A
:101CD00001801FFC00841EED00971DDF00B81CD2A0
:101CE00000E61BC600201BBC00641AB200B219A893
:101CF000000A19A0006A189900D117910040178BAB
:101D000000B516840031167E00B31579003A1573BC
:101D100000C7146F0058146A00EE1366008813633E
:101D20000025135E00C7125B006C12570015125499
:101D300000C111510070114F0021114B00D6104904
:101D4000008D1047004610440002104200C00F40B2
:101D500000800F3E00420F3C00060F3B00CB0E38C8
:101D600000930E37005C0E3500270E3400F30D3261
:101D700000C10D3100900D3000600D2E00320D2D90
:101D800000050D2C00D90C2B00AE0C2900850C2968
:101D9000005C0C2700350C27000E0C2600E80B24F5
:101DA00000C40B2400A00B23007D0B23005A0B2141
:101DB00000390B2100180B2000F80A1F00D90A1E59
:101DC00000BB0A1E009D0A1D00800A1D00630A1C3C
:101DD00000470A1B002C0A1B00110A1A00F7091AF7
:101DE00000DD091900C4091900AB0919009209178F
:101DF000007B091800630917004C09160036091604
:101E000000200916000A091500F5081500E008145D
:101E100000CC081400B8081400A40814009008139B
:101E2000007D0812006B08130058081200460812C3
:101E300000340811002308110012081100010811D4
:101E400000F0071000E0071000D0071000C00710D6
:101E500000B0070F00A107100091070E0083070FC5
:101E60000074070F0065070E0057070E0049070EA4
:101E7000003B070D002E070E0020070D0013070D75
:101E80000006070D00F9060C00ED060D00E0060C3B
:101E900000D4060C00C8060C00BC060C00B0060CF2
:101EA00000A4060B0099060C008D060B0082060BA1
:101EB0000077060B006C060B0061060A0057060B44
:101EC000004C060A0042060A0038060A002E060ADE
:101ED0000024060A001A060A001006090007060A6E
:101EE00000FD050900F4050900EB050900E20509FC
:101EF00000D9050900D0050900C7050900BE05097C
:101F000000B5050800AD050800A50509009C0508F9
:101F100000940508008C050800840508007C05086D
:101F200000740508006C050700650508005D0507DD
:101F300000560508004E0507004705070040050844
:101F40000038050700310507002A050700230507AB
:101F5000001C050600160507000F0507000805060A
:101F60000002050700FB040600F5040700EE040666
:101F700000E8040600E2040700DB040600D50406BE
:101F800000CF040600C9040600C3040600BD040611
:101F900000B7040600B1040500AC040600A6040660
:101FA00000A00405009B04060095040500900406AB
:101FB000008A04050085040500800406007A0405F3
:101FC0000075040500700405006B04050066040537
:101FD00000610405005C0405005704050052040577
:101FE000004D04050048040500430405003E0404B8
:101FF000003A04050035040500300404002C0405F3
:102000000027040400230405001E0404001A04042D
:102010000016040500110404000D04040009040561
:10202000000404040000040400FC030400F803049A
:1020300000F4030400F0030400EC030400E80304CC
:1020400000E4030400E0030400DC030400D80304FC
:1020500000D4030400D0030400CC030400C803032D
:1020600000C503030024F404D9201BC40C5C0E98A3
:1020700004C4095F0265077101F405F900FB04B3AC
:102080000048048700C10369005803550003034555
:1020900000BE023A008402310053022A00290225C0
:1020A0000004022000E4011C00C8011900AF011760
:1020B00000980114008401130071011000610110E7
:1020C0000051010E0043010D0036010B002B010BE6
:1020D0000020010B00150109000C01090003010893
:1020E00000FB000800F3000800EB000700E4000616
:1020F00000DE000600D8000600D2000600CC000575
:1021000000C7000500C2000500BD000400B90004BE
:1021100000B5000400B1000400AD000400A90004F3
:1021200000A5000300A20003009F0004009B000321
:102130000098000300950002009300030090000344
:10214000008D0002008B0003008800020086000260
:102150000084000300810002007F0002007D000275
:10216000007B000200790002007700010076000287
:10217000007400020072000100710002006F000292
:10218000006D0001006C0002006A0001006900029D
:1021900000670001006600010065000100640002A4
:1021A000006200010061000100600001005F0002A8
:1021B000005D0001005C0001005B0001005A0001AD
:1021C00000590001005800010057000100560001AD
:1021D00000550001005400010053000000530001AD
:1021E000005200010051000100500001004F0001A9
:1021F000004E0000004E0001004D0001004C0001A7
:10220000004B0000004B0001004A000100490001A2
:10221000004800000048000100470001004600009F
:102220000046000100450000004500010044000197
:102230000043000000430001004200000042000192
:10224000004100000041000100400001003F00008B
:10225000003F0001003E0000003E0001003D000084
:10226000003D0001003C0000003C0000003C00017B
:10227000003B0000003B0001003A0000003A000172
:10228000003900000039000100380000003800006B
:102290000038000100370000003700010036000060
:1022A0000036000000360001003500000035000057
:1022B000003500010034000000340000003400014B
:1022C0000033000000330000003300010032000042
:1022D0000032000000320001003100000031000037
:1022E000003100010030000000300000003000012B
:1022F000002F0000002F0000002F0000002F000121
:10230000002E0000002E0000002E0001002D000015
:10231000002D0000002D0000002D0001002C000009
:10232000002C0000002C0000002C0001002B0000FD
:10233000002B0000002B0000002B0001002A0000F1
:10234000002A0000002A0000002A000100290000E5
:1023500000290000002900000029000000290001D8
:1023600000280000002800000028000000280000CD
:1023700000280001002700000027000000270000BF
:1023800000270000002700010026000000260000B2
:1023900000260000002600000026000100250000A5
:1023A0000025000000250000002500000025000099
:1023B000002500010024000000240000002400008B
:1023C000002400000024000100230000002300007E
:1023D0000023000000230000002300000023000071
:1023E0000023000100220000002200000022000063
:1023F0000022000000220000002200010021000055
:102400000021000000210000002100000021000048
:102410000021000000210001002000000020000039
:10242000002000000020000000200000002000002C
:102430000020000000200001001F0000001F00001D
:10244000001F0000001F0000001F0000001F000010
:10245000001F0001001E0000001E0000001E000002
:10246000001E0000004D383420582059205A2045C5
:10247000004573746570732F6D6D004573746570DE
:10248000732F6D6D005A73746570732F6D6D005AE4
:1024900073746570732F6D6D005973746570732F4D
:1024A0006D6D005973746570732F6D6D0058737482
:1024B0006570732F6D6D005873746570732F6D6D3B
:1024C000004D6F74696F6E0053746570732F6D6D7E
:1024D000004A65726B00416363656C657261746983
:1024E0006F6E0056656C6F63697479005A204F6691
:1024F00066736574005A204F666673657400436F97
:102500006E74726F6C0046696C2E204469612E00F7
:1025100046696C2E204469612E004F6666004F6E3E
:1025200020004520696E206D6D3300436F6E74721C
:102530006F6C0043616E6E6F7420656E74657220FF
:102540007375626469723A2000022E2E0001526592
:102550006672657368004D61696E004572726F72D4
:102560002077726974696E6720746F2045455052F8
:102570004F4D210A0043616E6E6F74206F70656E5F
:102580002073756264697220002E0A006F70656E98
:10259000206661696C65642C2046696C653A200090
:1025A00057726974696E6720746F2066696C653A4A
:1025B0002000656E7175657565696E67202200651E
:1025C00063686F3A0025753A253032750025303240
:1025D000753A253032750025756420253032753AFC
:1025E00025303275005A00590058000920000000BB
:1025F00000000000000000000000003FFFF0F802B3
:102600000000600000000000000000380070480278
:10261000000090000000000000000030FC30438EFD
:10262000668010000000000000000020FC107252C4
:10263000933E60000000000000000020781042522D
:10264000F2001000000000000000002030104A528C
:1026500082009000000000000000002C00D0FA4E24
:102660007700601FE00000104100002E31D0000014
:102670000000003FF00000082080002F7BD0000009
:102680000000003FF00000082080002F7BD0007C7D
:102690000000003FF00000104100002E31D0002269
:1026A0000000001FE00000208200002C00D000226B
:1026B0000000001FE0000041040000203010002254
:1026C0006C70003FF0000041040000207810003CD6
:1026D0003088003FF000002082000020FC10002025
:1026E0002088003FF000001041000030FC30002046
:1026F0002088000FC000000000000038007000209B
:1027000020880007800000FFFFC0003FFFF000703E
:1027100078700003000000FFFFC000000000000010
:1027200000000000000000000000003FFFF0F80281
:102730000000600000000000000000380070480247
:102740000000900000000000000000338730438E3E
:102750006680100000000000000000278790725281
:10276000933E6000000000000000002F87D042521E
:10277000F2001000000000000000002F87D04A5235
:1027800082009000000000000000002F03D0FA4EED
:102790007700601FE000000820800020301000005B
:1027A0000000003FF00000041040002078100000FE
:1027B0000000003FF0000004104000207810007C72
:1027C0000000003FF00000082080002030100022B0
:1027D0000000001FE00000104100002F03D0002285
:1027E0000000001FE00000208200002F87D00022A0
:1027F0006C70003FF00000208200002F87D0003C6A
:102800003088003FF0000010410000278790002032
:102810002088003FF000000820800033873000202F
:102820002088000FC0000000000000380070002069
:1028300020880007800000FFFFC0003FFFF000700D
:1028400078700003000000FFFFC0000000000006D9
:102850000900FE000000000001090008FE0000055C
:10286000080806000040F0C8888898781005080815
:10287000060000C0F88888888888F80505050600E5
:10288000012030F830200508080600002070F820EC
:10289000202020E00509090600FF2070A8A8B888BC
:1028A0008870200509090600FFE080C0B0A8283024
:1028B00028280509090600FFF8A88888888888A8BC
:1028C000F8050A0A0600FE205050505088A8A88833
:1028D0007003030306000340A040627573793A2039
:1028E00070617573656420666F7220696E707574AF
:1028F0000A00627573793A207061757365642066A9
:102900006F7220757365720A00627573793A207070
:10291000726F63657373696E670A004B494C4C456F
:10292000442E20004B494C4C206361757365642034
:10293000627920746F6F206D75636820696E6163C2
:10294000746976652074696D65202D2063757272D7
:10295000656E7420636F6D6D616E643A2000506C1B
:1029600065617365207265736574005052494E54F9
:1029700045522048414C544544005072696E74657C
:10298000722068616C7465642E206B696C6C2829F8
:102990002063616C6C6564210A0000000000000087
:1029A0000000000000000000484200004842000013
:1029B0008040000000005761726E696E673A2048DF
:1029C0006F6D696E672042756D702044697669731A
:1029D0006F72203C20310A000202040000A0400077
:1029E00000A0400000004000006B4300006B43006B
:1029F000007A43FFFFFF4D6F766520302E316D6DFD
:102A0000004D6F766520316D6D004D6F766520311C
:102A1000306D6D004D6F7665206178697300457883
:102A2000747275646572004D6F7665205A004D6F43
:102A300076652059004D6F76652058004578747290
:102A400075646572004D6F7665205A004D6F76652E
:102A50002059004D6F766520580050726570617284
:102A600065004C6F61642073657474696E677300F0
:102A7000496E697469616C697A6520454550524FA9
:102A80004D0053746F72652073657474696E67735B
:102A900000424C546F7563680046696C616D656EE9
:102AA00074004D6F74696F6E0054656D706572616E
:102AB00074757265004D61696E005072656865617C
:102AC000742041425320636F6E66005072656865E2
:102AD000617420504C4120636F6E660046616E2029
:102AE00073706565640046616E207370656564008F
:102AF00046616E20737065656400426564004265DE
:102B000064004E6F7A7A6C65004E6F7A7A6C65005D
:102B1000436F6E74726F6C0053746F7265207365CF
:102B20007474696E677300426564004265640042B4
:102B30006564004E6F7A7A6C65004E6F7A7A6C65C8
:102B4000004E6F7A7A6C650046616E207370656521
:102B5000640046616E2073706565640046616E2096
:102B600073706565640054656D706572617475722B
:102B7000650050726F62696E67206661696C65649A
:102B80000A0050726F62696E67206661696C6564E5
:102B900000205A3A200020593A200042656420580B
:102BA0003A20002E0A0046696C652862696E292069
:102BB00064656C657465640044656C6574696F6E0A
:102BC0002862696E29206661696C6564005344203F
:102BD00063617264206F6B0A006F70656E526F6F75
:102BE00074206661696C65640A00766F6C756D654A
:102BF0002E696E6974206661696C65640A005344CD
:102C000020696E6974206661696C0A000000210009
:102C1000240027002A0000002200250028002B00A5
:102C20000000200023002600290002020202020206
:102C3000020204040404040404040303030303035E
:102C40000303010101010101010101020408102037
:102C50004080010204081020408001020408102076
:102C600040808040201008040201000000010200A2
:102C7000090A00000000040308070000000000002B
:102C8000000000000000000000007C3C3E5E2B3D88
:102C90003F2F5B5D3B2C2A225C004E6F206D6F76D0
:102CA000652E00456E642066696C65206C697374DE
:102CB0000A00426567696E2066696C65206C6973FD
:102CC000740A00202F002042403A0020403A006F52
:102CD0006B0048656174696E6720646F6E652E00D5
:102CE00020573A0045787472756465722025730028
:102CF0004D3131332053003344205072696E746576
:102D000072204F66662E00205A3A0020593A002061
:102D1000436F756E7420583A0020453A00205A3AA5
:102D20000020593A00583A0020636F6C642065789F
:102D300074727573696F6E2070726576656E7465F6
:102D4000640A006265640A002C2073797374656DEF
:102D50002073746F707065642120486561746572BA
:102D60005F49443A200048656174696E6720666176
:102D7000696C65640048656174696E6720666169A5
:102D80006C65640048656174696E67206661696C92
:102D900065640048656174696E67206661696C6589
:102DA000640070012C0190012701B0012201C001D3
:102DB0001D01F00118011002130130020E01600222
:102DC000090190020401C002FF000003FA00400361
:102DD000F5008003F000D003EB002004E60070044F
:102DE000E100E004DC004005D700C005D200400649
:102DF000CD00D006C8008007C3003008BE00F00830
:102E0000B900C009B400B00AAF00B00BAA00D00CE2
:102E1000A500000EA000500F9B00C010960050129D
:102E2000910000148C00C0158700B0178200B01903
:102E30007D00D01B7800001E730040206E009022A1
:102E40006900F024640040275F0090295A00E02BBD
:102E50005500102E500020304B0010324600E03359
:102E6000410090353C001037370070383200A039EF
:102E70002D00B03A2800A03B2300603C1E00103D0E
:102E80001900903D1400103E0F00703E0A00C03E35
:102E90000500003F0000403FFBFF803FF6FFC03FC2
:102EA000F1FF544845524D414C2052554E41574137
:102EB0005900546865726D616C2052756E6177615E
:102EC00079004572723A204D494E54454D5020428A
:102ED0004544004572723A204D494E54454D5000CC
:102EE0004D494E54454D502074726967676572654F
:102EF00064004572723A204D415854454D5020426D
:102F00004544004572723A204D415854454D500099
:102F10004D415854454D502074726967676572651C
:102F200064005654726176206D696E005654726169
:102F300076206D696E005654726176206D696E0060
:102F4000566D696E00566D696E00566D696E00565D
:102F50006D6178204500566D6178204500566D61A1
:102F600078204500566D6178205A00566D617820B2
:102F70005A00566D6178205A00566D6178205900CC
:102F8000566D6178205900566D6178205900566D54
:102F90006178205800566D6178205800566D617830
:102FA0002058004D6F74696F6E00416D6178204547
:102FB00000416D6178204500416D6178205A0041E3
:102FC0006D6178205A00416D6178205900416D6132
:102FD00078205900416D6178205800416D6178205A
:102FE0005800412D74726176656C00412D747261D8
:102FF00076656C00412D7265747261637400412DB9
:103000007265747261637400416363656C0041634F
:1030100063656C004D6F74696F6E0056652D6A654F
:10302000726B0056652D6A65726B0056652D6A6578
:10303000726B00567A2D6A65726B00567A2D6A653E
:10304000726B0056792D6A65726B0056792D6A6530
:10305000726B0056792D6A65726B0056782D6A6521
:10306000726B0056782D6A65726B0056782D6A6512
:10307000726B004D6F74696F6E00507265686561A8
:103080007420504C4120456E640050726568656143
:103090007420504C4120426564005072656865613F
:1030A0007420504C4100507265706172650050721E
:1030B0006568656174204142532042656400507226
:1030C00065686561742041425320456E640050720A
:1030D0006568656174204142530050726570617289
:1030E0006500473238005072656865617420504C45
:1030F0004100436F6F6C646F776E00507265686556
:103100006174204142530044697361626C652073AD
:1031100074657070657273004D38340042656420C8
:103120004C6576656C696E67004732380A473239FC
:10313000004175746F20686F6D65004D6F76652076
:1031400061786973004D61696E004D6F7665205836
:10315000004D6F76652059004D6F7665205A004509
:1031600078747275646572006175746F25692E6775
:10317000004D3234004D323320257300577269748C
:10318000696E6720746F2066696C653A20006F7005
:10319000656E206661696C65642C2046696C653AD1
:1031A00020006F70656E206661696C65642C204636
:1031B000696C653A200046696C652073656C6563CF
:1031C0007465640A002053697A653A200046696C88
:1031D00065206F70656E65643A20006F70656E20C3
:1031E0006661696C65642C2046696C653A20002034
:1031F00066696C653A20004E6F7720002220706F60
:1032000073002220706172656E743A220053554239
:10321000524F5554494E452043414C4C20746172E5
:103220006765743A22004B494C4C45442E2000748B
:103230007279696E6720746F2063616C6C2073759E
:10324000622D67636F64652066696C6573207769BA
:10325000746820746F6F206D616E79206C6576657F
:103260006C732E204D4158206C6576656C20697317
:103270003A004572726F723A00526573656E643A35
:1032800020006F6B0020636F6C642065787472752A
:1032900073696F6E2070726576656E7465640A007E
:1032A00086E67BE711241FBECFEFD0E4DEBFCDBFA3
:1032B00013E0A0E0B1E0E4E2F1EF01E00BBF02C0F7
:1032C00007900D92A03DB107D9F72AE1A0EDB3E038
:1032D00001C01D92AB31B207E1F719E1C1E5D9E1B7
:1032E00004C02197FE010E94FCF7C035D107C9F741
:1032F0000E9412DA0C9485F80C9400002F923F92F1
:103300004F925F926F927F928F929F92AF92BF92F5
:10331000CF92DF92EF92FF920F931F93CF93DF93A1
:10332000CDB7DEB7CD55D1090FB6F894DEBF0FBECD
:10333000CDBF00910D0920E6029F800111240357A3
:10334000184F80916E1580FF1AC0EFEBF5E2849163
:103350007F013FEFE31AF30A811102C0780104C034
:103360000E94DC4FF701F3CFD7018D917D018823B7
:1033700019F00E94DC4FF8CF8AE00E94DC4F81E018
:1033800090E090936D1280936C121092F103109262
:10339000F0038FE38093F9031092F8031092F70380
:1033A0001092EA031092EB031092EC031092ED03DB
:1033B000F80180810F5F1F4F8032D1F38E34B1F45A
:1033C000818190ED980F9A3020F08D3211F08B3280
:1033D00069F43296DF0131962C9120532A30D0F3D4
:1033E000CD01FC01019620812032D9F3F0937412B3
:1033F000E09373127F01BFEFEB1AFB0A10816AE2C0
:1034000070E0C7010E944DF8009731F0FC01319740
:1034100080818032E1F311821D3429F0143519F0D6
:10342000173409F0CFC0F70180812FEFE21AF20ABA
:103430008032C9F380538A3008F0C4C01093F90376
:103440002091F7033091F8034AE03196429FC00182
:10345000439F900D1124DF0111972C91022E000C37
:10346000330B20533109280F391F808180538A3054
:1034700060F33093F8032093F703DF0131968C91CA
:103480008032D9F31D3449F0009173124091F0035A
:103490005091F10361E070E058C02E31310591F098
:1034A0003CF42731310571F02C31310569F70AC040
:1034B000253731054CF32737310524F0203A43E016
:1034C000340711F7B093F103A093F0037BC081326E
:1034D00009F445C09FEBB92EB80E89E1A82EAB14B4
:1034E00008F45EC0DF01FD01908111969032D9F39E
:1034F000A0EDA90FAA3008F047C04F01EB2CF12C2A
:103500006701A3E0D594C794AA95E1F7C601865157
:103510009C4F6C018B2D8770DB0102C0AA0FBB1F73
:103520008A95E2F7CD01D6019C91892B8C93811469
:103530009104A1F1801AC70180539C4FDC018C9249
:10354000808181548A3188F5DF01FD0131968C91AB
:103550008111BDCF5093F1034093F00333C01D346C
:1035600009F0B8CF2032310509F0B4CFF093F10360
:10357000E093F00363E270E0CF010E944DF8009702
:1035800009F1DC011C921EC0A3EDA90FA23008F4C2
:10359000B4CF9B3211F00C942A2EAFCF812CCBCF1D
:1035A0004115510569F6AD01CBCFDF0131969C91F4
:1035B00090539A30D0F3CD01FC010196A081A03246
:1035C000D9F3C2CF8091F9038D3409F403C3843554
:1035D00011F40C94C82D873411F00C94092E8091AD
:1035E000F7039091F8038D31910509F471C174F4DA
:1035F0008430910509F493C024F40297F8F00C94F8
:10360000232E4C9709F48FC00C94232E8A359105F4
:1036100009F4D0C14CF48E31910509F45DC18A974B
:1036200009F440C20C94232E8B35910509F4C6C1D0
:103630008C35910509F4C7C10C94232E809180012B
:10364000882311F40C94232E69E7C62E62E1D62E4E
:1036500073EFE72E72E1F72EE2EFAE2EE3E0BE2E1F
:1036600002EA11E0F4E09F2E900EF80181918F01A3
:103670000E948F4F8823E1F00E945C4FD5012C916E
:10368000211104C02091F603222331F0F70120819B
:1036900031814281538103C020E030E0A9010E94C2
:1036A000BBF5D6016D937D938D939C9313970AC0C0
:1036B000F70180819181A281B381F601808391839A
:1036C000A283B383F4E0CF0ED11C24E0E20EF11C00
:1036D0003FEFA31AB30A9012C8CF86E40E94BE4FF0
:1036E0008823C9F00E945C4F20E030E0A9010E94CD
:1036F0003EF7181684F40E945C4F20E030E040E76B
:1037000052E40E943EF660936D0170936E018093C7
:103710006F01909370010E946FD60C94232E0E942B
:10372000A83D0C94232E0E94635D80E00E94AA3E77
:103730000E94784081E08093000488E50E948F4FCA
:10374000E82E89E50E948F4F082F8AE50E948F4F4F
:10375000F82EE11005C0011105C011E0182705C0C1
:10376000011102C010E001C0182F0E94EC4D111190
:1037700004C0E11002C00023C1F180E090E0A0EAA3
:10378000B0E48093811290938212A0938312B0933D
:1037900084129C01AD016091FB127091FC1280912A
:1037A000FD129091FE120E94FDEE87FF0BC0198260
:1037B0001A821B821C82BE016F5F7F4F81E892E1FB
:1037C0000E949840111105C0E11003C0011107C00B
:1037D0000CC080E090E00E944D871123B9F381E096
:1037E00090E00E944D87111103C0FF2009F45EC0D4
:1037F00080910104882321F08091020481111DC071
:1038000060E080E292E00E94573AEFEBF5E28491AB
:103810008F010F5F1F4F882321F00E94DC4FF801BA
:10382000F6CFEFE0F2E084918F010F5F1F4F882306
:10383000E9F10E94DC4FF801F6CF0E94D14E80E002
:1038400090E0AAEEB2E48093791290937A12A0935A
:103850007B12B0937C1280937D1290937E12A09382
:103860007F12B09380128091FB129091FC12A09174
:10387000FD12B091FE128093811290938212A09358
:103880008312B093841219821A821B821C829E01B9
:103890002F5F3F4F4BEF52E16DE772E189E792E115
:1038A0000E94074D82E090E00E944D870E94D14E19
:1038B0008091B809809300040E945E4083E0809369
:1038C00071010E946DA681E00E94AA3E0C94232EF5
:1038D0000E9481410C94232EC090F312D090F412D8
:1038E000E090F512F090F61288E50E94BE4F81112B
:1038F00008C020E030E0A901C701B6010E94BBF575
:1039000002C00E945C4F68A379A38AA39BA3C090C6
:10391000F712D090F812E090F912F090FA1289E5BF
:103920000E94BE4F811108C020E030E0A901C7010C
:10393000B6010E94BBF502C00E945C4F6B017C0186
:1039400069837A838B839C8388A099A0AAA0BBA05B
:103950002FE632E143E85AEBC501B4010E943EF77D
:1039600087FF02C00C94232E22E430E04BE653E4A0
:10397000C501B4010E94FDEE181614F40C94232E18
:103980002FE632E143E85AEBC701B6010E943EF749
:1039900087FF02C00C94232E22E430E04BE653E470
:1039A000C701B6010E94FDEE181614F40C94232EE4
:1039B0000C94342E1092F6030C94232E81E0809305
:1039C000F6030C94232E85E40E94BE4FD82E81115D
:1039D00002C00E94635D42EAA42E41E0B42E53EF80
:1039E000E52E52E1F52E00E010E0CC24C394D50181
:1039F0008D915D010E94BE4F882371F00E945C4F43
:103A0000F7016083718382839383133029F012302E
:103A100011F4C092030401E01F5FF4E0EF0EF11C0B
:103A2000143029F7002319F00E94D14E37C0DD2051
:103A3000A9F1C090FF12D0900013E0900113F09014
:103A400002132091C60E3091C70E4091C80E5091BE
:103A5000C90EC701B6010E9463EF0E9443F760934D
:103A60003E0F70933F0F8093400F9093410FC7011B
:103A7000B6010E94B0F62FB7F89460939A15709330
:103A80009B1580939C1590939D152FBF10922E0F20
:103A900010922F0F1092300F1092310F0E946DA6CE
:103AA0000C94232E80918001882311F40C94232EF2
:103AB00089E40E94BE4F182F882321F00E94284FCE
:103AC000062F01C000E08AE40E94BE4FE82E882342
:103AD00031F00E94284FF62E111104C00AC0F12CBB
:103AE0001123C1F0033010F40C943031E2E4F2E021
:103AF00005C032E0A32EAF14C8F30CC084918F012F
:103B00000F5F1F4F882311F40C94232E0E94DC4F6B
:103B1000F801F4CF0E94EC4D1123E9F02091D90E69
:103B20003091DA0E0203B001039F700D1124209131
:103B3000D50E3091D60E620F731F072E000C880B26
:103B4000990B0E9404EF6093791270937A1280931C
:103B50007B1290937C12EE20F1F02091DB0E3091DD
:103B6000DC0E4F2D4203B001439F700D1124809154
:103B7000D70E9091D80E680F791F072E000C880B76
:103B8000990B0E9404EF60937D1270937E128093D4
:103B90007F129093801280E50E948F4F81110E94C6
:103BA0004C4F86E40E94BE4F882309F4B4CD0E9496
:103BB0005C4F6B017C0120E030E0A9010E943EF7E0
:103BC00018160CF0A8CD20E030E040E752E4C70121
:103BD000B60197CD8091F7039091F8038237910554
:103BE00009F43CC60CF0B6C08B34910509F49FC4AF
:103BF0000CF059C08831910509F432C284F5823144
:103C0000910509F423C684F497FF02C00C94232E77
:103C1000823091050CF485C1419711F00C94232E4C
:103C20000E946BAB0C94232E8531910509F401C2DF
:103C300044F4449711F00C94232E0E9411AB0C9481
:103C4000232E8631910509F4F8C1479711F00C94A1
:103C5000232E8091F0039091F103FC01F8C18C3187
:103C6000910509F44AC264F48A31910509F405C248
:103C70000CF007C210927C0F0E9422950C94232E08
:103C80008F31910509F46DC32CF44E9709F43FC2AE
:103C90000C94232E8032910509F419C38A9709F4F4
:103CA00006C40C94232E8836910509F44CC43CF5C7
:103CB0008235910509F4C1C57CF48D34910509F470
:103CC0003EC40CF438C48135910511F00C94232EB8
:103CD0000E942EA80C94232E8435910509F4B6C5B4
:103CE0000CF4AFC58535910509F4B4C58C35910543
:103CF00011F00C94232E0E942CA70C94232E8D36A9
:103D0000910509F44BC59CF48A36910509F464C504
:103D10000CF438C58B36910509F47DC58C369105B8
:103D200011F00C94232E109208010C94232E8F3640
:103D3000910509F45AC40CF445C48037910509F47F
:103D4000FBC48137910511F00C94232E0E9449A8E1
:103D50000C94232E823E910511F40C94E9270CF06B
:103D600065C08B39910509F415C51CF58737910598
:103D700009F44AC674F48537910509F405C60CF0B8
:103D80000CC68337910511F00C94232EEAE6F4E07B
:103D90006BC58937910509F4A2C60CF499C68C3815
:103DA000910509F4D1C48139910509F49EC60C949A
:103DB000232E8C3C910511F40C947126F4F4883C6C
:103DC000910509F40CC734F48E3B910509F4EAC45B
:103DD0000C94232E893C910509F44BC78B3C91052B
:103DE00011F00C94232E58E0E52E56E1F52E02EA50
:103DF00011E064E0D62ED00E65C7833D910511F425
:103E00000C9446273CF48D3C910511F40C94DB2670
:103E10000C94232E8C3D910511F40C94C3278D3DF9
:103E2000910511F40C94D0270C94232E8A3951E07B
:103E3000950709F485C4BCF58F32B1E09B0711F4F6
:103E40000C94AF2984F48D32F1E09F0711F40C94A7
:103E5000BD2814F00C945B298831914011F40C9426
:103E600013280C94232E803941E0940711F40C940C
:103E70001D2C4CF48336914011F00C94232EE2E774
:103E8000F2E30C949F2D8139B1E09B0711F40C945F
:103E9000202C8239914011F00C94232E80E00E9456
:103EA000F3400C94232E863FF1E09F0711F40C940D
:103EB000582DECF4853A31E0930711F40C94C12CA1
:103EC0003CF4843A914011F40C94242C0C94232E4D
:103ED000843FA1E09A0711F40C94552D853F914041
:103EE00011F00C94232E0E94B4720C94232E83356F
:103EF000E3E09E0711F40C94692D3CF4873F914058
:103F000011F40C945B2D0C94232E803A33E093072C
:103F100009F41AC2873E934011F40C94B62D0C9408
:103F2000232EA090F003B090F10380E50E94BE4FD5
:103F3000882359F00E94184F6B017C0111E0672B18
:103F4000682B692B31F410E004C010E0C12CD12C97
:103F5000760183E50E94BE4F8823F1F00E945C4FFA
:103F600020E030E04AE754E40E9463EF0E94B7F695
:103F70006B017C01111112C0672B682B692B71F446
:103F8000A114B10459F0D5018C91882339F061E076
:103F9000C5010E94763A07C0112391F360E082E8E0
:103FA00092E00E94573A83E090E090936D128093E4
:103FB0006C1281E080931F090E94635D0E94D14FC3
:103FC000C114D104E104F104E9F080916B079091F0
:103FD0006C07A0916D07B0916E07C80ED91EEA1E3E
:103FE000FB1E0E94009BDC01CB018C199D09AE09D0
:103FF000BF09B7FF1AC080911F098823B1F00E9442
:10400000FE88EFCF80911F09882319F00E94FE8857
:10401000F9CF80917C0F60E0882319F083E792E06C
:1040200002C081E692E00E94573A10921F090C9458
:10403000232E0E94E8920C94232E10927C0F109253
:104040007D0F0C94232E203209F4108231962081AA
:104050002111F9CF40E061E00E9498CF0C94232E0B
:104060000E94F39480917D0F882319F081E0809362
:104070007C0F0E94B3940C94232E0E94F7AA0C94F8
:10408000232E80917D0F882351F1E5E9F2E08491A0
:104090008F010F5F1F4F882321F00E94DC4FF80132
:1040A000F6CF6091171270911812809119129091A9
:1040B0001A124AE00E94E34F8FE20E94DC4F6091A7
:1040C00013127091141280911512909116124AE0F9
:1040D0000E94E34F8AE00E94DC4F0C94232EE7EA13
:1040E000F2E084918F010F5F1F4F882311F40C942D
:1040F000232E0E94DC4FF801F4CF40E060E0809175
:10410000F0039091F1030E9498CF0C94232E80919C
:104110007D0F882311F40C94232E87E491E10E94F3
:10412000759E87E491E10E94CE8410927B0F1092DD
:104130007A0FE090F003F090F10380917D0F8823D7
:1041400011F40C94232E0E94D879FE0131966F0150
:10415000CF010E94137789EA9FE09093C90F809363
:10416000C80FD7018C918F3209F060C06FE270E008
:10417000C7010E944DF88C010F5F1F4F09F45CC00E
:104180006FE270E0C8010E944DF85C01009709F4ED
:1041900054C00817190708F050C04C01801A910A42
:1041A000A401B801CE0180960E9476F8E0E2F0E02A
:1041B000EC0FFD1FE80DF91D10828E01005E1F4FF0
:1041C000F80181918F01882319F00E94DC4FF8CF0C
:1041D0008AE00E94DC4F6091C80F7091C90F611591
:1041E000710511F06C5F7F4F21E0AE01405E5F4FC3
:1041F000CE0105960E94B3A4811112C0BE01605E7B
:104200007F4F8EED92E00E9475AB8EE20E94DC4FF4
:104210008AE00E94DC4FC6010E9474880C94232E11
:10422000D092C90FC092C80F8501A6CF8AEC9FE03B
:104230009093C90F8093C80F87018091C80F909108
:10424000C90F009709F00496B8010E94A8A5882319
:1042500009F1E8EBF2E084917F012FEFE21AF20A14
:10426000882321F00E94DC4FF701F5CFD8018D9112
:104270008D01882319F00E94DC4FF8CF8AE00E945C
:10428000DC4F1092171210921812109219121092FD
:104290001A1218C0E6ECF2E084917F01BFEFEB1A2E
:1042A000FB0A882321F00E94DC4FF701F5CFF801CB
:1042B00081918F01882319F00E94DC4FF8CF8EE2A4
:1042C0000E94DC4FC6010E9474880C94232E8091BA
:1042D0007C0F81110E94635DE090F003F090F10388
:1042E00080E50E948F4F182F882319F00E944C4FB1
:1042F000182F80917D0F882311F40C94232E412FC9
:1043000061E0C7010E9498CF83E50E94BE4F8823D9
:1043100081F00E94284FAB01BC01409317125093CB
:1043200018126093191270931A1287E491E10E9497
:10433000B89E80917D0F882319F081E080937C0FD7
:1043400011110C94232E95CE8091F0039091F103DE
:1043500021E020937B0F40E060E00E9498CF0C9416
:10436000232E0E94B97B2CE3C22ED12CE12CF12C00
:10437000A70196010E9457F5762E672ECA01B90152
:10438000A70196010E9457F56B017C01CA01B90192
:1043900028E130E040E050E00E9457F54B015C011D
:1043A000C9016DE671E00E94D4F78E010F5F1F4FC7
:1043B0006115710599F06F927F92DF92CF929F9273
:1043C0008F929F938F937F936F938AE193E09F9354
:1043D0008F931F930F930E9494EE12C00097B1F039
:1043E0006F927F92DF92CF929F928F929F938F9343
:1043F0008AE093E09F938F931F930F930E9494EE14
:104400000FB6F894DEBF0FBECDBF36C08114910445
:10441000A104B10479F06F927F92DF92CF929F92C4
:104420008F928EEF92E09F938F931F930F930E9432
:1044300094EEE6CFC114D104E104F10469F06F9267
:104440007F92DF92CF9286EF92E09F938F931F939C
:104450000F930E9494EED4CF6F927F9282EF92E0FE
:104460009F938F931F930F930E9494EE0F900F9042
:104470000F900F900F900F9060E0C8010E94763A65
:10448000EFEBF5E284917F01BFEFEB1AFB0A882383
:1044900021F00E94DC4FF701F5CFB8018EE293E0E6
:1044A0000E9475AB8AE00E94DC4F0C94232E83E5BA
:1044B0000E94BE4F882311F40C94232E0E94384F83
:1044C000E82E80E50E94BE4F882311F40C94232E21
:1044D0000E94284F162FC62ED72ED7FE02C00C944E
:1044E000232EECE4F6E088E28E0F9491191729F060
:1044F00031968E13FACF0C948A2EE2E7F2E3849180
:104500008F010F5F1F4F882321F00E94DC4FF801BD
:10451000F6CFEBE3F3E084918F010F5F1F4F882309
:1045200011F40C94232E0E94DC4FF801F4CF0E946A
:10453000B3940C94232E0E9422950C94232E0E9457
:10454000E3790C94232E88E690E00E944B50811171
:104550000C94232E80916E1583FF02C00C94232EA1
:1045600083E50E94BE4F882349F10E945C4F0E9460
:10457000B0F67093BE126093BD1280E00E94FFBB44
:104580000E945C4F209126123091271240912812F0
:10459000509129120E943EF7181684F48DE492E09F
:1045A0009F938F938AE493E09F938F931F920E942F
:1045B00032940F900F900F900F900F900E949CAB31
:1045C0000C94232E8EE40E94BE4F882311F40C9489
:1045D000232E0E94284F6093D9197093DA19809383
:1045E000DB199093DC190C94232E83E50E948F4FE6
:1045F000882359F083E50E94BE4F882319F00E945A
:10460000384F01C080E080936E15EFEBF5E28491A6
:104610008F010F5F1F4F882321F00E94DC4FF801AC
:10462000F6CFE4E6F3E084918F010F5F1F4F8823FC
:1046300021F00E94DC4FF801F6CF80916E1588239F
:10464000A1F196E5C92E93E0D92EE12CF12C20E0C2
:1046500080916E1590E00E2C02C0959587950A9476
:10466000E2F780FF17C0BB24B394B20E222319F0E7
:104670008CE20E94DC4FF60125913491F90184917E
:1046800089010F5F1F4F882321F00E94DC4F9801A2
:10469000F5CF2B2DFFEFEF1AFF0A32E0C30ED11C2E
:1046A00045E0E416F104A1F642C0E0E6F3E08491AF
:1046B0008F010F5F1F4F8823D1F10E94DC4FF8015B
:1046C000F6CF8AE50E948F4F882311F40C94912D28
:1046D0000E945C4F6B017C0120E030E040EA51EC2D
:1046E0000E943EF787FF02C00C94832D20E030E04B
:1046F00040EA51E4C701B6010E94FDEE181614F419
:104700000C94832DC092EF12D092F012E092F1122D
:10471000F092F2120E94FB966091EF127091F012EB
:104720008091F1129091F21242E00E94EA538AE0E5
:104730000E94DC4F0C94232E8BE693E00E94868827
:104740000E943DA60C94232E80916E1583FF02C01B
:104750000C94232E83E50E94BE4F882311F40C9401
:10476000232E0E945C4F0E94B0F66739710514F049
:1047700066E970E07093BC126093BB120E94B4BBF8
:104780000C94232E0E94DAAA10926D1210926C12D1
:104790000C945E310E9473A80C94232E0E942DA9C4
:1047A0000C94232E80916E1583FF02C00C94232E4F
:1047B00060E082E893E00E94573A83E50E94BE4F92
:1047C0008DAB81110C94A12E82E50E94BE4F811108
:1047D0000C94A12E0C94232E83E50E94BE4F8823B7
:1047E00039F00E94284F8B016F3F710519F010F0CE
:1047F0000FEF10E080E50E94BE4F811106C01093BC
:10480000C0120093BF120C94232E0E94384F8111C6
:104810000C94232EF4CF80E50E94BE4F811106C078
:104820001092C0121092BF120C94232E0E94284F97
:10483000672B11F00C94232EF3CF1092F5030C94F8
:10484000232E81E08093F5030C94232E0E94E2A78F
:104850000C94232E0E94CAA70C94232E0E94635D01
:104860000E946DA60C94232E84918F010F5F1F4F21
:10487000882321F00E94DC4FF801F6CFECE5F4E04C
:1048800084918F010F5F1F4F882321F00E94DC4F1E
:10489000F801F6CFE5E4F4E084918F010F5F1F4F3C
:1048A000882321F00E94DC4FF801F6CFE5E3F4E025
:1048B00084918F010F5F1F4F882321F00E94DC4FEE
:1048C000F801F6CFE4E2F4E084918F010F5F1F4F0F
:1048D000882321F00E94DC4FF801F6CFE3E1F4E0F9
:1048E00084918F010F5F1F4F882321F00E94DC4FBE
:1048F000F801F6CFE4E0F4E084918F010F5F1F4FE1
:10490000882321F00E94DC4FF801F6CFEFEEF3E0B0
:1049100084918F010F5F1F4F882321F00E94DC4F8D
:10492000F801F6CFE9EDF3E084918F010F5F1F4F9F
:10493000882321F00E94DC4FF801F6CFE4ECF3E08D
:1049400084918F010F5F1F4F882321F00E94DC4F5D
:10495000F801F6CFE7EAF3E084918F010F5F1F4F74
:10496000882321F00E94DC4FF801F6CFEFE8F3E056
:1049700084918F010F5F1F4F882311F40C94232E15
:104980000E94DC4FF801F4CF60E08091F003909139
:10499000F1030E94763A0C94232E85E40E948F4FF7
:1049A000882381F00E944C4F882361F0EFEBF5E201
:1049B00084918F010F5F1F4F882321F00E94DC4FED
:1049C000F801F6CF81E40E948F4F882381F00E9486
:1049D0004C4F882361F0EAE3F5E084918F010F5F8B
:1049E0001F4F882321F00E94DC4FF801F6CF009181
:1049F000F0031091F103D8018D918D01882309F402
:104A000096CE0E94DC4FF7CFE6E5F5E084918F016A
:104A10000F5F1F4F882321F00E94DC4FF801F6CF73
:104A2000EEE4F5E084918F010F5F1F4F882321F0A2
:104A30000E94DC4FF801F6CF329903C002E312E086
:104A400002C007E312E0F80181918F01882319F079
:104A50000E94DC4FF8CF8AE00E94DC4FE6E4F5E0EC
:104A600084918F010F5F1F4F882321F00E94DC4F3C
:104A7000F801F6CF339903C002E312E002C007E366
:104A800012E0D8018D918D01882319F00E94DC4F2E
:104A9000F8CF8AE00E94DC4FEEE3F5E084918F01CD
:104AA0000F5F1F4F882321F00E94DC4FF801F6CFE3
:104AB000349903C002E312E002C007E312E0F801F8
:104AC00081918F01882309F432CE0E94DC4FF7CF09
:104AD00081E0809300048093B8090C94232E1092F7
:104AE00000041092B8090C94232E83E50E94BE4F57
:104AF000882319F00E94284F02C060E070E08B010B
:104B0000112702301105D4F0E2E7F2E384918F011E
:104B10000F5F1F4F882321F00E94DC4FF801F6CF72
:104B2000E0E7F5E084918F010F5F1F4F882311F4B8
:104B30000C94232E0E94DC4FF801F4CF88E40E94ED
:104B4000BE4F8823A9F00E94284F6A3A71053CF0B5
:104B50006530F1E07F072CF064E071E002C06AEAA2
:104B600070E0F801EE0FFF1FE756FD4E7183608382
:104B700086E40E94BE4F8823A9F00E94284FF801C6
:104B8000EE0FFF1FE356FD4E718360836F3F71058B
:104B900019F014F06FEF70E077FF02C060E070E092
:104BA0007183608382E40E94BE4F882311F40C94C9
:104BB000232E0E94284F6530710534F06838710546
:104BC0002CF067E870E002C065E070E0000F111F94
:104BD000F801EB56FD4E718360830C94232E88EC14
:104BE00090E00E944B5081110C94232E84E40E948B
:104BF0008F4F8823D1F10E945C4F11E020E030E01C
:104C0000A9010E94FDEE811101C010E01093CE0EAB
:104C1000112359F10091EE0310E00E945C4F000F48
:104C2000111F000F111FF801E653F14F60837183CC
:104C30008283938320E030E0A9016091CA0E7091D5
:104C4000CB0E8091CC0E9091CD0E0E94FDEE811185
:104C50000CC080E090E0A0EEBFE38093CA0E90937A
:104C6000CB0EA093CC0EB093CD0E0E9489840C94F1
:104C7000232E78E1E72E76E1F72E02EA11E0E4E058
:104C8000DE2ED00ED8018D918D010E948F4F88238A
:104C900049F00E945C4F0E94B7F6F7016083718370
:104CA00082839383F4E0EF0EF11CD012EBCF0E94CD
:104CB000CCAB0C94232EF4E0EF0EF11CD01611F4C3
:104CC0000C94232ED8018D918D010E948F4F882343
:104CD00091F30E945C4FF701608371838283938319
:104CE000EACF83E50E948F4F8823D9F00E945C4F62
:104CF000AB01BC01409330165093311660933216CD
:104D000070933316409328165093291660932A16F1
:104D100070932B168CEE95E00E9416668AE00E9436
:104D2000DC4F80E50E948F4F882399F00E945C4FF2
:104D3000AB01BC014093301650933116609332168C
:104D4000709333168FEC95E00E9416668AE00E94FD
:104D5000DC4F82E50E948F4F882399F00E945C4FC0
:104D6000AB01BC0140932C1650932D1660932E1668
:104D700070932F1680EB95E00E9416668AE00E94E1
:104D8000DC4F84E50E948F4F882309F45CC70E94A2
:104D90005C4FAB01BC0140932816509329166093D9
:104DA0002A1670932B1682E995E00E9416668AE017
:104DB0000E94DC4F48C783E50E948F4F882351F043
:104DC0000E945C4F6093041670930516809306163C
:104DD0009093071684E50E948F4F882351F00E941C
:104DE0005C4F6093001670930116809302169093A7
:104DF000031682E40E948F4F882351F00E94184FBF
:104E00006093661570936715809368159093691584
:104E100088E50E948F4F882351F00E945C4F609379
:104E2000341670933516809336169093371689E5AD
:104E30000E948F4F882351F00E945C4F6093381678
:104E40007093391680933A1690933B168AE50E9428
:104E50008F4F882351F00E945C4F60933C167093F3
:104E60003D1680933E1690933F1685E40E948F4F27
:104E7000882309F4E8C60E945C4F60934016709343
:104E800041168093421690934316DDC6EFEBF5E290
:104E900084918F010F5F1F4F882321F00E94DC4F08
:104EA000F801F6CF83E50E948F4F882321F00E94FE
:104EB0004C4F80936C01ECE3F6E084918F010F5F1F
:104EC0001F4F882321F00E94DC4FF801F6CF80911C
:104ED0006C01811103C0E8E3F6E002C0E4E3F6E010
:104EE00084918F010F5F1F4F882321F00E94DC4FB8
:104EF000F801F6CFECE2F6E084918F010F5F1F4FCF
:104F0000882321F00E94DC4FF801F6CF40E050E00A
:104F1000BA018AE296E00E94166640E050E0BA01CB
:104F200087E296E00E94166640E050E0BA0184E213
:104F300096E00E941666ECE1F6E084918F010F5F27
:104F40001F4F882321F00E94DC4FF801F6CF40E08C
:104F500050E06AE673E48AE196E00E94166640E05B
:104F600050E06AE673E487E196E00E94166640E04E
:104F700050E06AE773E484E196E00E9416668AE0F6
:104F80000E94DC4F60C683E50E94BE4F882309F46F
:104F90005AC60E94284F70930C0160930B0153C6B0
:104FA0008DED90E00E944B5081114DC683E50E942B
:104FB000BE4F882309F447C60091EE0310E00E941B
:104FC000284F000F111FF801E75FFE4F71836083C8
:104FD0003AC680E50E948F4F882309F434C60E94A8
:104FE000284FF62EC62ED72E83E50E94BE4F88236B
:104FF00021F00E94284F8B0102C00FEF1FEFC80164
:105000000196039708F01FC6D7FC1DC6ECE4F6E036
:1050100088E28E0F9491F91609F415C631968E1315
:10502000F9CF0C94373180E50E948F4F882309F423
:105030000AC60E94284F6B017C018B01672B09F087
:105040007EC083E50E948F4F882339F00E94284F4D
:1050500089E69FE00E947564F6C5EFEBF5E2849166
:105060007F012FEFE21AF20A882321F00E94DC4F21
:10507000F701F5CF60E070E08DE896E00E943366BE
:1050800080916B0F28E532E06901C81AD10887FDCD
:10509000D394CC0CDD1CCC0CDD1C0D2C000CEE08CC
:1050A000FF0880916A0F28E830E04901881A9108CA
:1050B00087FD9394880C991C880C991C092C000C72
:1050C000AA08BB088091690F8F3FB9F090E0FC01FE
:1050D000EE0FFF1F8E0F9F1FFC01EC5BF04F018155
:1050E000128183E0000F111F8A95E1F794E0169575
:1050F00007959A95E1F70E5F1F4F98012F5F3F4F7D
:10510000C901330FAA0BBB0B9C01AD01281939094A
:105110004A095B09A4EBB0E00E9498F5A70196014B
:10512000281939094A095B090E9479F5B9018AE809
:1051300096E00E9433668AE00E94DC4F84C5E2E775
:10514000F2E384918F010F5F1F4F882321F00E94AB
:10515000DC4FF801F6CFB60183E896E00E94336693
:10516000E4E7F6E084918F010F5F1F4F882309F475
:105170006AC50E94DC4FF801F5CF85E40E94BE4F5E
:10518000811110C080E50E948F4F882391F00E940A
:105190005C4F6093A2157093A3158093A415909310
:1051A000A51507C00E94384F882361F3E2E7F2E3B8
:1051B00071C089E40E948F4F882381F00E945C4F68
:1051C0002CEA35EC47E25EE30E9463EF60939E15A4
:1051D00070939F158093A0159093A11584E40E946D
:1051E0008F4F882381F00E945C4F2CEA35EC47E218
:1051F0005EE30E943EF66093A6157093A715809318
:10520000A8159093A915EFEBF5E284918F010F5F3C
:105210001F4F882321F00E94DC4FF801F6CF409108
:10522000A2155091A3156091A4157091A5158DE953
:1052300096E00E9416662CEA35EC47E25EE3609148
:105240009E1570919F158091A0159091A1150E94B7
:105250003EF6AB01BC0189E996E00E94F9652CEAB3
:1052600035EC47E25EE36091A6157091A715809139
:10527000A8159091A9150E9463EFAB01BC0185E9C7
:1052800096E00E94F9658AE00E94DC4FDCC40E942F
:10529000DC4FF80184918F010F5F1F4F8111F7CF11
:1052A00008E512E0D8018D918D01882309F43FCAE9
:1052B0000E94DC4FF7CF83E50E948F4F182F882381
:1052C00071F00E945C4F0E94B0F67093730160937E
:1052D000720121E0672B09F020E02093651580E53D
:1052E0000E948F4F882359F02091720130917301F1
:1052F000232B11F00E944C4F80936515A4C411110B
:10530000A2C4EFEBF5E284918F010F5F1F4F88235A
:1053100021F00E94DC4FF801F6CF809165158111D4
:1053200003C061E472E002C064E372E086EB96E0E1
:105330000E9475AB609172017091730185EA96E0ED
:105340000E943366E1EAF6E084918F010F5F1F4F00
:10535000882309F478C40E94DC4FF801F5CF85E476
:105360000E94BE4F882321F00E94284F8B0102C06B
:1053700000E010E083E40E94BE4F882339F00E94D1
:10538000284F6A967FAF6EAF6A9706C0E5E0F0E0FF
:105390006A96FFAFEEAF6A9785E50E948F4F2F9612
:1053A0008FAF2F97882329F00E944C4F2F968FAFF5
:1053B0002F9717FD07C0C12CD12CB6E1EB2EB3E41B
:1053C000FB2E06C0C12CD12CACE8EA2EA2E4FA2EAA
:1053D00083E50E94BE4F882321F00E945C4F6B0141
:1053E0007C010115110511F41092EE030E94009B3F
:1053F0004B015C01012B19F409E612E00BC00CE72C
:1054000012E0D8018D918D01882309F490C90E9482
:10541000DC4FF7CFF80181918F01882319F00E94AA
:10542000DC4FF8CFC701B6010E94B0F6072E000C82
:10543000880B990B0E9404EF6FAB7BAF8CAF9DAFD5
:105440008AE00E94DC4F0E944ABC8FE78093AD1532
:1054500081E08093080164968CAE9DAEAEAEBFAE87
:1054600064976E968CAE9DAEAEAEBFAE6E971EAE1E
:10547000F0E4FFAF2CE121962FAF219736E422967E
:105480003FAF229723961FAE239724961FAE2497F3
:1054900025961FAE259726961FAE26972E961CAEF4
:1054A0001DAE1EAE1FAE2E972A961CAE1DAE1EAEB2
:1054B0001FAE2A97C12CD12C7601FFE74F2E512C1D
:1054C000612C712C8FE790E0A0E0B0E089AB9AAB43
:1054D000ABABBCAB68961CAE1DAE1EAE1FAE6897E4
:1054E00091E060969FAF60971EAA1DAA212C312CD7
:1054F00000E010E080910801882309F497C10E9420
:10550000009B6DA77EA78FA798AB8091AB158823D2
:1055100009F4ABC00E94B6BF20902612309027122B
:1055200000912812109129129101A80123966FADC4
:10553000239724967FAD249725968FAD25972696A1
:105540009FAD26970E94FDEE87FF0CC023962FAEDD
:10555000239724963FAE249725960FAF259726963E
:105560001FAF26979101A8016EAD7FAD21968FAD3B
:10557000219722969FAD22970E943EF7181644F479
:105580002EAE3FAE21960FAF219722961FAF2297E6
:105590006096AFAD60972FA93BAD4CAD5DADB1014D
:1055A000C801AA2309F447C00E943EF718160CF060
:1055B0005CC04DA55EA56FA578A9481959096A096F
:1055C0007B09DB01CA0188589341A109B109B7FDE4
:1055D0004CC089A99AA9ABA9BCA984199509A609A7
:1055E000B709B595A795979587958093AD1568965A
:1055F0004CAF5DAF6EAF7FAF6897BFA92396BFAFCB
:105600002397EBAD2496EFAF2497FCAD2596FFAF23
:1056100025972DAD26962FAF26978DA59EA5AFA5D4
:10562000B8A964968CAF9DAFAEAFBFAF64976096DC
:105630001FAE60971AC00E94FDEE87FF16C08DA5B1
:105640009EA5AFA5B8A964962CAD3DAD4EAD5FAD9E
:105650006497821B930BA40BB50BAC01BD0148589A
:1056600053416109710977FF9CC420E030E040EAB2
:1056700051E46FA97BAD8CAD9DAD0E94BBF59B0144
:10568000AC01B101C8010E943EF718166CF4E3E8C2
:10569000F7E084918F010F5F1F4F882309F4D3C275
:1056A0000E94DC4FF801F5CF80E398EFAFEFBFEF3A
:1056B0006E962CAD3DAD4EAD5FAD6E97821B930BDC
:1056C000A40BB50B2DA53EA54FA558A9820F931F7E
:1056D000A41FB51FB7FD0FC00E94A1A88AE00E94B9
:1056E000DC4F8DA59EA5AFA5B8A96E968CAF9DAFDA
:1056F000AEAFBFAF6E978DA59EA5AFA5B8A9880F19
:10570000991FAA1FBB1F64962CAD3DAD4EAD5FAD7A
:105710006497821B930BA40BB50B88199909AA09EE
:10572000BB0981389F44A241B10568F0E5E6F7E086
:1057300084918F010F5F1F4F882309F484C20E9458
:10574000DC4FF801F5CF4DA95EA96A968EAD9FADED
:105750006A97841795070CF066C0E8E0F7E084913B
:105760008F010F5F1F4F882321F00E94DC4FF8014B
:10577000F6CFB701A60183EF96E00E9416668AE095
:105780000E94DC4F2A964CAD5DAD6EAD7FAD2A9781
:105790008EED96E00E9416668AE00E94DC4F2E96FF
:1057A0004CAD5DAD6EAD7FAD2E9789EC96E00E945D
:1057B00016668AE00E94DC4F2F96AFAC2F97AA2086
:1057C00009F441C2C092A215D092A315E092A4158B
:1057D000F092A5152CEA35EC47E25EE32A966CAD13
:1057E0007DAD8EAD9FAD2A970E9463EF60939E15AD
:1057F00070939F158093A0159093A1152CEA35EC1A
:1058000047E25EE32E966CAD7DAD8EAD9FAD2E97DB
:105810000E943EF66093A6157093A7158093A81575
:105820009093A91510C20E94873A64CE8091080116
:10583000811109C20E944ABC06C20E94635D03C274
:1058400081E00E94F340FFC186E50E948F4F8823CC
:1058500041F08091D90E9091DA0E892B11F00E94BF
:10586000A7E383E50E948F4F182F882319F00E9429
:105870004C4F182F83E50E948F4F882319F0812FFA
:105880000E94AA3E8AE50E948F4F882321F00E9441
:105890005C4F0E94623EF090C109111103C0EFEB12
:1058A000F5E218C0F110FBCF02E712E3F801849192
:1058B000882329F00F5F1F4F0E94DC4FF7CF07E1CD
:1058C00018E0F8018491882351F30F5F1F4F0E9465
:1058D000DC4FF7CF84918F010F5F1F4F882321F09A
:1058E0000E94DC4FF801F6CFF11003C069E472E0CA
:1058F00002C065E472E089E098E00E9475AB8AE03E
:105900000E94DC4FEFEBF5E284918F010F5F1F4F98
:10591000882321F00E94DC4FF801F6CFECEFF7E08E
:1059200084918F010F5F1F4F882321F00E94DC4F6D
:10593000F801F6CFC090BD09D090BE09E090BF0934
:10594000F090C00920E030E0A901C701B6010E9433
:105950003EF718166CF0E7EFF7E084918F010F5FC8
:105960001F4F882309F46FC10E94DC4FF801F5CF67
:1059700042E0C701B6010E94EA538AE00E94DC4F70
:1059800062C189E40E94BE4F882321F00E94284F03
:10599000062F01C00FEF8AE40E94BE4F882321F03A
:1059A0000E94284F162F01C01FEF8AE50E948F4FDB
:1059B000F82E811105C081E50E948F4FD82E01C0BD
:1059C000D12C07FD02C017FF03C0E2E7F2E305C0D8
:1059D000F1101AC0D11018C0F8CF84918F010F5F59
:1059E0001F4F882321F00E94DC4FF801F6CFE5E538
:1059F000F8E084918F010F5F1F4F882309F423C1C2
:105A00000E94DC4FF801F5CF033018F0E2E7F2E333
:105A100006C01330D8F716C00E94DC4FF8018491FD
:105A20008F010F5F1F4F8111F7CFE6E3F8E08491FC
:105A30008F010F5F1F4F882309F405C10E94DC4FBF
:105A4000F801F5CFE02E000FFF08012F110F110B09
:105A50000E945C4FD701AA0FBB1FDD2081F0FD0122
:105A6000EE0DFF1DE00FF11FEE0FFF1FEE0FFF1FEA
:105A7000E553FD4E208131814281538103C020E0F6
:105A800030E0A901EA0EFB1E0E0D1F1D000F111FB5
:105A9000000F111F05531D4E0E94BBF5D8016D93D9
:105AA0007D938D939C931397CEC00E94806ECBC044
:105AB0000E945A5CC8C083E50E948F4F882319F06A
:105AC0000E944C4F01C081E091E089270E94A858B4
:105AD000BAC0EFEBF5E284918F010F5F1F4F88236F
